:100000000C941C0C0C944D0C0C944D0C0C944D0C3D
:100010000C944D0C0C944D0C0C944D0C0C944D0CFC
:100020000C944D0C0C944D0C0C944D0C0C944D0CEC
:100030000C944D0C0C944D0C0C944D0C0C944D0CDC
:100040000C944D0C0C944D0C0C944D0C0C944D0CCC
:100050000C944D0C0C944D0C0C944D0C0C944B1DAD
:100060000C944D0C0C94BF1D0C94951D0C944D0CD0
:100070000C944D0C0C944D0C0C944D0C0C944D0C9C
:100080000C944D0C0C944D0C0C944D0C0C944D0C8C
:100090000C944D0C0C944D0C0C944D0C0C944D0C7C
:1000A0000C944D0C0C944D0C0C944D0C0C944D0C6C
:1000B0000C944D0C0C944D0C0C944D0C0C944D0C5C
:1000C0000C944D0C0C944D0C0C944D0C0C944D0C4C
:1000D0000C944D0C0C944D0C0C944D0C0C944D0C3C
:1000E0000C944D0C0C94EB1A0C947E100C946A102A
:1000F0000C9436140C94240D0C94F9130C94200DCC
:100100000C9477120C94F40C0C94F10C0C940C0DD0
:100110000C94A4130C94F2110C9465100C944114DB
:100120000C94ED0C0C94CF100C94F7100C947025DB
:100130000C9494110C941A0D0C94D9100C941F0D5E
:100140000C94FE0C0C94160D0C94120D0C94C5100E
:100150000C94D0110C9492130C9429140C94071441
:100160000C9461190C9477140C94AC100C94C31378
:100170000C94E4110C94B6100C9474100C94CA15E1
:100180000C94E3100C9491140C94D0130C94B214AE
:100190000C94E50C0C94E90C0C9418140C94471373
:1001A0000C942A120C94FA0C0C94DF0C0C945D1035
:1001B0000C94DC130C94C1110C94ED100C94881069
:1001C0000C94040D0C94A2100C94E8130C94B61328
:1001D0000C94CF150C94F51D0C9498100C944313AB
:1001E0000C9449140C94080D0C945A140C9490100F
:1001F0004E414E494E495459494E46CDCCCC3D0A0C
:10020000D7233C17B7D13877CC2B329595E6241FEE
:10021000B14F0A000020410000C84200401C4620A7
:10022000BCBE4CCA1B0E5AAEC59D74554E4B4E4FAC
:10023000574E20434F4D4D414E4400434F4E46498B
:1002400047004144442C31342C4558504552545FAA
:100250004D4F44452C55382C52572C4578706572BB
:1002600074204D6F64652C536F6D65204C434420A2
:10027000646973706C617920656C656D656E74730B
:100280002077696C6C206E65656420746F206265F0
:10029000206D616E75616C6C79206D616E61676552
:1002A00064207768656E2073657420746F20312038
:1002B000286465666175742069732030292C504567
:1002C00052534953543D31004144442C31332C5650
:1002D00049525455414C5F504F5745522C55382C7C
:1002E00052572C5669727475616C20506F77657225
:1002F0002C415443207669727475616C20706F775D
:1003000065722030206F7220312C50455253495372
:10031000543D31004144442C31322C4241434B4C3A
:10032000494748545F4252492C55382C52572C4269
:1003300061636B6C69676874204272696768746E88
:100340006573732C4154432070616E656C2062614B
:10035000636B6C69676874206272696768746E6544
:1003600073732066726F6D203020746F20323535C4
:100370002C504552534953543D31004144442C3193
:10038000312C444953504C41595F4252492C553805
:100390002C52572C446973706C61797320427269D6
:1003A0006768746E6573732C4C4344206469737082
:1003B0006C6179206272696768746E657373206618
:1003C000726F6D203020746F203235352C504552BD
:1003D000534953543D3100494E5055542C302C4311
:1003E0004F4E4649475552455F50414E454C5F532D
:1003F00054415455532C53595354454D2C5350414B
:10040000445F5649525455414C5F504F5745522C0A
:1004100055495F545950453D332C435553544F4D26
:100420005F545950453D504F57455200494E505525
:10043000542C323130372C495F474C4152455F468E
:1004400043555F56535F50554C4C2C5055534842C2
:100450005554544F4E2C535041445F53494D504CCA
:1004600045425554544F4E2C48494444454E3D3125
:100470002C524F555445544F3D455F474C415245D2
:100480005F4643555F56532C524F555445544F2E9B
:1004900050524553533D50554C4C2C524F5554459A
:1004A000544F2E52454C454153453D00494E505501
:1004B000542C323130362C495F474C4152455F460F
:1004C00043555F56535F505553482C50555348423F
:1004D0005554544F4E2C535041445F53494D504C4A
:1004E00045425554544F4E2C48494444454E3D31A5
:1004F0002C524F555445544F3D455F474C41524552
:100500005F4643555F56532C524F555445544F2E1A
:1005100050524553533D505553482C524F55544516
:10052000544F2E52454C454153453D00494E505580
:10053000542C323130352C495F474C4152455F468F
:1005400043555F414C545F50554C4C2C50555348CB
:10055000425554544F4E2C535041445F53494D50D3
:100560004C45425554544F4E2C48494444454E3D09
:10057000312C524F555445544F3D455F474C4152E5
:10058000455F4643555F414C5449545544452C52B0
:100590004F555445544F2E50524553533D50554C92
:1005A0004C2C524F555445544F2E52454C454153B7
:1005B000453D00494E5055542C323130342C495F62
:1005C000474C4152455F4643555F414C545F50553F
:1005D00053482C50555348425554544F4E2C535069
:1005E00041445F53494D504C45425554544F4E2C55
:1005F00048494444454E3D312C524F555445544F83
:100600003D455F474C4152455F4643555F414C5421
:1006100049545544452C524F555445544F2E505231
:100620004553533D505553482C524F555445544F04
:100630002E52454C454153453D00494E5055542C92
:10064000323130332C495F474C4152455F46435568
:100650005F4844475F50554C4C2C505553484255C9
:1006600054544F4E2C535041445F53494D504C45C8
:10067000425554544F4E2C48494444454E3D312C2C
:10068000524F555445544F3D455F474C4152455F8D
:100690004643555F4844472C524F555445544F2EBE
:1006A00050524553533D50554C4C2C524F55544588
:1006B000544F2E52454C454153453D00494E5055EF
:1006C000542C323130322C495F474C4152455F4601
:1006D00043555F4844475F505553482C5055534845
:1006E000425554544F4E2C535041445F53494D5042
:1006F0004C45425554544F4E2C48494444454E3D78
:10070000312C524F555445544F3D455F474C415253
:10071000455F4643555F4844472C524F5554455416
:100720004F2E50524553533D505553482C524F5520
:100730005445544F2E52454C454153453D00494E7A
:100740005055542C323130312C495F474C41524581
:100750005F4643555F5350445F50554C4C2C5055A9
:100760005348425554544F4E2C535041445F5349C3
:100770004D504C45425554544F4E2C4849444445E5
:100780004E3D312C524F555445544F3D455F474CDB
:100790004152455F4643555F5350442C524F555488
:1007A00045544F2E50524553533D50554C4C2C52AE
:1007B0004F555445544F2E52454C454153453D00ED
:1007C000494E5055542C323130302C495F474C4102
:1007D00052455F4643555F5350445F505553482C34
:1007E00050555348425554544F4E2C535041445F3A
:1007F00053494D504C45425554544F4E2C48494452
:1008000044454E3D312C524F555445544F3D455F64
:10081000474C4152455F4643555F5350442C524F1D
:10082000555445544F2E50524553533D50555348FF
:100830002C524F555445544F2E52454C454153452B
:100840003D00494E5055542C323030382C495F47CA
:100850004C4152455F4643555F415050522C5055D4
:100860005348425554544F4E2C535041445F5055B9
:100870005348425554544F4E2C55495F5459504596
:100880003D322C55495F5354594C453D302C4C4119
:1008900042454C3D415050522C4F524445523D31FF
:1008A0003130352C4C45443D4C5F474C4152455FFF
:1008B0004643555F4150505200494E5055542C32DA
:1008C0003030372C495F474C4152455F4643555FB6
:1008D00045585045442C50555348425554544F4E5A
:1008E0002C535041445F50555348425554544F4E39
:1008F0002C55495F545950453D322C55495F53544E
:10090000594C453D302C4C4142454C3D4558504595
:10091000442C4F524445523D313130342C4C4544E7
:100920003D4C5F474C4152455F4643555F455850EB
:10093000454400494E5055542C323030362C495FD6
:10094000474C4152455F4643555F415448522C50F5
:10095000555348425554544F4E2C535041445F50C8
:10096000555348425554544F4E2C55495F54595095
:10097000453D322C55495F5354594C453D302C4C24
:100980004142454C3D415448522C4F524445523D02
:10099000313130332C4C45443D4C5F474C4152453E
:1009A0005F4643555F4154485200494E5055542CC0
:1009B000323030352C495F474C4152455F464355F4
:1009C0005F4150322C50555348425554544F4E2C91
:1009D000535041445F50555348425554544F4E2C48
:1009E00055495F545950453D322C55495F53545930
:1009F0004C453D302C4C4142454C3D4150322C4FF2
:100A0000524445523D313130322C4C45443D4C5FCF
:100A1000474C4152455F4643555F41503200494E75
:100A20005055542C323030342C495F474C4152459C
:100A30005F4643555F4150312C5055534842555401
:100A4000544F4E2C535041445F50555348425554D7
:100A5000544F4E2C55495F545950453D322C554901
:100A60005F5354594C453D302C4C4142454C3D411F
:100A700050312C4F524445523D313130312C4C4590
:100A8000443D4C5F474C4152455F4643555F4150A2
:100A90003100494E5055542C323030332C495F4789
:100AA0004C4152455F4643555F4C4F432C50555384
:100AB00048425554544F4E2C535041445F50555367
:100AC00048425554544F4E2C55495F545950453D5A
:100AD000322C55495F5354594C453D302C4C4142C2
:100AE000454C3D4C4F432C4F524445523D313130E3
:100AF000302C4C45443D4C5F474C4152455F46438A
:100B0000555F4C4F4300494E5055542C32303032D3
:100B10002C495F474C4152455F4643555F4D455414
:100B2000524943414C542C50555348425554544F0C
:100B30004E2C535041445F50555348425554544FE6
:100B40004E2C55495F545950453D322C55495F460E
:100B50004143453D312C4C4142454C3D4D4554525D
:100B6000494320414C542C4F524445523D31303082
:100B70003500494E5055542C323030312C495F47A6
:100B80004C4152455F4643555F4844475653545283
:100B90004B4650412C50555348425554544F4E2CBF
:100BA000535041445F50555348425554544F4E2C76
:100BB00055495F545950453D322C55495F46414394
:100BC000453D312C4C4142454C3D4844475653200D
:100BD00054524B4650412C4F524445523D313030D7
:100BE0003300494E5055542C323030302C495F4739
:100BF0004C4152455F4643555F5350444D41434835
:100C00002C50555348425554544F4E2C5350414448
:100C10005F50555348425554544F4E2C55495F54DC
:100C20005950453D322C55495F464143453D312C95
:100C30004C4142454C3D535044204D4143482C4F7C
:100C4000524445523D31303030004F555450555488
:100C50002C382C4C5F474C4152455F4643555F460C
:100C600050412C4C45442C535041445F4C45442C3E
:100C700055495F464143453D312C4E4F5F4C414203
:100C8000454C3D312C4C4142454C3D4650412C4F4A
:100C9000524445523D323130004F55545055542C3A
:100CA00031382C4C5F474C4152455F4643555F56A7
:100CB000532C4C45442C535041445F4C45442C55D7
:100CC000495F464143453D312C4E4F5F4C414245C3
:100CD0004C3D312C4C4142454C3D56532C4F5244D7
:100CE00045523D323039004F55545055542C372C15
:100CF0004C5F474C4152455F4643555F414C544C15
:100D0000564C43482C4C45442C535041445F4C4571
:100D1000442C55495F464143453D312C4E4F5F4C75
:100D20004142454C3D312C4C4142454C3D4C564C8A
:100D30002043482C4F524445523D323038004F55E5
:100D4000545055542C31392C4C5F474C4152455F1F
:100D50004643555F414C542C4C45442C5350414420
:100D60005F4C45442C55495F464143453D312C4E2F
:100D70004F5F4C4142454C3D312C4C4142454C3D2E
:100D8000414C542C4F524445523D323037004F5560
:100D9000545055542C31372C4C5F474C4152455FD1
:100DA0004643555F54524B4650412C4C45442C53BE
:100DB0005041445F4C45442C55495F464143453DB5
:100DC000312C4E4F5F4C4142454C3D312C4C414201
:100DD000454C3D54524B2D4650412C4F52444552A8
:100DE0003D323036004F55545055542C31322C4C36
:100DF0005F474C4152455F4643555F484447565311
:100E00002C4C45442C535041445F4C45442C55498F
:100E10005F464143453D312C4E4F5F4C4142454C6E
:100E20003D312C4C4142454C3D4844472D56532CB6
:100E30004F524445523D323035004F555450555471
:100E40002C31332C4C5F474C4152455F4643555F34
:100E50004C41542C4C45442C535041445F4C454428
:100E60002C55495F464143453D312C4E4F5F4C4127
:100E700042454C3D312C4C4142454C3D4C41542C5B
:100E80004F524445523D323034004F555450555422
:100E90002C31362C4C5F474C4152455F4643555FE1
:100EA00054524B2C4C45442C535041445F4C4544C8
:100EB0002C55495F464143453D312C4E4F5F4C41D7
:100EC00042454C3D312C4C4142454C3D54524B2CFB
:100ED0004F524445523D323033004F5554505554D3
:100EE0002C392C4C5F474C4152455F4643555F4877
:100EF00044472C4C45442C535041445F4C45442CB2
:100F000055495F464143453D312C4E4F5F4C414270
:100F1000454C3D312C4C4142454C3D4844472C4FBB
:100F2000524445523D323032004F55545055542CA6
:100F300031342C4C5F474C4152455F4643555F4D21
:100F40004143482C4C45442C535041445F4C45444C
:100F50002C55495F464143453D312C4E4F5F4C4136
:100F600042454C3D312C4C4142454C3D4D4143485E
:100F70002C4F524445523D323031004F555450555C
:100F8000542C31352C4C5F474C4152455F464355FC
:100F90005F5350442C4C45442C535041445F4C45C6
:100FA000442C55495F464143453D312C4E4F5F4CE3
:100FB0004142454C3D312C4C4142454C3D535044FF
:100FC0002C4F524445523D323030004F555450550D
:100FD000542C31312C4C5F474C4152455F464355B0
:100FE0005F414C54444F542C4C45442C5350414485
:100FF0005F4C45442C55495F464143453D302C4E9E
:101000004F5F4C4142454C3D312C4C4142454C3D9B
:10101000414C542C4F524445523D313032004F55D3
:10102000545055542C31302C4C5F474C4152455F45
:101030004643555F484447444F542C4C45442C5339
:101040005041445F4C45442C55495F464143453D22
:10105000302C4E4F5F4C4142454C3D312C4C41426F
:10106000454C3D4844472C4F524445523D31303168
:10107000004F55545055542C362C4C5F474C415220
:10108000455F4643555F4149525350454544444F9F
:10109000542C4C45442C535041445F4C45442C55F2
:1010A000495F464143453D302C4E4F5F4C414245E0
:1010B0004C3D312C4C4142454C3D5350442C4F52F9
:1010C0004445523D313030004F55545055542C3525
:1010D0002C4C5F474C4152455F4643555F41505051
:1010E000522C4C45442C535041445F4C45442C55A4
:1010F000495F464143453D302C4E4F5F4C41424590
:101100004C3D312C48494444454E3D31004F5554E7
:101110005055542C342C4C5F474C4152455F46434C
:10112000555F45585045442C4C45442C5350414440
:101130005F4C45442C55495F464143453D302C4E5C
:101140004F5F4C4142454C3D312C48494444454E4B
:101150003D31004F55545055542C332C4C5F474C67
:101160004152455F4643555F415448522C4C4544DB
:101170002C535041445F4C45442C55495F464143F4
:10118000453D302C4E4F5F4C4142454C3D312C4843
:10119000494444454E3D31004F55545055542C322E
:1011A0002C4C5F474C4152455F4643555F4150329E
:1011B0002C4C45442C535041445F4C45442C5549DC
:1011C0005F464143453D302C4E4F5F4C4142454CBC
:1011D0003D312C48494444454E3D31004F55545013
:1011E00055542C312C4C5F474C4152455F4643557A
:1011F0005F4150312C4C45442C535041445F4C4589
:10120000442C55495F464143453D302C4E4F5F4C81
:101210004142454C3D312C48494444454E3D310006
:101220004F55545055542C302C4C5F474C4152452F
:101230005F4643555F4C4F432C4C45442C53504123
:10124000445F4C45442C55495F464143453D302C55
:101250004E4F5F4C4142454C3D312C48494444453A
:101260004E3D3100494E5055542C323230302C49CD
:101270005F474C4152455F4643555F414C545F4385
:1012800048414E47452C5357495443482C535041ED
:10129000445F5357495443482C48494444454E3DC4
:1012A000312C524F555445544F3D455F474C4152A8
:1012B000455F4643555F414C5449545544452C5273
:1012C0004F555445544F2E4F4E3D414C5449545563
:1012D00044454348414E4745313030302C524F55FC
:1012E0005445544F2E4F46463D414C544954554465
:1012F000454348414E474531303000494E505554E2
:101300002C333030332C455F474C4152455F4643C8
:10131000555F56532C454E434F4445522C53504134
:10132000445F454E434F4445525F4143432C535025
:1013300041445F5055534850554C4C2C4F524445F6
:10134000523D3130303600494E5055542C333030F8
:10135000322C455F474C4152455F4643555F414CF7
:101360005449545544452C454E434F4445522C5303
:101370005041445F454E434F4445525F4143432CE7
:10138000535041445F5055534850554C4C2C53508A
:1013900041445F5357495443482C4F524445523DB2
:1013A0003130303400494E5055542C333030312CCC
:1013B000455F474C4152455F4643555F4844472C83
:1013C000454E434F4445522C535041445F454E4394
:1013D0004F4445525F4143432C535041445F505565
:1013E000534850554C4C2C4F524445523D313030AF
:1013F0003200494E5055542C333030302C455F4725
:101400004C4152455F4643555F5350442C454E4333
:101410004F4445522C535041445F454E434F444541
:10142000525F4143432C535041445F505553485001
:10143000554C4C2C4F524445523D31303031004FC9
:1014400055545055542C313030332C445F474C4167
:1014500052455F4643555F56532C444953504C41C7
:10146000592C535041445F444953504C41592C4CE2
:10147000454E4754483D352C524F573D312C574926
:101480004454483D39302C4845494748543D33344D
:101490002C464F524547524F554E443D23464642F7
:1014A0004630302C4F524445523D342C464F4E541A
:1014B00053495A453D3336004F55545055542C31FD
:1014C0003030322C445F474C4152455F4643555FB4
:1014D000414C542C444953504C41592C5350414495
:1014E0005F444953504C41592C4C454E4754483D5C
:1014F000352C524F573D312C57494454483D3930D3
:101500002C4845494748543D33342C464F524547B3
:10151000524F554E443D234646424630302C4F52A2
:101520004445523D332C464F4E5453495A453D3362
:1015300036004F55545055542C313030312C445FC7
:10154000474C4152455F4643555F4844472C444908
:1015500053504C41592C535041445F444953504CD3
:1015600041592C4C454E4754483D332C524F573D22
:10157000312C57494454483D36302C48454947485A
:10158000543D33342C464F524547524F554E443DFF
:10159000234646424630302C4F524445523D322C71
:1015A000464F4E5453495A453D3336004F555450DB
:1015B00055542C313030302C445F474C4152455FFC
:1015C0004643555F5350442C444953504C41592C89
:1015D000535041445F444953504C41592C4C454E63
:1015E0004754483D342C524F573D312C57494454B1
:1015F000483D38302C4845494748543D33342C4603
:101600004F524547524F554E443D23464642463081
:10161000302C4F524445523D312C464F4E54534985
:101620005A453D3336004E4F5F444953504C415963
:101630005F434C4541523D31005650535550504F39
:1016400052543D310050414745535550504F52542C
:101650003D3000495347454E455249433D31004FC7
:101660005054494F4E00504F4E470053544154453B
:101670005343414E0053544154455343414E00504F
:1016800049443D4346544133323046435500564960
:10169000443D314C325000415554484F523D333651
:1016A0003062383132656631306433336535343514
:1016B0003765653762343132383435333666004346
:1016C0004654204133323020464355007B38316444
:1016D00064383563622D373530352D343265622DEF
:1016E000386137662D393262346662633964616607
:1016F000667D005350414400415454414348494E93
:10170000472043414C4C4241434B5321002C300075
:101710002C310000002100240027002A002D003079
:1017200000330001010000040107010A010000224A
:1017300000250028002B002E00310034000201009B
:1017400000050108010B01000020002300260029EC
:10175000002C002F003200000100000301060109E7
:101760000105050505070508080808020202020A26
:101770000A08080404040401010101010101010334
:1017800003030303030303040707070C0C0C0C0CEF
:101790000C0C0C0202020206060606060606060BE2
:1017A0000B0B0B0B0B0B0B01021020200808102059
:1017B00040102040800201020108040201010204DD
:1017C000081020408080402010080402018004029C
:1017D00001804020100804020108040201010204F3
:1017E0000810204080010204081020408000000AF8
:1017F0000B02090C0D0E0807030401000000000095
:1018000000000000000000000000000000000000D8
:101810000000000000000000001211100000000095
:1018200000000000000000000000000000000000B8
:1018300000000000F51D702511241FBECFEFD1E27E
:10184000DEBFCDBF00E00CBF29E0AEE6B4E001C0D2
:101850001D92A937B207E1F714E0A0E0B2E0ECEF87
:10186000F7E500E00BBF02C007900D92AE36B1075E
:10187000D9F71CE0CBE1DCE000E006C021970109CC
:10188000802FFE010E948929CA31D10780E0080714
:10189000A9F70E943B200C94EC2B0C940000AC01A7
:1018A0001092BC0690910C0980910B09FA01BF01BE
:1018B000641B750B2091BC0630813093BC069313DA
:1018C00004C0921302C01092BC063081311104C0D2
:1018D000921721F0CB0108953817D1F33196E7CF55
:1018E0000F931F93CF93DF9380910009882309F40E
:1018F00046C0D0E0C0E0813029F482E08093000946
:10190000C0ECD6E080910109882341F1209721F4B1
:10191000C0910509D09106098E01CE010E944F0C9D
:10192000892B29F42196F80180818111F5CFF801E6
:101930008081882309F1C8010E944F0CF801E80F4B
:10194000F91F8081882311F010823196F0930609E7
:10195000E09305091093040900930309809103099A
:1019600090910409892B59F081E080930109DF915E
:10197000CF911F910F91089510E000E0EBCF80E030
:10198000F6CF8150823108F05AC0E82FF0E0882766
:10199000E353F34F8F4F0C948929ED0CF10CDF0CBE
:1019A000E50CE90C1F0DF40CFA0CFE0C040D080DEF
:1019B0000C0D120D160D1F0D1A0D200D240D80910A
:1019C00080008F77809380000895809180008F7DC4
:1019D000F9CF80918000877FF5CF84B58F7784BD64
:1019E000089584B58F7DFBCF8091B0008F77809371
:1019F000B00008958091B0008F7DF9CF8091900064
:101A00008F77809390000895809190008F7DF9CF1B
:101A100080919000877FF5CF8091A0008F77809391
:101A2000A00008958091A0008F7DF9CF8091A00043
:101A3000877FF5CF809120018F77809320010895D3
:101A4000809120018F7DF9CF80912001877FF5CF94
:101A5000CF93DF93282F30E0F901E351F84E8491C2
:101A6000F901E955F84ED491F901EF59F84EC491B6
:101A7000CC23A1F081110E94C10CEC2FF0E0EE0FFD
:101A8000FF1FE95BF84EA591B491EC91ED2381E045
:101A900090E009F480E0DF91CF91089580E090E03C
:101AA000FACF1F93CF93DF93282F30E0F901E35152
:101AB000F84E8491F901E955F84ED491F901EF59A6
:101AC000F84EC491CC23A9F0162F81110E94C10CAD
:101AD000EC2FF0E0EE0FFF1FE35DF84EA591B491FF
:101AE0008FB7F894EC91111108C0D095DE23DC93E8
:101AF0008FBFDF91CF911F910895DE2BF8CFFF921A
:101B00000F931F93CF93DF93D82FF62EC0E00BE4F3
:101B100010E060E08091E3050E94510DC80101973B
:101B2000F1F76D2F661F6627661F8091E2050E9400
:101B3000510DC8010197F1F761E08091E3050E9422
:101B4000510DC8010197F1F7CF5FDD0FFC12E1CF16
:101B5000DF91CF911F910F91FF9008951F93CF9325
:101B6000DF93182FC1EED5E060E088810E94510D0F
:101B700064E080E80E947F0D68E0812F0E947F0D65
:101B800061E08881DF91CF911F910C94510DCF922C
:101B9000DF92EF92FF920F931F93CF93DF93C82FA3
:101BA0006A017B01D22F60E08091E1050E94510D16
:101BB00063E080EA0E947F0D66E08C2F880F880F1B
:101BC0000E947F0DC0E00BE410E060E08091E3052F
:101BD0000E94510DC8010197F1F76C2D6170809141
:101BE000E2050E94510DC8010197F1F761E0809173
:101BF000E3050E94510DC8010197F1F7CF5FF694FC
:101C0000E794D794C794DC13E0CF61E08091E105BD
:101C1000DF91CF911F910F91FF90EF90DF90CF90C8
:101C20000C94510DE82FF0E0EF51FA4F43A150E032
:101C300070E060E028E0880F0C94C70DE1EEF5E05D
:101C400092A99F7D40E2849F90011124922B92AB38
:101C500094A59E7F892B84A78FE00E94120E89E0B5
:101C60000C94120EE1EEF5E092A99F7E40E1849F74
:101C700090011124922B92AB93A59E7F892B83A771
:101C80008FE00E94120E88E00C94120EE1EEF5E057
:101C900092A99B7F44E0849F90011124922B92ABE8
:101CA00092A59E7F892B82A78FE00E94120E87E06B
:101CB0000C94120EE1EEF5E092A9977F48E0849F24
:101CC00090011124922B92AB91A59E7F892B81A725
:101CD0008FE00E94120E86E00C94120ECF93DF93D9
:101CE000C1EED5E08AA981608AAB8FE00E94120E16
:101CF0008AA982608AAB8FE00E94120E8FA1816058
:101D00008FA384E0DF91CF910C94120E6D3008F018
:101D10006BE0A82FB0E0AF51BA4F93969C91939788
:101D20009170E62FF0E0EE59FD4F2081922B9396B3
:101D30009C930C94120EEF92FF920F931F93CF93EC
:101D4000DF93EC01C83E83E0D80710F0C7EED3E084
:101D50000AE010E0CE01B8010E9461297B01682FE2
:101D600082E00E94860EC701B8010E946129682F97
:101D700081E00E94860ECE0164E670E00E94612937
:101D800080E0DF91CF911F910F91FF90EF900C9425
:101D9000860EEF92FF920F931F93CF93DF93EC0188
:101DA000C83E83E0D80710F0C7EED3E00AE010E0A9
:101DB000CE01B8010E9461297B01682F85E00E9455
:101DC000860EC701B8010E946129682F84E00E9435
:101DD000860ECE0164E670E00E94612983E0DF9107
:101DE000CF911F910F91FF90EF900C94860E4F9220
:101DF0005F926F927F928F929F92AF92BF92CF929B
:101E0000DF92EF92FF926B017C0180EAC81686E8B0
:101E1000D80681E0E806F10438F09FE9C92E96E87B
:101E2000D92EEE24E394F12C8AE0882E912CA12C5B
:101E3000B12CC701B601A50194010E94DC2829013B
:101E40003A018AE00E94860EC301B201A501940105
:101E50000E94DC2889E00E94860EC701B60124E6B4
:101E600030E040E050E00E94DC28CA01B901A50141
:101E700094010E94DC2888E00E94860EC701B6010A
:101E800028EE33E040E050E00E94DC28CA01B901AE
:101E9000A50194010E94DC2887E00E94860EC701FC
:101EA000B60120E137E240E050E00E94DC28622FDA
:101EB00086E0FF90EF90DF90CF90BF90AF909F9023
:101EC0008F907F906F905F904F900C94860ECF9381
:101ED000DF93EC019091110680911206209110067B
:101EE0002E7F9E7F8E7FC03137E2D307CCF5C13F76
:101EF00038EDD3073CF0D7FD07C0209799F59093B4
:101F000011060AC0C1EFD8EDD195C195D1099093C2
:101F1000110690911406892B8093120620931006C7
:101F20006CE08EE00E94860E6CE08DE00E94860ED2
:101F3000CE0164E670E00E947529CB016AE070E092
:101F40000E947529682F8CE00E94860ECE0168EEF3
:101F500073E00E9475298BE0DF91CF910C94860E7F
:101F6000CFE0D7E230911406932B90931106832B88
:101F7000D3CF6AE083E00E94860E6AE084E00E948C
:101F8000860E6AE085E00C94860E6AE086E00E9488
:101F9000860E6AE087E00E94860E6AE088E00E9472
:101FA000860E6AE089E00E94860E6AE08AE00C9460
:101FB000860EE1EEF5E081A9816081AB80A98E7F7C
:101FC00080AB87A58E7F87A76AE08BE00E94860E94
:101FD0006AE08CE00E94860E6AE08DE00E94860E28
:101FE0006AE08EE00C94860ECF93DF9390E0FC01C4
:101FF000E955F84E24918F59984EFC01849188231D
:10200000D1F090E0880F991FFC01ED5EF84EA5918C
:10201000B491FC01E35DF84EC591D491623071F446
:102020009FB7F8943C91822F809583238C93E8810D
:102030002E2B28839FBFDF91CF9108958FB7F894FF
:10204000EC912E2B2C938FBFF6CF1F93CF93DF9362
:10205000182FEB0161E00E94F40F209739F460E043
:10206000812FDF91CF911F910C94510DCF3FD1055E
:1020700011F461E0F5CFE12FF0E0E351F84EE49187
:10208000E150E23108F0B3C0F0E08827E55BFF4E95
:102090008F4F0C9489295D1065106A1074107E10A2
:1020A000F710881090109810A210AC10B610C51040
:1020B000CF10F710D910E310ED1084B5806884BDFF
:1020C000C7BDDF91CF911F91089584B5806284BD13
:1020D000C8BDF7CF80918000806880938000D09346
:1020E0008900C0938800EDCF80918000806280934A
:1020F0008000D0938B00C0938A00E3CF8091800052
:10210000886080938000D0938D00C0938C00D9CFDD
:102110008091B00080688093B000C093B300D1CFAD
:102120008091B00080628093B000C093B400C9CFAA
:1021300080919000806880939000D0939900C09324
:102140009800BFCF80919000806280939000D093E0
:102150009B00C0939A00B5CF8091900088608093D7
:102160009000D0939D00C0939C00ABCF8091A000C5
:1021700080688093A0008091A0008F7B8093A00056
:10218000D093A900C093A8009CCF8091A00080624A
:102190008093A000D093AB00C093AA0092CF80910F
:1021A000A00088608093A000D093AD00C093AC00E5
:1021B00088CF80912001806880932001D0932901ED
:1021C000C09328017ECF80912001806280932001FE
:1021D000D0932B01C0932A0174CF80912001886095
:1021E00080932001D0932D01C0932C016ACFC03879
:1021F000D1050CF03ECF33CF3FB7F89480917D04EA
:1022000090917E04A0917F04B091800426B5A89B94
:1022100005C02F3F19F00196A11DB11D3FBFBA2F78
:10222000A92F982F8827BC01CD01620F711D811D38
:10223000911D42E0660F771F881F991F4A95D1F7BD
:1022400008958F929F92AF92BF92CF92DF92EF92BA
:10225000FF924B015C010E94FC106B017C010E940B
:10226000FC106C197D098E099F09683E7340810539
:102270009105A8F321E0821A9108A108B10888EE1F
:10228000C80E83E0D81EE11CF11C81149104A10446
:10229000B10429F7FF90EF90DF90CF90BF90AF90FF
:1022A0009F908F9008952FB7F89460917904709162
:1022B0007A0480917B0490917C042FBF0895DC0107
:1022C000ED91FC910190F081E02D1994EF92FF9235
:1022D0000F931F93CF93DF932091B7062223E9F04A
:1022E0008C0160910B0980910809909109090E9465
:1022F0005F11E0900809F0900909E801FE0164917E
:10230000662359F0D701ED91FC910190F081E02D09
:10231000C70119952196892B89F7DF91CF911F91DC
:102320000F91FF90EF900895AF92BF92CF92DF92FE
:10233000EF92FF920F931F93CF93DF936C017B017A
:102340008B01040F151FEB015E01AE18BF08C0170B
:10235000D10759F06991D601ED91FC910190F0817E
:10236000E02DC6011995892B79F7C501DF91CF9131
:102370001F910F91FF90EF90DF90CF90BF90AF90A3
:102380000895FC01538D448D252F30E0842F90E07B
:10239000821B930B541710F0CF9608950197089560
:1023A000FC01918D828D981761F0A28DAE0FBF2F29
:1023B000B11D5D968C91928D9F5F9F73928F90E07F
:1023C00008958FEF9FEF0895FC01918D828D9817EE
:1023D00031F0828DE80FF11D858D90E008958FEF2B
:1023E0009FEF0895FC01918D228D892F90E0805CF4
:1023F0009F4F821B91098F73992708958AE196E078
:102400000E94F21121E0892B09F420E0822F089527
:10241000FC01A48DA80FB92FB11DA35ABF4F2C9159
:10242000848D90E001968F739927848FA689B78950
:102430002C93A089B1898C91837080648C93938D47
:10244000848D981306C00288F389E02D80818F7DEA
:1024500080830895EF92FF920F931F93CF93DF93A2
:10246000EC0181E0888F9B8D8C8D98131AC0E889D0
:10247000F989808185FF15C09FB7F894EE89FF899F
:102480006083E889F98980818370806480839FBF3D
:1024900081E090E0DF91CF911F910F91FF90EF903D
:1024A0000895F62E0B8D10E00F5F1F4F0F7311274D
:1024B000E02E8C8D8E110CC00FB607FCFACFE88988
:1024C000F989808185FFF5CFCE010E940812F1CFF6
:1024D000EB8DEC0FFD2FF11DE35AFF4FF0829FB7FC
:1024E000F8940B8FEA89FB8980818062CFCFCF93EC
:1024F000DF93EC01888D8823B9F0AA89BB89E8892C
:10250000F9898C9185FD03C0808186FD0DC00FB6D1
:1025100007FCF7CF8C9185FFF2CF808185FFEDCF4F
:10252000CE010E940812E9CFDF91CF91089580E09B
:1025300090E0892B29F00E94FE1181110E94000079
:1025400080E090E0892B49F080E090E0892B29F031
:102550000E94000081110E94000080E090E0892B21
:1025600049F080E090E0892B29F00E940000811161
:102570000E94000080E090E0892B49F080E090E02C
:10258000892B29F00E94000081110C94000008950D
:102590000F931F93CF93DF93EC01062F142F62E06C
:1025A000802F0E94F40F62E0812F0E94F40F602FB1
:1025B00070E0FB01EF59F84EE491F0E0EE0FFF1FE1
:1025C000E95BF84EA591B491B983A8836955784E1B
:1025D000FB0164916C83812F90E0FC01EF59F84E70
:1025E000E491F0E0EE0FFF1FE95BF84E2591349186
:1025F0003B832A838955984EFC0184918D831F82E9
:10260000188619861A86EBE3FFE13197F1F7EC9112
:10261000E62391E009F490E0D901EC918E2309F0D2
:1026200092609E83DF91CF911F910F910895CF9378
:10263000C0E024E040E050E0BA018C2F0E94C70DBA
:10264000CF5FC032B1F7E4E0F6E080E1DF011D9238
:102650008A95E9F7CF9108950C9417130E94700C96
:10266000882359F081E080930109809302098091C9
:102670000309909104090C940B271092020960E061
:1026800070E0CB0108950E942E130C942E13CF926C
:10269000DF92EF92FF92CF930E942E136B017C0189
:1026A0000E942E13AB01BC0186E0C816D104E104E0
:1026B000F104BCF48AE08C9DF0018D9DF00D112495
:1026C000E75EFA4F8081452B462B472B41F061E0B6
:1026D000CF91FF90EF90DF90CF900C94510D60E080
:1026E000F7CF86E0C81AD108E108F1088EE0C816D5
:1026F000D104E104F10408F0D7C0F6018827EC57B3
:10270000FC4E8F4F0C9489299213A413B613C31354
:10271000D013DC13E813F913071418142914361412
:1027200041144914809107068E7F91E0411101C048
:1027300090E0892B8093070683E0CF91FF90EF9084
:10274000DF90CF900C94120E809113068D7F21E0C4
:1027500030E0452B462B472B11F430E020E0220FD0
:10276000331F822B809313068FE0E7CF81E0452B48
:10277000462B472B09F480E0CF91FF90EF90DF903C
:10278000CF900C945A0E81E0452B462B472B09F431
:1027900080E0CF91FF90EF90DF90CF900C941E0ED1
:1027A000809109068E7F91E0411101C090E0892B54
:1027B0008093090685E0C1CF80910F068E7F91E05E
:1027C000411101C090E0892B80930F068BE0B5CFBB
:1027D000C1E0452B462B472B09F4C0E08C2F0E940B
:1027E0001E0E8C2FCF91FF90EF90DF90CF900C9426
:1027F000460E809108068E7F91E0452B462B472B95
:1028000009F490E0892B8093080684E096CF8091AC
:1028100013068F7B21E030E0452B462B472B11F42C
:1028200030E020E046E0220F331F4A95E1F799CFD0
:10283000809113068F7721E030E0452B462B472B04
:1028400011F430E020E03695322F22273795279576
:1028500088CF81E0452B462B472B09F480E0CF91B0
:10286000FF90EF90DF90CF900C94320EC1E0452B9B
:10287000462B472B09F4C0E08C2F0E94320E8C2F80
:102880007BCF81E0452B462B472B09F0ABCF80E077
:10289000A9CF809113068E7F91E0452B462B472BC5
:1028A00009F490E0892B5ECFCF91FF90EF90DF90FD
:1028B000CF900895CF92DF92EF92FF920E942E1355
:1028C0006B017C018FEFC816D104E104F10409F01B
:1028D00048F46FEF70E06C197D098DE00E942510BF
:1028E000C0925A02FF90EF90DF90CF900895CF9260
:1028F000DF92EF92FF920E942E136B017C018FEF0B
:10290000C816D104E104F10409F030F4B6018CE0FA
:102910000E942510C0925B02FF90EF90DF90CF9055
:1029200008950E942E13672B682B692B51F470E0D9
:1029300060E08CE00E9425106FEF70E08DE00C9459
:10294000251060915B02062E000C770B8CE00E9434
:10295000251080915A026FEF70E0681B710987FDA6
:102960007395ECCF0E942E1362307105810591059D
:1029700010F460936E040895FB0101900020E9F7C4
:102980003197AF01461B570BDC01ED91FC910280A2
:10299000F381E02D19948091B7068823A1F060910E
:1029A0000A0980910809909109090E945F1180919C
:1029B000BF06882341F061E872E080910809909198
:1029C00009090E94BC141092BE061092B70680E05E
:1029D00008958F929F92AF92BF92EF92FF920F93C2
:1029E0001F93CF93DF93CDB7DEB7A1970FB6F894BF
:1029F000DEBF0FBECDBF7C01FA01CB0119A2223090
:102A000008F42AE08E010F5D1F4F822E912CB12C0D
:102A1000A12CBF01A50194010E94DC28F901CA0183
:102A20006A300CF5605DD8016E938D01232B242B49
:102A3000252B79F790E080E0109721F0BD01C701C8
:102A40000E94BC14A1960FB6F894DEBF0FBECDBF96
:102A5000DF91CF911F910F91FF90EF90BF90AF90BA
:102A60009F908F900895695CDECFCF92DF92EF92B6
:102A7000FF920F931F93CF93DF9377FF1DC06A01DF
:102A80007B01EC016DE20E945F118C014427552708
:102A9000BA014C195D096E097F092AE0CE010E9436
:102AA000E914800F911FDF91CF911F910F91FF903B
:102AB000EF90DF90CF9008952AE0DF91CF911F91A2
:102AC0000F91FF90EF90DF90CF900C94E914CF938B
:102AD0009091B7069923A9F0C82F60910B098091B6
:102AE0000809909109090E945F114C2FCC0F550BDA
:102AF000660B770B8091080990910909CF910C948E
:102B00003515CF910895CF93DF932091B7062223F7
:102B1000A9F0EC0160910B098091080990910909D5
:102B20000E945F11AE01DD0F660B770B80910809E3
:102B300090910909DF91CF910C943515DF91CF91D8
:102B400008959091B706911110C091E09093B70647
:102B50009093BE06482F50E070E060E02AE080913C
:102B60000809909109090C94E9140895CF93DF9313
:102B70009091B70691110AC0EB010E94A115CE01F8
:102B80000E946611DF91CF910C94CB1480E0DF910D
:102B9000CF9108956BE272E083E00C94B615CF926A
:102BA000DF92EF92FF92CF93DF930E94700C882305
:102BB00009F48CC081E08093010980930209C091DF
:102BC0000309D091040964E872E0CE010E94B72B9A
:102BD000892B09F080C080E00E94A1156EE170E0B1
:102BE00080E090E00E94211183EF96E10E9466113F
:102BF0006EE170E080E090E00E9421118CEC96E1A3
:102C00000E9466116EE170E080E090E00E94211168
:102C10008FEB96E10E9466116EE170E080E090E03B
:102C20000E94211182E090E00E94831581E090E0F3
:102C30000E94831587E996E10E9466116EE170E0BB
:102C400080E090E00E9421118EE896E10E946611DA
:102C50006EE170E080E090E00E9421118FE796E144
:102C60000E9466116EE170E080E090E00E94211108
:102C70000E94CB1468EC70E08CE00E9425106EE19D
:102C800070E080E090E00E94211170E060E08CE054
:102C90000E9425106EE170E080E090E00E9421111A
:102CA00068EC70E08CE00E9425106EE170E080E03E
:102CB00090E00E94211170E060E08CE0DF91CF9104
:102CC000FF90EF90DF90CF900C94251010920209A6
:102CD000D0E0C0E078CF69E872E0CE010E94B72B67
:102CE000892B09F043C080E00E94A11585E796E199
:102CF0000E94661181E090E00E9483150E94CB142F
:102D0000809155020E94280D80935902811122C0A2
:102D100088E00E94A11580915602909157020E946E
:102D2000831581E090E00E9483150E94CB1480E01F
:102D30000E94A1158BE696E10E94661182E090E068
:102D40000E948315DF91CF91FF90EF90DF90CF909D
:102D50000C94CB1488E00E94A115809156029091AA
:102D600057020E94831590E080E0DDCF63E972E0B6
:102D7000CE010E94B72B892B51F50E94531160930D
:102D8000700470937104809372049093730480E0D4
:102D90000E94A11586E696E10E9466110E942E13FC
:102DA0006B017C018091B706882361F260910B0969
:102DB00080910809909109090E945F11B701A6014D
:102DC00080910809909109090E943515BBCF68E9E7
:102DD00072E0CE010E94B72B892BB9F40E942C130C
:102DE0006FEF70E08DE00E94251070E060E08CE0F5
:102DF0000E94251010925B0210925A02DF91CF912F
:102E0000FF90EF90DF90CF9008956CE972E0CE01D3
:102E10000E94B72B892B91F780E00E94A1158FE5C6
:102E200096E10E94661183E596E10E94661185E4B1
:102E300096E10E94661189E396E10E94661186E29E
:102E400096E10E9466110E94CB146CEA75E180E065
:102E50000E94B6156EE170E080E090E00E942111C2
:102E600062E375E180E00E94B6156EE170E080E0FB
:102E700090E00E94211168EB74E180E00E94B61599
:102E80006EE170E080E090E00E9421116FE374E158
:102E900080E00E94B6156EE170E080E090E00E9454
:102EA000211162EF73E180E00E94B6156EE170E0DF
:102EB00080E090E00E94211165EA73E180E00E94C9
:102EC000B6156EE170E080E090E00E94211167E4A9
:102ED00073E180E00E94B6156EE170E080E090E062
:102EE0000E9421116BEF72E180E00E94B6156EE145
:102EF00070E080E090E00E94211164E672E180E0E1
:102F00000E94B6156EE170E080E090E00E94211111
:102F100060E272E180E00E94B6156EE170E080E050
:102F200090E00E9421116CED71E180E00E94B615E5
:102F30006EE170E080E090E00E94211168E971E1AB
:102F400080E00E94B6156EE170E080E090E00E94A3
:102F5000211163E571E180E00E94B6156EE170E039
:102F600080E090E00E9421116DE071E180E00E941C
:102F7000B6156EE170E080E090E00E94211168ECEF
:102F800070E180E00E94B6156EE170E080E090E0B4
:102F90000E94211161E770E180E00E94B6156EE1A8
:102FA00070E080E090E00E9421116EE170E180E02D
:102FB0000E94B6156EE170E080E090E00E94211161
:102FC0006BEC7FE080E00E94B6156EE170E080E07F
:102FD00090E00E9421116BE77FE080E00E94B6152F
:102FE0006EE170E080E090E00E94211169E27FE0F4
:102FF00080E00E94B6156EE170E080E090E00E94F3
:1030000021116AED7EE080E00E94B6156EE170E06D
:1030100080E090E00E9421116AE87EE080E00E945A
:10302000B6156EE170E080E090E00E9421116AE345
:103030007EE080E00E94B6156EE170E080E090E0F6
:103040000E94211165EE7DE080E00E94B6156EE1E0
:1030500070E080E090E00E9421116EE87DE080E069
:103060000E94B6156EE170E080E090E00E942111B0
:103070006EE37DE080E00E94B6156EE170E080E0D6
:1030800090E00E94211167EE7CE080E00E94B6157E
:103090006EE170E080E090E00E94211169E97CE03F
:1030A00080E00E94B6156EE170E080E090E00E9442
:1030B00021116AE47CE080E00E94B6156EE170E0C8
:1030C00080E090E00E94211162EE7BE080E00E94AF
:1030D000B6156EE170E080E090E00E94211162E799
:1030E0007BE080E00E94B6156EE170E080E090E049
:1030F0000E94211166E07BE080E00E94B6156EE13F
:1031000070E080E090E00E94211162E97AE080E0C6
:103110000E94B6156EE170E080E090E00E942111FF
:103120006EE17AE080E00E94B6156EE170E080E02A
:1031300090E00E9421116AEA79E080E00E94B615D1
:103140006EE170E080E090E00E94211163E379E09D
:1031500080E00E94B6156EE170E080E090E00E9491
:10316000211169EB78E080E00E94B6156EE170E015
:1031700080E090E00E94211162E478E080E00E940B
:10318000B6156EE170E080E090E00E94211160ECE5
:1031900077E080E00E94B6156EE170E080E090E09C
:1031A0000E9421116EE377E080E00E94B6156EE187
:1031B00070E080E090E00E9421116CEB76E080E00E
:1031C0000E94B6156EE170E080E090E00E9421114F
:1031D0006AE376E080E00E94B6156EE170E080E080
:1031E00090E00E94211163EB75E080E00E94B6152B
:1031F0006EE170E080E090E00E9421116CE275E0E9
:1032000080E00E94B6156EE170E080E090E00E94E0
:1032100021116CEA74E080E00E94B6156EE170E066
:1032200080E090E00E9421116CE274E080E00E9456
:10323000B6156EE170E080E090E00E94211167ED2C
:1032400073E080E00E94B6156EE170E080E090E0EF
:103250000E9421116BE773E081E00E94B6156EE1D8
:1032600070E080E090E00E94211164E173E081E071
:103270000E94B6156EE170E080E090E00E9421119E
:1032800068EC72E081E00E94B6156EE170E080E0CB
:1032900090E00E94211162E472E081E00E94B61584
:1032A0006EE170E080E090E00E9421116BE372E03B
:1032B00080E0DF91CF91FF90EF90DF90CF900C9462
:1032C000B615CF93DF930E94700C882339F181E00B
:1032D0008093010980930209C0910309D0910409E8
:1032E00063EA72E0CE010E94B72B892BE1F481E002
:1032F00080936F048BE00E94A11580915A020E9476
:1033000067150E94CB148CE00E94A11580915B028E
:103310000E946715DF91CF910C94CB141092020993
:10332000D0E0C0E0DDCF69EA72E0CE010E94B72BA9
:10333000892B39F06EEA72E0CE010E94B72B892BFF
:10334000A9F410926F040E942C136FEF70E08DE0CF
:103350000E94251070E060E08CE00E942510109221
:103360005B0210925A02DF91CF91089568E972E0F2
:10337000CE010E94B72B892BB1F7E3CF0F931F9398
:10338000CF93DF93EC0188819981009759F02A81CE
:103390003B812617370730F081E0DF91CF911F91F5
:1033A0000F9108958B016F5F7F4F0E94C22A009793
:1033B00059F0998388831B830A832C813D81232BB9
:1033C00059F7FC011082E8CF80E0E7CFEF92FF923F
:1033D0000F931F93CF93DF93EC017B01CB010E94EE
:1033E00042270097A9F00C811D81080F191FB80111
:1033F000CE010E94BE19882361F0288139818C8119
:103400009D81B701820F931F0E943B271D830C8370
:1034100081E0DF91CF911F910F91FF90EF90089580
:10342000CF93DF93EC0188819981009711F00E947E
:10343000392A198218821D821C821B821A82DF910E
:10344000CF910895EF92FF920F931F93CF93DF9345
:10345000EC017B018A01BA010E94BE1981110BC0E7
:10346000CE010E94101ACE01DF91CF911F910F91D2
:10347000FF90EF9008951D830C83B7018881998197
:103480000E94C02BF0CFEF92FF920F931F93CF9328
:10349000DF93CDB7DEB762970FB6F894DEBF0FBEED
:1034A000CDBF8C01CB01F8011182108213821282F0
:1034B000158214824AE09E012F5F3F4F7901B901C6
:1034C0000E946327F70101900020E9F73197AF01CF
:1034D0004E195F09B701C8010E94221A62960FB601
:1034E000F894DEBF0FBECDBFDF91CF911F910F913A
:1034F000FF90EF900895FB01DC0111961C921E9243
:1035000013961C921E92129715961C921E92149757
:103510008617970749F0608171816115710521F067
:10352000448155810C94221A0895FC011182108265
:103530001382128215821482FB0101900020E9F7A8
:103540003197AF01461B570B0C94221AFC01808166
:103550009181009711F00C94392A08950F931F93CD
:10356000CF93DF9300D000D0CDB7DEB78C0188E0D9
:103570000E94A115B801CE0101960E947B1A80918C
:10358000B7068823B9F060910B09809108099091E2
:1035900009090E945F1180910809909109094D81E4
:1035A0005E8169817A81DC01ED91FC910280F38179
:1035B000E02D1995CE0101960E94A61A0E94CB1407
:1035C00026960FB6F894DEBF0FBECDBFDF91CF9128
:1035D0001F910F9108958F929F92AF92BF92CF92B9
:1035E000DF92EF92FF920F931F93CF93DF930E948E
:1035F0002E134B015C010E942E130E942E136B01AF
:103600007C010E94700C882339F181E080930109CC
:1036100080930209C0910309D091040929EE821612
:1036200023E09206A104B10409F4FDC0D4F4A8EE8D
:103630008A16A3E09A06A104B10409F44CC0DF91F4
:10364000CF911F910F91FF90EF90DF90CF90BF909F
:10365000AF909F908F90089510920209D0E0C0E043
:10366000DDCFBAEE8B16B3E09B06A104B10409F4DA
:103670000BC12BEE821623E09206A104B104F9F6E9
:1036800022E0C216D104E104F10409F0B9C069EBEB
:1036900072E0CE010E94B72B892B79F06FEB72E0BC
:1036A000CE010E94B72B892B41F06BEB72E0CE016B
:1036B0000E94B72B892B09F02AC1DF91CF911F916E
:1036C0000F91FF90EF90DF90CF90BF90AF909F90C1
:1036D0008F900C94D90F82E0C816D104E104F10454
:1036E00009F08EC060EC72E0CE010E94B72B892BEE
:1036F00071F06AEB72E0CE010E94B72B892B39F092
:103700006BEB72E0CE010E94B72B892B01F56AE0CA
:1037100080E00E94860E6AE081E00E94860E6AE0E8
:1037200082E00E94860E809105068E7F80930506BA
:103730008FE0DF91CF911F910F91FF90EF90DF907D
:10374000CF90BF90AF909F908F900C94120E80916D
:103750006E048130B1F470E060E0CE010E948F25EC
:103760000E941829CB01DF91CF911F910F91FF90FB
:10377000EF90DF90CF90BF90AF909F908F900C9480
:103780009B0E6EE270E0CE010E94C72B70E060E0FD
:103790000097E9F001960E948F256B017C018091D2
:1037A00013068F77809313068FE00E94120E80918C
:1037B00013068064809313068FE00E94120E80919E
:1037C0000506816080930506C701B601C9CFCE0109
:1037D0000E948F256B017C01809113068068809385
:1037E00013068FE00E94120E809113068F7B809348
:1037F00013068FE00E94120E809105068E7FE2CFA5
:10380000CD28CE28CF2809F01ACFDF91CF911F9174
:103810000F91FF90EF90DF90CF90BF90AF909F906F
:103820008F900C942C13A2E0CA16D104E104F10489
:1038300039F76BEB72E0CE010E94B72B892B71F444
:10384000DF91CF911F910F91FF90EF90DF90CF907C
:10385000BF90AF909F908F900C94B90F70E060E094
:10386000CE010E948F250E941829CB01DF91CF91B4
:103870001F910F91FF90EF90DF90CF90BF90AF908E
:103880009F908F900C94C90EB2E0CB16D104E10446
:10389000F10409F0B5CF69EB72E0CE010E94B72BBD
:1038A000892B71F06FEB72E0CE010E94B72B892B50
:1038B00039F06BEB72E0CE010E94B72B892B71F4CB
:1038C000DF91CF911F910F91FF90EF90DF90CF90FC
:1038D000BF90AF909F908F900C94C50F70E060E008
:1038E000CE010E948F250E941829072E000C880BFC
:1038F000990BDF91CF911F910F91FF90EF90DF9087
:10390000CF90BF90AF909F908F900C94F70E8091C6
:103910006E0470E060E08130A1F4CE010E948F253A
:103920000E941829CB01DF91CF911F910F91FF9039
:10393000EF90DF90CF90BF90AF909F908F900C94BE
:10394000670FCE010E948F256B017C0120E030E0E3
:10395000A9010E94A527882309F44AC081E0809329
:10396000140620E030E040E251ECC701B6010E94AD
:103970004E2918160CF06DC020E030E040E251E412
:10398000C701B6010E94A52787FF63C06EE270E001
:10399000CE010E94AC2B892B09F45BC08EB1882329
:1039A00041F06EE270E0CE010E94D22B009709F048
:1039B00053C070E060E0CE010E948F2520E030E02F
:1039C00040E251E40E940B280E941829862F209182
:1039D000110690911206409114063091100664363B
:1039E000B4F56D396CF067FD0CC02E7F242B0BC035
:1039F00010921406B6CF81918D938823D1F2FBCF1C
:103A00008DE981952E7F209311069E7F942B9093B4
:103A100012063160309310066AE00E945329C82FC5
:103A2000692F8CE00E94860E6C2F8BE00E94860E20
:103A30008091110681708093110680911206817029
:103A4000809312068DE00E94120E8EE072CE83E605
:103A5000CCCFC701B60164CFEEE2F0E0DF010D90FC
:103A60000020E9F77D01BFE2EB1AF1086C018C013F
:103A70000E0D1F1D6EE270E0C8010E94D22BF801EE
:103A8000D601009709F4B7CF6D01E817F90778F769
:103A900021912D93F9CF1F920F920FB60F921124FF
:103AA0002F933F938F939F93AF93BF93809179040C
:103AB00090917A04A0917B04B0917C0430917804B9
:103AC00023E0230F2D3758F50196A11DB11D20933A
:103AD00078048093790490937A04A0937B04B09344
:103AE0007C0480917D0490917E04A0917F04B0912C
:103AF00080040196A11DB11D80937D0490937E04E6
:103B0000A0937F04B0938004BF91AF919F918F9158
:103B10003F912F910F900FBE0F901F90189526E8A0
:103B2000230F0296A11DB11DD2CF1F920F920FB687
:103B30000F9211240BB60F922F933F934F935F93E5
:103B40006F937F938F939F93AF93BF93EF93FF9365
:103B50008AE196E00E940812FF91EF91BF91AF9128
:103B60009F918F917F916F915F914F913F912F9195
:103B70000F900BBE0F900FBE0F901F9018951F92C5
:103B80000F920FB60F9211240BB60F922F938F93B3
:103B90009F93EF93FF93E0912A06F0912B0680818B
:103BA000E0913006F091310682FD1DC09081809138
:103BB00033068F5F8F7320913406821741F0E091B6
:103BC0003306F0E0E65EF94F958F80933306FF9160
:103BD000EF919F918F912F910F900BBE0F900FBE81
:103BE0000F901F9018958081F2CFCF92DF92EF92C5
:103BF000FF92CF93DF9310921D0610921C0688EE61
:103C000093E0A0E0B0E080931E0690931F06A0937F
:103C10002006B093210683E792E090931B068093E1
:103C20001A0685EC90E0909327068093260684EC94
:103C300090E0909329068093280680EC90E0909382
:103C40002B0680932A0681EC90E090932D068093BA
:103C50002C0682EC90E090932F0680932E0686EC43
:103C600090E09093310680933006109233061092C4
:103C70003406109235061092360610920E091092F4
:103C80000D098AE196E09093090980930809109242
:103C9000BF068CE280930B098BE380930A098FE2C5
:103CA00080930C0980E48093BA068FE38093BB066F
:103CB0001092B90610920409109203091092060995
:103CC0001092050981E080930109EFE0F9E083E7B4
:103CD00099E0119211928E179F07D9F71092BE06A4
:103CE0008CE18093E1058AE18093E2058BE180938A
:103CF000E30581E08093140686E090E090931A0536
:103D00008093190565EC72E08BE195E00E94951AAD
:103D1000CFEFDFEFD0932205C093210582E090E042
:103D2000909324058093230565ED72E085E295E08C
:103D30000E94951AD0932C05C0932B0584E090E047
:103D400090932E0580932D0565EE72E08FE295E04D
:103D50000E94951AD0933605C093350588E090E00F
:103D6000909338058093370565EF72E089E395E01D
:103D70000E94951AD0934005C0933F0589E090E0DA
:103D8000909342058093410566E073E083E495E0FB
:103D90000E94951AD0934A05C09349058AE090E0A5
:103DA00090934C0580934B0568E173E08DE495E0BA
:103DB0000E94951AD0935405C0935305D09356058D
:103DC000C093550569E273E087E595E00E94951A76
:103DD000D0935E05C0935D05D0936005C0935F05E9
:103DE00061E473E081E695E00E94951AD09368053E
:103DF000C0936705D0936A05C093690566E573E0D3
:103E00008BE695E00E94951AD0937205C0937105D8
:103E1000D0937405C093730566E673E085E795E07B
:103E20000E94951AD0937C05C0937B05D0937E05A4
:103E3000C0937D0566E773E08FE795E00E94951AD1
:103E4000D0938605C0938505D0938805C0938705D8
:103E500069E873E089E895E00E94951AD09390058F
:103E6000C0938F05D0939205C09391056CE973E0E0
:103E700083E995E00E94951AD0939A05C09399051D
:103E8000D0939C05C0939B056EEA73E08DE995E0A5
:103E90000E94951AD093A405C093A305D093A605BC
:103EA000C093A5056EEB73E087EA95E00E94951A32
:103EB000D093AE05C093AD05D093B005C093AF05C8
:103EC0006FEC73E081EB95E00E94951AD093B805F2
:103ED000C093B705D093BA05C093B9056FED73E0F1
:103EE0008BEB95E00E94951AD093C205C093C10553
:103EF000D093C405C093C3056FEE73E085EC95E0E5
:103F00000E94951AD093CC05C093CB05D093CE05D3
:103F1000C093CD0562E074E08FEC95E00E94951AA5
:103F2000D093D605C093D505D093D805C093D705B7
:103F300061E174E089ED95E00E94951AD093E00567
:103F4000C093DF0546E167E18EE095E00E94C8126C
:103F500042E163E183E095E00E94C81244E265E239
:103F600088EF94E00E94C81246E267E28DEE94E08A
:103F70000E94C8128BE0EEE0F5E0A1E8B4E0019009
:103F80000D928A95E1F761E274E08CE894E00E947A
:103F9000951A89E1C82E8CEFD82EEE24EA94FE2CD7
:103FA000C0929204D0929304E0929404F09295040B
:103FB00061E374E086E994E00E94951A8BE0E3E007
:103FC000F5E0ACE9B4E001900D928A95E1F76EE37B
:103FD00074E087EA94E00E94951AC092AD04D092F2
:103FE000AE04E092AF04F092B00461E374E081EBC0
:103FF00094E00E94951A8BE0E8EFF4E0A7EBB4E0C0
:1040000001900D928A95E1F76EE474E082EC94E001
:104010000E94951AC092C804D092C904E092CA04C2
:10402000F092CB0461E374E08CEC94E00E94951A6A
:104030008BE0EDEEF4E0A2EDB4E001900D928A95F4
:10404000E1F76EE574E08DED94E00E94951AC09260
:10405000E304D092E404E092E504F092E60461E324
:1040600074E087EE94E0DF91CF91FF90EF90DF90C6
:10407000CF900C94951ACF93DF93CDB7DEB76297AC
:104080000FB6F894DEBF0FBECDBF789484B58260C2
:1040900084BD84B5816084BD85B5826085BD85B5EC
:1040A000816085BD80916E00816080936E0010926A
:1040B00081008091810082608093810080918100E5
:1040C0008160809381008091800081608093800076
:1040D0008091B10084608093B1008091B0008160D4
:1040E0008093B000809191008260809391008091D4
:1040F0009100816080939100809190008160809315
:1041000090008091A10082608093A1008091A10025
:1041100081608093A1008091A00081608093A000C5
:104120008091210182608093210180912101816031
:1041300080932101809120018160809320018091F2
:104140007A00846080937A0080917A008260809304
:104150007A0080917A00816080937A0080917A0061
:10416000806880937A001092C10061E08CE00E9428
:10417000F40F60915B02062E000C770B8CE00E941E
:10418000251061E08DE00E94F40F80915A026FEFDC
:1041900070E0681B710987FD73958DE00E94251002
:1041A0008CE1809316068BE1809317068AE1809359
:1041B000180681E08093150661E08091E2050E9477
:1041C000F40F61E08091E3050E94F40F61E08091BB
:1041D000E1050E94F40F61E08091E1050E94510D1C
:1041E00061E08091E3050E94510D61E08091E2055C
:1041F0000E94510DE4EEF5E084E096E011928E17F6
:104200009F07E1F780E30E94AE0D82E50E94AE0DAC
:1042100082E00E94AE0D86E00E94AE0D10E024E028
:1042200040E050E0BA01812F0E94C70D1F5F10329D
:10423000B1F7E4E0F6E080E1DF011D928A95E9F74D
:104240000E946E0E0E946E0E81E090E00E949B0E16
:104250000E94B90F0E94C50F0E94D90F0E945311EE
:10426000609370047093710480937204909373044C
:10427000609374047093750480937604909377042C
:104280000AE512E0A0E0EA2EA2E0FA2E62E0F701D1
:1042900080810E94F40FF5E0EF0EF11C0E151F0552
:1042A000A9F709E115E0D8018D919C9197FD13C004
:1042B00061E00E94F40F61E0F80180810E94510DDD
:1042C00064E670E080E090E00E94211160E0D80197
:1042D0008C910E94510D065F1F4FB5E005351B07FD
:1042E00011F70E941713E0912A06F0912B0682E045
:1042F0008083E0912606F09127061082E09128063F
:10430000F091290680E1808310923206E0912E061A
:10431000F0912F0686E08083E0912C06F0912D0627
:10432000808180618083E0912C06F0912D06808150
:1043300088608083E0912C06F0912D068081806852
:104340008083E0912C06F0912D0680818F7D808303
:1043500068EF76E183E00E94B6158FEC95E19093CB
:10436000100980930F0981E699E1909314098093D5
:1043700013098AEC95E1909316098093150983E45B
:1043800093E190931A098093190987E493E190933C
:104390001C0980931B098BEE9AE190931E09809370
:1043A0001D098AE594E1909326098093250987E702
:1043B00094E1909328098093270981E994E19093EF
:1043C0002A098093290982EB94E190932C09809328
:1043D0002B0966246A94712CE1E8AE2EE4E0BE2E2F
:1043E000D12CC12CD501ED91FD918081ED91FD91F4
:1043F0009081ED91FD916C9163708E2309F0646062
:104400009F2309F06860EFE0F2E2E60FF11D659589
:1044100065956D936D917D918D919D91099423C0CA
:104420001AC012C016C010C01EC009C014C013C0EC
:1044300006C019C009C00DC007C00DC014C062502D
:104440007040804090400BC0615070408040904070
:1044500006C06E5F01C06F5F7F4F8F4F9F4F9E936F
:104460008E937E936E93F50187819085A185B285A9
:1044700072E0B595A795979587957A95D1F741897B
:10448000528963897489481759076A077B070CF0BA
:10449000EBC0818B928BA38BB48B80916F048823AC
:1044A00071F088E00E94A115C6018854944F0E94C3
:1044B000831581E090E00E9483150E94CB14F2E006
:1044C000CF16D10409F0ADC08EE10E94280D892BD2
:1044D00009F0FFC260915B02685F60935B02062E89
:1044E000000C770B8CE00E94251080916F048823CC
:1044F00009F4EFC28CE00E94A11580915B020E943A
:1045000067150E94CB148FEFC81AD80AABE1AA0E28
:10451000B11CB4E0CB16D10409F064CF0E94531152
:104520008090740490907504A0907604B090770405
:10453000681979098A099B09653671058105910514
:1045400008F44EC180916F04882309F456C060E0DE
:10455000C62E62E0D62EF60180810E94280D5C01F5
:10456000D60114968C911497082E000C990BA8165E
:10457000B906E1F1A114B10409F0C1C011966D9121
:104580007C91CE0101960E94431ABE016F5F7F4F5E
:10459000CE0107960E947B1A60E177E1CE01079673
:1045A0000E94E619811104C0CE0107960E94101ADC
:1045B000BE01695F7F4FCE010D960E947B1A8091EC
:1045C000B706811104C0CE010D960E94AE1ACE012D
:1045D0000D960E94A61ACE0107960E94A61ACE0139
:1045E00001960E94A61AD6011496AC92B5E0CB0EA5
:1045F000D11CCE14DF0409F0AECF8EE10E94280D4D
:10460000892B09F092C088E20E94280D892B09F0BD
:104610008CC080915B02882309F4BEC010925B02BB
:10462000BEC023E0C216D10409F06DCF8EE10E9416
:10463000280D892B09F072CF80915A02885F8093F0
:104640005A02B301681B710987FD73958DE00E94C2
:10465000251080916F04882309F460CF8BE00E94BD
:10466000A11580915A024BCF84179507A607B7076B
:104670000CF049CF818B928BA38BB48B80916F040C
:10468000882371F088E00E94A115C6018854944FD8
:104690000E9483158FEF9FEF0E9483150E94CB1419
:1046A000F2E0CF16D10499F48EE10E94280D892BF7
:1046B00009F00FC280915B02885087FD05C080938E
:1046C0005B0260915B020BCF10925B02FACF23E09A
:1046D000C216D10409F017CF8EE10E94280D892B54
:1046E00009F01CCF80915A02885087FD05C0809345
:1046F0005A0280915A02A5CF10925A02FACFB1E025
:10470000AB16B10409F06FCFF60161817281CE0161
:1047100001960E94431ABE016F5F7F4FCE0107963C
:104720000E947B1A6DE077E139CF8EE10E94280D5F
:10473000892B09F433C18EE10E94280D892B09F4DD
:104740004DC18EE10E94280D892B09F03FC08AE2FD
:104750000E94280D892BD1F555E0C52ED12C60E89B
:1047600070E08CE00E94251064E670E080E090E04C
:104770000E94211170E060E08CE00E94251064E648
:1047800070E080E090E00E942111F1E0CF1AD108A2
:1047900031F70C9400001AC080E480935B026091B2
:1047A0005B02062E000C770B8CE00E9425108CE03B
:1047B0000E94A11580915B020E9467150E94CB1494
:1047C00064EF71E080E090E00E9421110E9453119B
:1047D00060937404709375048093760490937704C7
:1047E0000E9453118090700490907104A090720404
:1047F000B0907304681979098A099B09613E73496D
:104800008440910540F10E942C1349E1C42E45E0FB
:10481000D42ED6018D919C9197FD03C060E00E943B
:10482000510DBAE0CB0ED11C0C151D0591F770E0AF
:1048300060E08CE00E9425106FEF70E08DE00E9438
:1048400025100E945311609370047093710480933B
:104850007204909373048091BE06811130C18091DF
:10486000080990910909DC01ED91FC910084F18522
:10487000E02D1995892B09F422C1809108099091A6
:104880000909DC01ED91FC910084F185E02D199579
:10489000812C32E0932E8115924064F480910809B6
:1048A00090910909DC01ED91FC910084F185E02DE6
:1048B00019954C01C0900809D090090920E0422EBA
:1048C00027E0522E1201B12CA12C8A149B0409F06E
:1048D000B6C0D12CC12C8C149D0409F4BCCFD201DC
:1048E0009D912D011092000930910C092091BD0677
:1048F0009093BD06931304C0921302C01092BD069C
:104900008091B906E82FF0E040910A09E954F94F87
:104910009413BBC0321709F4B8C01186882329F05C
:10492000B1E0B09300091092BD061092B906109242
:104930000409109203091092060910920509E1E09A
:10494000E0930109B0900009F1E0BF12B4C00E94E9
:10495000700C882309F4A3C0B0920109B092020937
:1049600080910309909104090E94ED268093B80676
:10497000823308F099C020910209222309F494C0DF
:10498000FC01FF27EE0FFF1FE15FF64F0190F08162
:10499000E02D309709F488C019958DC083E30E94FB
:1049A000280D892B09F0C7CE80915A02811113C0BE
:1049B000E0E8E0935A0280915A02B301681B710942
:1049C00087FD73958DE00E9425108BE00E94A11554
:1049D00080915A02F1CE10925A02EDCF8FE00E94E0
:1049E000280D892B09F0ADCE88E793E00E949B0E3D
:1049F00088E793E00E94C90E68E37BE581E090E0E0
:104A00000E94F70E88EB92E20E94670F68EE73E057
:104A100080E090E00E94211181E090E00E949B0ED6
:104A20000E94B90F0E94C50F0E94D90F68EE73E073
:104A300080E090E00E9421110E942C13C7CE0E94BA
:104A40005311F6016087718782879387D601ED91B4
:104A5000FC910284F385E02DC601199597FF32C0C1
:104A60000E945311F6012085318542855385621BD2
:104A7000730B840B950B2481358146815781621716
:104A800073078407950710F324CF91878F5F809376
:104A9000B9069091BB06891708F047CF53CF109203
:104AA000020990E080E062CFE0910D09F0910E09DB
:104AB000309709F071CF2FEFC21AD20A0CCF0E94A3
:104AC00097128ACCD1018D931D01BFEFAB1ABB0A9F
:104AD000FCCE83E0C82ED12CEBE1AE0EB11C82CC13
:104AE000CF93DF93CDEED4E06B97CE0145960E9435
:104AF000A61ACE010B960E94A61A84E0C138D807E8
:104B000099F7C1EED5E02A97CE0102960E94A61A27
:104B100085E0C931D807B9F7DF91CF9108958F9219
:104B20009F92AF92BF92CF92DF92EF92FF920F933C
:104B30001F93CF93DF935C017B016115710519F021
:104B4000DB018D939C9385010F5F1F4FF501D08191
:104B50008D2F90E00E9432276C01892BB9F5DD3250
:104B6000B9F50F5F1F4FD5011196DC91C1E05801D7
:104B7000F1E0AF1AB10843E050E068EF71E0C50121
:104B80000E944B27892B69F5680182E0C80ED11C71
:104B900045E050E063EF71E0C6010E944B27892B8E
:104BA00021F4680197E0C90ED11CE114F10419F059
:104BB000D701CD92DC9260E070E080E89FEFC111F8
:104BC000FFC060E070E080E89FE7FAC05801BBCF0B
:104BD000DB3229F485010E5F1F4FF501D181C0E062
:104BE000C6CF43E050E060EF71E0C5010E944B2763
:104BF000892BE9F0F80110E000E020E030E0A901A5
:104C00005F01B0ED8B2E8D0E89E08815C8F19C2ECA
:104C1000689491F88C2F8870C2FF16C0811102C071
:104C20000F5F1F4F3196D501DC91C92DE9CFE114FB
:104C3000F10429F00E5F1F4FF7011183008360E03C
:104C400070E080EC9FE7BCC0882311F0015011098F
:104C5000A5E0B0E00E94FE289B01AC01220F331FAB
:104C6000441F551F280D311D411D511D283999E93B
:104C70003907490799E15907A8F2C6609C2ED2CF9F
:104C8000AEEF8A1206C0C3FD3CC09C2E689493F818
:104C9000C9CFDF7DD534A9F580818D3239F4C0616B
:104CA000DF011296818162E070E006C0DF018B3285
:104CB000C1F3119661E070E080535D01A61AB70A56
:104CC0008A30F8F4E0E8CE16ECE0DE065CF4B601DB
:104CD000660F771F660F771FC60ED71ECC0CDD1C24
:104CE000C80ED11C5D01FFEFAF1ABF0A8C91805333
:104CF0008A30A8F1C4FF03C0D194C194D1080C0D2F
:104D00001D1DC1FF09C0E114F10431F081E0A81AB2
:104D1000B108D701AD92BC92CA01B9010E94AA277D
:104D2000C370C33009F490584B015C0120E030E0BF
:104D3000A9010E94A527882309F440C0C7E2D2E058
:104D400017FF05C0119501951109CFE0D2E06E0162
:104D5000B8E1CB1AD10880E2E82EF12C0FC0D501C2
:104D6000B1CFFE0125913591459154910E191F093E
:104D7000C501B4010E940B284B015C01D501C4019F
:104D80000E151F0574F72497F594E794CC16DD06ED
:104D9000A9F78A2F880F8B2F881F8F3F49F020E0BB
:104DA00030E0A901C501B4010E94A527811106C008
:104DB00082E290E09093740980937309C501B40175
:104DC000DF91CF911F910F91FF90EF90DF90CF90E7
:104DD000BF90AF909F908F900895FC0188279927EE
:104DE000E89421912032E9F3293010F02E30C8F3F5
:104DF0002B3241F02D3239F4689404C00E9483278D
:104E0000820F911D219120532A30C0F31EF49095FA
:104E100081959F4F08951F93FC0199278827BC0116
:104E2000E89411911032E9F3193010F01E30C8F3F4
:104E30001B3251F01D3249F4689406C00E946E275F
:104E4000610F711D811D911D119110531A30B0F326
:104E50003EF490958095709561957F4F8F4F9F4F51
:104E60001F91089591110C947828803219F089507F
:104E70008550C8F70895FB01DC0105900D920020D4
:104E8000E1F70895FC0105900020E9F780959095E1
:104E90008E0F9F1F0895FB01DC014150504088F0A8
:104EA0008D9181341CF08B350CF4805E65916134FA
:104EB0001CF06B350CF4605E861B611171F3990B6D
:104EC0000895881BFCCFBB274A3031F4992322F484
:104ED000BDE2909581959F4F0C948C27592F482FB8
:104EE000372F262F660F771F881F991F660F771F92
:104EF000881F991F620F731F841F951F660F771FEE
:104F0000881F991F08957AE0979F902D879F802D85
:104F1000910D11240895BB27FB015527AA27880F5F
:104F2000991FAA1FA41710F0A41B83955051B9F71D
:104F3000A05DAA3308F0A95DA193009779F7B1119C
:104F4000B1931192CB010C947B280E94E72708F4BF
:104F500081E00895E89409C097FB3EF49095809510
:104F6000709561957F4F8F4F9F4F9923A9F0F92F2F
:104F700096E9BB279395F695879577956795B795AD
:104F8000F111F8CFFAF4BB0F11F460FF1BC06F5F93
:104F90007F4F8F4F9F4F16C0882311F096E911C0A5
:104FA000772321F09EE8872F762F05C0662371F0C6
:104FB00096E8862F70E060E02AF09A95660F771FDA
:104FC000881FDAF7880F9695879597F90895990FB6
:104FD0000008550FAA0BE0E8FEEF16161706E807C3
:104FE000F907C0F012161306E407F50798F0621BE4
:104FF000730B840B950B39F40A2661F0232B242BB9
:10500000252B21F408950A2609F4A140A6958FEFD7
:10501000811D811D08950E941E280C94A2280E94C3
:10502000942838F00E949B2820F0952311F00C94CE
:105030008B280C94912811240C94D6280E94B32814
:1050400070F3959FC1F3950F50E0551F629FF001DB
:10505000729FBB27F00DB11D639FAA27F00DB11DF4
:10506000AA1F649F6627B00DA11D661F829F22277D
:10507000B00DA11D621F739FB00DA11D621F839F04
:10508000A00D611D221F749F3327A00D611D231FDA
:10509000849F600D211D822F762F6A2F11249F5728
:1050A00050409AF0F1F088234AF0EE0FFF1FBB1F2B
:1050B000661F771F881F91505040A9F79E3F5105EA
:1050C00080F00C948B280C94D6285F3FE4F3983E34
:1050D000D4F3869577956795B795F795E7959F5F94
:1050E000C1F7FE2B880F911D9695879597F9089526
:1050F000992788270895DC01FC01672F7191772398
:10510000E1F7329704C07C916D9370836291AE1782
:10511000BF07C8F3089597F99F6780E870E060E0E3
:1051200008959FEF80EC089500240A941616170640
:1051300018060906089500240A9412161306140688
:1051400005060895092E0394000C11F4882352F0EB
:10515000BB0F40F4BF2B11F460FF04C06F5F7F4FA3
:105160008F4F9F4F089557FD9058440F551F59F08A
:105170005F3F71F04795880F97FB991F61F09F3F44
:1051800079F087950895121613061406551FF2CF6D
:105190004695F1DF08C0161617061806991FF1CFBD
:1051A00086957105610508940895E894BB276627E4
:1051B0007727CB0197F90895A1E21A2EAA1BBB1BF2
:1051C000FD010DC0AA1FBB1FEE1FFF1FA217B307D3
:1051D000E407F50720F0A21BB30BE40BF50B661FE9
:1051E000771F881F991F1A9469F7609570958095AD
:1051F00090959B01AC01BD01CF0108950E94092942
:10520000A59F900DB49F900DA49F800D911D11241A
:105210000895A29FB001B39FC001A39F700D811D8F
:105220001124911DB29F700D811D1124911D0895AF
:105230000E941F296894B1110C94D62808950E94E9
:10524000BB2888F09F5798F0B92F9927B751B0F035
:10525000E1F0660F771F881F991F1AF0BA95C9F7FA
:1052600014C0B13091F00E94D528B1E008950C949B
:10527000D528672F782F8827B85F39F0B93FCCF34E
:10528000869577956795B395D9F73EF49095809577
:10529000709561957F4F8F4F9F4F08950E94E7272C
:1052A00008F48FEF089587FB082E062687FD819569
:1052B00067FD61950E9491290EF4919507FC8195F7
:1052C0000895AA1BBB1B51E107C0AA1FBB1FA6174D
:1052D000B70710F0A61BB70B881F991F5A95A9F79F
:1052E00080959095BC01CD01089597FB072E16F48B
:1052F000009407D077FD09D00E94612907FC05D0F2
:105300003EF4909581959F4F0895709561957F4FDC
:105310000895EE0FFF1F881F8BBF0790F691E02DB9
:105320001994991B79E004C0991F961708F0961BF1
:10533000881F7A95C9F7809508950F931F93CF938F
:10534000DF938230910510F482E090E0E0917709DC
:10535000F091780930E020E0B0E0A0E0309799F4D7
:105360002115310509F44AC0281B390B24303105B9
:10537000D8F58A819B816115710589F1FB019383C1
:105380008283FE0111C0408151810281138148173F
:105390005907E0F04817590799F4109761F01296F1
:1053A0000C93129713961C933296CF01DF91CF91F5
:1053B0001F910F9108950093770910937809F4CF06
:1053C0002115310551F04217530738F0A901DB01CF
:1053D0009A01BD01DF01F801C1CFEF01F9CF909330
:1053E000780980937709CDCFFE01E20FF31F8193F7
:1053F00091932250310939832883D7CF20917509A1
:1054000030917609232B41F420915E0230915F02A6
:10541000309376092093750920915C0230915D02EA
:105420002115310541F42DB73EB7409160025091EE
:105430006102241B350BE0917509F0917609E217A2
:10544000F307A0F42E1B3F0B2817390778F0AC01A7
:105450004E5F5F4F2417350748F04E0F5F1F509384
:10546000760940937509819391939FCFF0E0E0E036
:105470009CCFCF93DF930097E9F0FC013297138222
:105480001282A0917709B0917809ED0130E020E017
:105490001097A1F420813181820F931F209175090B
:1054A000309176092817390709F061C0F093760921
:1054B000E0937509DF91CF910895EA01CE17DF07D8
:1054C000E8F54A815B819E0141155105B1F7E9017B
:1054D000FB83EA8349915991C40FD51FEC17FD074F
:1054E00061F4808191810296840F951FE90199836F
:1054F0008883828193819B838A83F0E0E0E0129627
:105500008D919C9113970097B9F52D913C9111972E
:10551000CD010296820F931F209175093091760973
:105520002817390739F6309751F5109278091092FB
:105530007709B0937609A0937509BCCFD383C28352
:1055400040815181840F951FC817D90761F44E5FC0
:105550005F4F88819981480F591F518340838A8109
:105560009B81938382832115310509F0B0CFF0939D
:105570007809E09377099ECFFD01DC01C0CF13824B
:105580001282D7CF4F925F926F927F928F929F92AB
:10559000AF92BF92CF92DF92EF92FF920F931F9341
:1055A000CF93DF938C01009799F4CB01DF91CF91DA
:1055B0001F910F91FF90EF90DF90CF90BF90AF9031
:1055C0009F908F907F906F905F904F900C949D294B
:1055D000FC01E60FF71F9C0122503109E217F30787
:1055E00008F4AEC0D901CD91DC911197C617D70749
:1055F00020F1C530D10578F0CE01049786179707C2
:1056000050F0C61BD70B2297C193D1936D937C9317
:10561000CF010E94392AC801DF91CF911F910F91CC
:10562000FF90EF90DF90CF90BF90AF909F908F90C2
:105630007F906F905F904F9008955B01AC1ABD0A08
:105640004C018C0E9D1EA0917709B0917809512CC8
:10565000412CF12CE12C109731F580917509909136
:1056600076098815990509F05CC04616570608F0BA
:1056700058C080915C0290915D02009741F48DB713
:105680009EB74091600250916102841B950BE81710
:10569000F90708F055C0F0937609E0937509F90110
:1056A00071836083B8CF8D919C91119712966C9005
:1056B000129713967C901397A815B90559F56C01AC
:1056C00042E0C40ED11CCA14DB0420F1AC014A191B
:1056D0005B09DA011296159780F06282738251831A
:1056E0004083D9016D937C93E114F10471F0D701EB
:1056F0001396FC93EE9312978ECF22968C0F9D1FDC
:10570000F90191838083F301EFCFF0937809E0935F
:10571000770981CF4816590608F42C017D01D30181
:105720009ACFCB010E949D297C01009749F0AE01E0
:10573000B8010E94A32BC8010E94392A87016BCFB0
:1057400010E000E068CFFB01DC0102C001900D9287
:1057500041505040D8F70895FC018191861721F0FF
:105760008823D9F7992708953197CF010895FB0130
:10577000DC018D91019080190110D9F3990B0895E6
:10578000FB01DC0101900D920020E1F70895FC017E
:1057900081E090E00190061609F4CF010020D1F7D6
:1057A00001970895FB0151915523A9F0BF01DC0138
:1057B0004D9145174111E1F759F4CD0101900020B9
:1057C00049F04D9140154111C9F3FB014111EFCF53
:1057D00081E090E0019708951CE0CBE1DCE000E07F
:1057E00006C0802FFE010E9489292196011DCC311F
:0C57F000D10780E00807A9F7F894FFCF6C
:1057FC001ED00701FF33D10701FF28D20701FF0399
:10580C00D30701FF0BD40701FF0ED50701FF05D607
:10581C000701FF0FD70701FF2AD80701FF1D340826
:10582C0001FF1F350801FF18360801FF0737080173
:10583C00FF22380801FF23390801FF293A0801FF2C
:10584C002B3B0801FF20980801FF804000007909DC
:10585C008000FA60BCF466D6DE70FEF60400CC0064
:10586C000000002A129411C1117712F211D011E428
:10587C00110D0A00494E4954005343414E535441B3
:10588C0054450050494E4700454E4400434F4E4648
:10589C0049470053544152540053544F500044490B
:1058AC0053434F4E4E454354002D2D2D2D2D002D81
:1058BC002D2D2D20004C5F474C4152455F464355E2
:1058CC005F4C4F43004C5F474C4152455F4643553C
:1058DC005F415031004C5F474C4152455F46435548
:1058EC005F415032004C5F474C4152455F46435537
:1058FC005F41544852004C5F474C4152455F464310
:10590C00555F4558504544004C5F474C4152455FEC
:10591C004643555F41505052004C5F474C415245F5
:10592C005F4643555F4149525350454544444F549B
:10593C00004C5F474C4152455F4643555F414C54C8
:10594C004C564C4348004C5F474C4152455F4643D4
:10595C00555F465041004C5F474C4152455F4643B2
:10596C00555F484447004C5F474C4152455F4643A6
:10597C00555F484447444F54004C5F474C41524597
:10598C005F4643555F414C54444F54004C5F474C69
:10599C004152455F4643555F4844475653004C5F60
:1059AC00474C4152455F4643555F4C4154004C5F58
:1059BC00474C4152455F4643555F4D414348004C6F
:1059CC005F474C4152455F4643555F535044004C32
:1059DC005F474C4152455F4643555F54524B004C18
:1059EC005F474C4152455F4643555F54524B4650BE
:1059FC0041004C5F474C4152455F4643555F5653FF
:105A0C00004C5F474C4152455F4643555F414C54F7
:105A1C0000455F474C4152455F4643555F535044E8
:105A2C0000535041445F454E434F44455200455F3F
:105A3C00474C4152455F4643555F48444700455FDC
:105A4C00474C4152455F4643555F414C5400455FBE
:0E5A5C00474C4152455F4643555F565300008C
:00000001FF
