:100000000C94B10C0C94E20C0C94E20C0C94E20CE9
:100010000C94E20C0C94E20C0C94E20C0C94E20CA8
:100020000C94E20C0C94E20C0C94E20C0C94E20C98
:100030000C94E20C0C94E20C0C94E20C0C94E20C88
:100040000C94E20C0C94E20C0C94E20C0C94E20C78
:100050000C94E20C0C94E20C0C94E20C0C948C1FAB
:100060000C94E20C0C9400200C94D61F0C94E20C1F
:100070000C94E20C0C94E20C0C94E20C0C94E20C48
:100080000C94E20C0C94E20C0C94E20C0C94E20C38
:100090000C94E20C0C94E20C0C94E20C0C94E20C28
:1000A0000C94E20C0C94E20C0C94E20C0C94E20C18
:1000B0000C94E20C0C94E20C0C94E20C0C94E20C08
:1000C0000C94E20C0C94E20C0C94E20C0C94E20CF8
:1000D0000C94E20C0C94E20C0C94E20C0C94E20CE8
:1000E0000C94E20C0C9459130C94AB160C94461619
:1000F0000C948F0D0C94B50D0C94AD150C949D0DB6
:100100000C94A0160C94B3160C944D280C94D71A8A
:100110000C94740D0C94C5110C94B90D0C943F11F2
:100120000C94FC150C9447110C94D9110C947E0D71
:100130000C944C110C9476120C9493150C9420167C
:100140000C94B2120C9472110C94C4160C947A1183
:100150000C94990D0C94BB110C9471160C94B40D65
:100160000C94AB0D0C9498110C94C6120C94D412F0
:100170000C946A110C94B1110C94CF110C94B1151C
:100180000C943A160C9460110C942D160C94A70D37
:100190000C94E3160C947A0D0C942D170C94820D8C
:1001A0000C9463160C940C130C94860D0C94890D0E
:1001B0000C94A3120C94A7110C94691C0C94561166
:1001C0000C9484110C94930D0C948E110C940E16B7
:1001D0000C9436200C9482160C9423170C94FF1662
:1001E0000C9493160C94A10D0C94AF0D0C94521614
:1001F0004E414E494E495459494E46CDCCCC3D0A0C
:10020000D7233C17B7D13877CC2B329595E6241FEE
:10021000B14F0A000020410000C84200401C4620A7
:10022000BCBE4CCA1B0E5AAEC59D74554E4B4E4FAC
:10023000574E20434F4D4D414E4400434F4E46498B
:1002400047004144442C31342C4558504552545FAA
:100250004D4F44452C55382C52572C4578706572BB
:1002600074204D6F64652C536F6D65204C434420A2
:10027000646973706C617920656C656D656E74730B
:100280002077696C6C206E65656420746F206265F0
:10029000206D616E75616C6C79206D616E61676552
:1002A00064207768656E2073657420746F20312038
:1002B000286465666175742069732030292C504567
:1002C00052534953543D31004144442C31332C5650
:1002D00049525455414C5F504F5745522C55382C7C
:1002E00052572C5669727475616C20506F77657225
:1002F0002C415443207669727475616C20706F775D
:1003000065722030206F7220312C50455253495372
:10031000543D31004144442C31322C4241434B4C3A
:10032000494748545F4252492C55382C52572C4269
:1003300061636B6C69676874204272696768746E88
:100340006573732C4154432070616E656C2062614B
:10035000636B6C69676874206272696768746E6544
:1003600073732066726F6D203020746F20323535C4
:100370002C504552534953543D31004144442C3193
:10038000312C444953504C41595F4252492C553805
:100390002C52572C446973706C61797320427269D6
:1003A0006768746E6573732C4C4344206469737082
:1003B0006C6179206272696768746E657373206618
:1003C000726F6D203020746F203235352C504552BD
:1003D000534953543D3100494E5055542C302C4311
:1003E0004F4E4649475552455F50414E454C5F532D
:1003F00054415455532C53595354454D2C5350414B
:10040000445F5649525455414C5F504F5745522C0A
:1004100055495F545950453D332C435553544F4D26
:100420005F545950453D504F57455200494E505525
:10043000542C323130372C495F474C4152455F468E
:1004400043555F56535F50554C4C2C5055534842C2
:100450005554544F4E2C535041445F53494D504CCA
:1004600045425554544F4E2C48494444454E3D3125
:100470002C524F555445544F3D455F474C415245D2
:100480005F4643555F56532C524F555445544F2E9B
:1004900050524553533D50554C4C2C524F5554459A
:1004A000544F2E52454C454153453D00494E505501
:1004B000542C323130362C495F474C4152455F460F
:1004C00043555F56535F505553482C50555348423F
:1004D0005554544F4E2C535041445F53494D504C4A
:1004E00045425554544F4E2C48494444454E3D31A5
:1004F0002C524F555445544F3D455F474C41524552
:100500005F4643555F56532C524F555445544F2E1A
:1005100050524553533D505553482C524F55544516
:10052000544F2E52454C454153453D00494E505580
:10053000542C323130352C495F474C4152455F468F
:1005400043555F414C545F50554C4C2C50555348CB
:10055000425554544F4E2C535041445F53494D50D3
:100560004C45425554544F4E2C48494444454E3D09
:10057000312C524F555445544F3D455F474C4152E5
:10058000455F4643555F414C5449545544452C52B0
:100590004F555445544F2E50524553533D50554C92
:1005A0004C2C524F555445544F2E52454C454153B7
:1005B000453D00494E5055542C323130342C495F62
:1005C000474C4152455F4643555F414C545F50553F
:1005D00053482C50555348425554544F4E2C535069
:1005E00041445F53494D504C45425554544F4E2C55
:1005F00048494444454E3D312C524F555445544F83
:100600003D455F474C4152455F4643555F414C5421
:1006100049545544452C524F555445544F2E505231
:100620004553533D505553482C524F555445544F04
:100630002E52454C454153453D00494E5055542C92
:10064000323130332C495F474C4152455F46435568
:100650005F4844475F50554C4C2C505553484255C9
:1006600054544F4E2C535041445F53494D504C45C8
:10067000425554544F4E2C48494444454E3D312C2C
:10068000524F555445544F3D455F474C4152455F8D
:100690004643555F4844472C524F555445544F2EBE
:1006A00050524553533D50554C4C2C524F55544588
:1006B000544F2E52454C454153453D00494E5055EF
:1006C000542C323130322C495F474C4152455F4601
:1006D00043555F4844475F505553482C5055534845
:1006E000425554544F4E2C535041445F53494D5042
:1006F0004C45425554544F4E2C48494444454E3D78
:10070000312C524F555445544F3D455F474C415253
:10071000455F4643555F4844472C524F5554455416
:100720004F2E50524553533D505553482C524F5520
:100730005445544F2E52454C454153453D00494E7A
:100740005055542C323130312C495F474C41524581
:100750005F4643555F5350445F50554C4C2C5055A9
:100760005348425554544F4E2C535041445F5349C3
:100770004D504C45425554544F4E2C4849444445E5
:100780004E3D312C524F555445544F3D455F474CDB
:100790004152455F4643555F5350442C524F555488
:1007A00045544F2E50524553533D50554C4C2C52AE
:1007B0004F555445544F2E52454C454153453D00ED
:1007C000494E5055542C323130302C495F474C4102
:1007D00052455F4643555F5350445F505553482C34
:1007E00050555348425554544F4E2C535041445F3A
:1007F00053494D504C45425554544F4E2C48494452
:1008000044454E3D312C524F555445544F3D455F64
:10081000474C4152455F4643555F5350442C524F1D
:10082000555445544F2E50524553533D50555348FF
:100830002C524F555445544F2E52454C454153452B
:100840003D00494E5055542C323030382C495F47CA
:100850004C4152455F4643555F415050522C5055D4
:100860005348425554544F4E2C535041445F5055B9
:100870005348425554544F4E2C55495F5459504596
:100880003D322C55495F5354594C453D302C4C4119
:1008900042454C3D415050522C4F524445523D31FF
:1008A0003130352C4C45443D4C5F474C4152455FFF
:1008B0004643555F4150505200494E5055542C32DA
:1008C0003030372C495F474C4152455F4643555FB6
:1008D00045585045442C50555348425554544F4E5A
:1008E0002C535041445F50555348425554544F4E39
:1008F0002C55495F545950453D322C55495F53544E
:10090000594C453D302C4C4142454C3D4558504595
:10091000442C4F524445523D313130342C4C4544E7
:100920003D4C5F474C4152455F4643555F455850EB
:10093000454400494E5055542C323030362C495FD6
:10094000474C4152455F4643555F415448522C50F5
:10095000555348425554544F4E2C535041445F50C8
:10096000555348425554544F4E2C55495F54595095
:10097000453D322C55495F5354594C453D302C4C24
:100980004142454C3D415448522C4F524445523D02
:10099000313130332C4C45443D4C5F474C4152453E
:1009A0005F4643555F4154485200494E5055542CC0
:1009B000323030352C495F474C4152455F464355F4
:1009C0005F4150322C50555348425554544F4E2C91
:1009D000535041445F50555348425554544F4E2C48
:1009E00055495F545950453D322C55495F53545930
:1009F0004C453D302C4C4142454C3D4150322C4FF2
:100A0000524445523D313130322C4C45443D4C5FCF
:100A1000474C4152455F4643555F41503200494E75
:100A20005055542C323030342C495F474C4152459C
:100A30005F4643555F4150312C5055534842555401
:100A4000544F4E2C535041445F50555348425554D7
:100A5000544F4E2C55495F545950453D322C554901
:100A60005F5354594C453D302C4C4142454C3D411F
:100A700050312C4F524445523D313130312C4C4590
:100A8000443D4C5F474C4152455F4643555F4150A2
:100A90003100494E5055542C323030332C495F4789
:100AA0004C4152455F4643555F4C4F432C50555384
:100AB00048425554544F4E2C535041445F50555367
:100AC00048425554544F4E2C55495F545950453D5A
:100AD000322C55495F5354594C453D302C4C4142C2
:100AE000454C3D4C4F432C4F524445523D313130E3
:100AF000302C4C45443D4C5F474C4152455F46438A
:100B0000555F4C4F4300494E5055542C32303032D3
:100B10002C495F474C4152455F4643555F4D455414
:100B2000524943414C542C50555348425554544F0C
:100B30004E2C535041445F50555348425554544FE6
:100B40004E2C55495F545950453D322C55495F460E
:100B50004143453D312C4C4142454C3D4D4554525D
:100B6000494320414C542C4F524445523D31303082
:100B70003500494E5055542C323030312C495F47A6
:100B80004C4152455F4643555F4844475653545283
:100B90004B4650412C50555348425554544F4E2CBF
:100BA000535041445F50555348425554544F4E2C76
:100BB00055495F545950453D322C55495F46414394
:100BC000453D312C4C4142454C3D4844472D545203
:100BD0004B2056532D4650412C4F524445523D31E7
:100BE00030303300494E5055542C323030302C497F
:100BF0005F474C4152455F4643555F5350444D411A
:100C000043482C50555348425554544F4E2C535042
:100C100041445F50555348425554544F4E2C55490A
:100C20005F545950453D322C55495F464143453D3F
:100C3000312C4C4142454C3D535044204D4143489A
:100C40002C4F524445523D31303030004F555450B6
:100C500055542C382C4C5F474C4152455F46435508
:100C60005F4650412C4C45442C535041445F4C4509
:100C7000442C55495F464143453D312C4E4F5F4C16
:100C80004142454C3D312C4C4142454C3D46504142
:100C90002C464F524547524F554E443D23464642FF
:100CA0004630302C4F524445523D323130004F5582
:100CB000545055542C31382C4C5F474C4152455FB1
:100CC0004643555F56532C4C45442C535041445F8A
:100CD0004C45442C55495F464143453D312C4E4FD0
:100CE0005F4C4142454C3D312C4C4142454C3D56B8
:100CF000532C464F524547524F554E443D2346468E
:100D0000424630302C4F524445523D323039004F2C
:100D100055545055542C372C4C5F474C4152455F2D
:100D20004643555F414C544C564C43482C4C45442B
:100D30002C535041445F4C45442C55495F46414338
:100D4000453D312C4E4F5F4C4142454C3D312C4C82
:100D50004142454C3D4C564C2043482C464F524551
:100D600047524F554E443D234646424630302C4F65
:100D7000524445523D323038004F55545055542C52
:100D800031392C4C5F474C4152455F4643555F41DA
:100D90004C542C4C45442C535041445F4C45442CFE
:100DA00055495F464143453D312C4E4F5F4C4142D2
:100DB000454C3D312C4C4142454C3D414C542C4618
:100DC0004F524547524F554E443D234646424630CA
:100DD000302C4F524445523D323037004F5554501D
:100DE00055542C31372C4C5F474C4152455F46439C
:100DF000555F54524B4650412C4C45442C53504166
:100E0000445F4C45442C55495F464143453D312C98
:100E10004E4F5F4C4142454C3D312C4C4142454C7C
:100E20003D54524B2D4650412C464F524547524F50
:100E3000554E443D234646424630302C4F524445A1
:100E4000523D323036004F55545055542C31322CCF
:100E50004C5F474C4152455F4643555F48444756B7
:100E6000532C4C45442C535041445F4C45442C5525
:100E7000495F464143453D312C4E4F5F4C41424511
:100E80004C3D312C4C4142454C3D4844472D565336
:100E90002C464F524547524F554E443D23464642FD
:100EA0004630302C4F524445523D323035004F557C
:100EB000545055542C31332C4C5F474C4152455FB4
:100EC0004643555F4C41542C4C45442C53504144AF
:100ED0005F4C45442C55495F464143453D312C4EBE
:100EE0004F5F4C4142454C3D312C4C4142454C3DBD
:100EF0004C41542C464F524547524F554E443D238A
:100F00004646424630302C4F524445523D323034F2
:100F1000004F55545055542C31362C4C5F474C41A2
:100F200052455F4643555F54524B2C4C45442C531D
:100F30005041445F4C45442C55495F464143453D33
:100F4000312C4E4F5F4C4142454C3D312C4C41427F
:100F5000454C3D54524B2C464F524547524F554EEF
:100F6000443D234646424630302C4F524445523D84
:100F7000323033004F55545055542C392C4C5F4768
:100F80004C4152455F4643555F4844472C4C4544CD
:100F90002C535041445F4C45442C55495F464143D6
:100FA000453D312C4E4F5F4C4142454C3D312C4C20
:100FB0004142454C3D4844472C464F524547524FCD
:100FC000554E443D234646424630302C4F52444510
:100FD000523D323032004F55545055542C31342C40
:100FE0004C5F474C4152455F4643555F4D41434836
:100FF0002C4C45442C535041445F4C45442C55499E
:101000005F464143453D312C4E4F5F4C4142454C7C
:101010003D312C4C4142454C3D4D4143482C464FBF
:10102000524547524F554E443D2346464246303086
:101030002C4F524445523D323031004F555450559B
:10104000542C31352C4C5F474C4152455F4643553B
:101050005F5350442C4C45442C535041445F4C4505
:10106000442C55495F464143453D312C4E4F5F4C22
:101070004142454C3D312C4C4142454C3D5350443E
:101080002C464F524547524F554E443D234646420B
:101090004630302C4F524445523D323030004F558F
:1010A000545055542C31312C4C5F474C4152455FC4
:1010B0004643555F414C54444F542C4C45442C53AB
:1010C0005041445F4C45442C55495F464143453DA2
:1010D000302C4E4F5F4C4142454C3D312C4C4142EF
:1010E000454C3D414C542C4F524445523D36004FE7
:1010F00055545055542C31302C4C5F474C4152457F
:101100005F4643555F484447444F542C4C45442C5C
:10111000535041445F4C45442C55495F464143453B
:101120003D302C4E4F5F4C4142454C3D312C4C41A3
:1011300042454C3D4844472C4F524445523D3400B3
:101140004F55545055542C362C4C5F474C4152450A
:101150005F4643555F4149525350454544444F54BF
:101160002C4C45442C535041445F4C45442C55492C
:101170005F464143453D302C4E4F5F4C4142454C0C
:101180003D312C4C4142454C3D5350442C4F524430
:1011900045523D32004F55545055542C352C4C5F20
:1011A000474C4152455F4643555F415050522C4C8D
:1011B00045442C535041445F4C45442C55495F46AF
:1011C0004143453D302C4E4F5F4C4142454C3D31F3
:1011D0002C48494444454E3D31004F5554505554D8
:1011E0002C342C4C5F474C4152455F4643555F457C
:1011F000585045442C4C45442C535041445F4C4579
:10120000442C55495F464143453D302C4E4F5F4C81
:101210004142454C3D312C48494444454E3D310006
:101220004F55545055542C332C4C5F474C4152452C
:101230005F4643555F415448522C4C45442C535013
:1012400041445F4C45442C55495F464143453D3040
:101250002C4E4F5F4C4142454C3D312C4849444453
:10126000454E3D31004F55545055542C322C4C5F57
:10127000474C4152455F4643555F4150322C4C45E7
:10128000442C535041445F4C45442C55495F4641E2
:1012900043453D302C4E4F5F4C4142454C3D312C37
:1012A00048494444454E3D31004F55545055542C07
:1012B000312C4C5F474C4152455F4643555F41508E
:1012C000312C4C45442C535041445F4C45442C55E3
:1012D000495F464143453D302C4E4F5F4C414245AE
:1012E0004C3D312C48494444454E3D31004F555406
:1012F0005055542C302C4C5F474C4152455F46436F
:10130000555F4C4F432C4C45442C535041445F4C4B
:1013100045442C55495F464143453D302C4E4F5F77
:101320004C4142454C3D312C48494444454E3D31A9
:1013300000494E5055542C323230302C495F474CC6
:101340004152455F4643555F414C545F4348414ECF
:1013500047452C5357495443482C535041445F53FD
:1013600057495443482C48494444454E3D312C523A
:101370004F555445544F3D455F474C4152455F469C
:1013800043555F414C5449545544452C524F555494
:1013900045544F2E4F4E3D414C54495455444543BE
:1013A00048414E4745313030302C524F555445540A
:1013B0004F2E4F46463D414C5449545544454348B1
:1013C000414E474531303000494E5055542C333052
:1013D00030332C455F474C4152455F4643555F567D
:1013E000532C454E434F4445522C535041445F4586
:1013F0004E434F4445525F4143432C535041445F59
:101400005055534850554C4C2C4C4142454C3D5640
:10141000532C4F524445523D3130303600494E50E6
:1014200055542C333030322C455F474C4152455F88
:101430004643555F414C5449545544452C454E4311
:101440004F4445522C535041445F454E434F444511
:10145000525F4143432C535041445F5055534850D1
:10146000554C4C2C535041445F5357495443482CDE
:101470004C4142454C3D414C542C4F524445523D09
:101480003130303400494E5055542C333030312CEB
:10149000455F474C4152455F4643555F4844472CA2
:1014A000454E434F4445522C535041445F454E43B3
:1014B0004F4445525F4143432C535041445F505584
:1014C000534850554C4C2C4C4142454C3D484447A8
:1014D0002C4F524445523D3130303200494E505528
:1014E000542C333030302C455F474C4152455F46D9
:1014F00043555F5350442C454E434F4445522C5363
:101500005041445F454E434F4445525F4143432C55
:10151000535041445F5055534850554C4C2C4C410E
:1015200042454C3D5350442C4F524445523D31307E
:101530003031004F55545055542C313030332C44F9
:101540005F474C4152455F4643555F56532C4449D3
:1015500053504C41592C535041445F444953504CD3
:1015600041592C4C4142454C3D56532C4C454E471D
:1015700054483D352C524F573D312C57494454481F
:101580003D39302C4845494748543D33342C464F6B
:10159000524547524F554E443D2346464246303011
:1015A0002C4F524445523D372C464F4E5453495AC6
:1015B000453D3336004F55545055542C3130303260
:1015C0002C445F474C4152455F4643555F414C5464
:1015D0002C444953504C41592C535041445F444989
:1015E00053504C41592C4C4142454C3D414C542C9C
:1015F0004C454E4754483D352C524F573D312C57A2
:10160000494454483D39302C4845494748543D33B6
:10161000342C464F524547524F554E443D23464683
:10162000424630302C4F524445523D352C464F4EA9
:101630005453495A453D3336004F55545055542C58
:10164000313030312C445F474C4152455F46435561
:101650005F4844472C444953504C41592C53504106
:10166000445F444953504C41592C4C4142454C3DF8
:101670004844472C4C454E4754483D332C524F5715
:101680003D312C57494454483D36302C4845494754
:1016900048543D33342C464F524547524F554E44E3
:1016A0003D234646424630302C4F524445523D334E
:1016B0002C464F4E5453495A453D3336004F5554EE
:1016C0005055542C313030302C445F474C415245FA
:1016D0005F4643555F5350442C444953504C415945
:1016E0002C535041445F444953504C41592C4C4178
:1016F00042454C3D5350442C4C454E4754483D3494
:101700002C524F573D312C57494454483D38302CCA
:101710004845494748543D33342C464F524547527B
:101720004F554E443D234646424630302C4F52449E
:1017300045523D312C464F4E5453495A453D333660
:10174000004F55545F434F4F4C444F574E3D34303C
:10175000004E4F5F444953504C41595F434C454103
:10176000523D31005650535550504F52543D310068
:1017700050414745535550504F52543D3000495306
:1017800047454E455249433D31004F5054494F4E15
:1017900000504F4E470053544154455343414E006F
:1017A00053544154455343414E005049443D4346F0
:1017B0005441333230464355005649443D314C3252
:1017C0005000415554484F523D3336306238313223
:1017D0006566313064333365353435376565376276
:1017E0003431323834353336660043465420413381
:1017F000323020464355007B3831646438356362AB
:101800002D373530352D343265622D386137662DF0
:101810003932623466626339646166667D005350B2
:10182000414400415454414348494E472043414CB0
:101830004C4241434B5321002C30002C310000001E
:101840002100240027002A002D0030003300010170
:101850000000040107010A01000022002500280001
:101860002B002E00310034000201000005010801A8
:101870000B01000020002300260029002C002F006F
:1018800032000001000003010601090105050505FC
:10189000070508080808020202020A0A08080404E8
:1018A0000404010101010101010103030303030316
:1018B0000303040707070C0C0C0C0C0C0C0C0202A5
:1018C000020206060606060606060B0B0B0B0B0BA2
:1018D0000B0B01021020200808102040102040802F
:1018E00002010201080402010102040810204080E4
:1018F0008040201008040201800402018040201072
:1019000008040201080402010102040810204080BA
:10191000010204081020408000000A0B02090C0D8F
:101920000E08070304010000000000000000000092
:1019300000000000000000000000000000000000A7
:101940000000000012111000000000000000000064
:101950000000000000000000000000000000362031
:101960004D2811241FBECFEFD1E2DEBFCDBF00E076
:101970000CBF2AE0ACEFB4E001C01D92A730B20763
:10198000E1F714E0A0E0B2E0E6EBFDE500E00BBF1C
:1019900002C007900D92AC3FB107D9F71CE0C0EB35
:1019A000DCE000E006C021970109802FFE010E94C3
:1019B000662CCF3AD10780E00807A9F70E947C2265
:1019C0000C94C92E0C940000AC0110924A0790911F
:1019D0009A0980919909FA01BF01641B750B209146
:1019E0004A07308130934A07931304C0921302C010
:1019F00010924A073081311104C0921721F0CB01B7
:101A000008953817D1F33196E7CF0F931F93CF93F3
:101A1000DF9380918E09882309F446C0D0E0C0E0AE
:101A2000813029F482E080938E09CEE4D7E0809162
:101A30008F09882341F1209721F4C0919309D09117
:101A400094098E01CE010E94E40C892B29F4219681
:101A5000F80180818111F5CFF8018081882309F197
:101A6000C8010E94E40CF801E80FF91F8081882367
:101A700011F010823196F0939409E093930910933A
:101A80009209009391098091910990919209892B73
:101A900059F081E080938F09DF91CF911F910F91D1
:101AA000089510E000E0EBCF80E0F6CF8150823166
:101AB00008F05AC0E82FF0E08827EE59F24F8F4F18
:101AC0000C94662C820D860D740D7A0D7E0DB40D6E
:101AD000890D8F0D930D990D9D0DA10DA70DAB0DCA
:101AE000B40DAF0DB50DB90D809180008F77809347
:101AF00080000895809180008F7DF9CF80918000D3
:101B0000877FF5CF84B58F7784BD089584B58F7DA9
:101B1000FBCF8091B0008F778093B00008958091C3
:101B2000B0008F7DF9CF809190008F7780939000E7
:101B30000895809190008F7DF9CF80919000877FEC
:101B4000F5CF8091A0008F778093A00008958091B9
:101B5000A0008F7DF9CF8091A000877FF5CF809185
:101B600020018F77809320010895809120018F7D3F
:101B7000F9CF80912001877FF5CFCF93DF93282F76
:101B800030E0F901E85EF64E8491F901EE52F74E2D
:101B9000D491F901E457F74EC491CC23A1F08111FF
:101BA0000E94560DEC2FF0E0EE0FFF1FEE58F74E9F
:101BB000A591B491EC91ED2381E090E009F480E0EF
:101BC000DF91CF91089580E090E0FACF1F93CF93FB
:101BD000DF93282F30E0F901E85EF64E8491F90199
:101BE000EE52F74ED491F901E457F74EC491CC234D
:101BF000A9F0162F81110E94560DEC2FF0E0EE0F88
:101C0000FF1FE85AF74EA591B4918FB7F894EC9165
:101C1000111108C0D095DE23DC938FBFDF91CF91E7
:101C20001F910895DE2BF8CFFF920F931F93CF9350
:101C3000DF93D82FF62EC0E00BE410E060E0809137
:101C400071060E94E60DC8010197F1F76D2F661F1E
:101C50006627661F809170060E94E60DC8010197F5
:101C6000F1F761E0809171060E94E60DC8010197CD
:101C7000F1F7CF5FDD0FFC12E1CFDF91CF911F9124
:101C80000F91FF9008951F93CF93DF93182FCFE606
:101C9000D6E060E088810E94E60D64E080E80E9462
:101CA000140E68E0812F0E94140E61E08881DF919C
:101CB000CF911F910C94E60DCF92DF92EF92FF929D
:101CC0000F931F93CF93DF93C82F6A017B01D22F0D
:101CD00060E080916F060E94E60D63E080EA0E945A
:101CE000140E66E08C2F880F880F0E94140EC0E03F
:101CF0000BE410E060E0809171060E94E60DC801DF
:101D00000197F1F76C2D6170809170060E94E60DCD
:101D1000C8010197F1F761E0809171060E94E60D1C
:101D2000C8010197F1F7CF5FF694E794D794C79471
:101D3000DC13E0CF61E080916F06DF91CF911F91BE
:101D40000F91FF90EF90DF90CF900C94E60DE82F6D
:101D5000F0E0E159F94F43A150E070E060E028E085
:101D6000880F0C945C0EEFE6F6E092A99F7D40E2AE
:101D7000849F90011124922B92AB94A59E7F892B76
:101D800084A78FE00E94A70E89E00C94A70EEFE6CF
:101D9000F6E092A99F7E40E1849F90011124922B4E
:101DA00092AB93A59E7F892B83A78FE00E94A70EFD
:101DB00088E00C94A70EEFE6F6E092A99B7F44E042
:101DC000849F90011124922B92AB92A59E7F892B28
:101DD00082A78FE00E94A70E87E00C94A70EEFE683
:101DE000F6E092A9977F48E0849F90011124922BFE
:101DF00092AB91A59E7F892B81A78FE00E94A70EB1
:101E000086E00C94A70ECF93DF93CFE6D6E08AA9A5
:101E100081608AAB8FE00E94A70E8AA982608AAB9C
:101E20008FE00E94A70E8FA181608FA384E0DF91D5
:101E3000CF910C94A70E6D3008F06BE0A82FB0E0A6
:101E4000A159B94F93969C9193979170E62FF0E02A
:101E5000E052FD4F2081922B93969C930C94A70EF9
:101E6000EF92FF920F931F93CF93DF93EC01C83E45
:101E700083E0D80710F0C7EED3E00AE010E0CE010F
:101E8000B8010E943E2C7B01682F82E00E941B0F4C
:101E9000C701B8010E943E2C682F81E00E941B0FF1
:101EA000CE0164E670E00E943E2C80E0DF91CF918D
:101EB0001F910F91FF90EF900C941B0FEF92FF92E8
:101EC0000F931F93CF93DF93EC01C83E83E0D807B5
:101ED00010F0C7EED3E00AE010E0CE01B8010E9496
:101EE0003E2C7B01682F85E00E941B0FC701B801C3
:101EF0000E943E2C682F84E00E941B0FCE0164E6F6
:101F000070E00E943E2C83E0DF91CF911F910F91F2
:101F1000FF90EF900C941B0F6BE085E00E941B0F6D
:101F20006BE084E00E941B0F6BE083E00C941B0FBE
:101F30004F925F926F927F928F929F92AF92BF92D9
:101F4000CF92DF92EF92FF926B017C0180EAC8167C
:101F500086E8D80681E0E806F10438F09FE9C92E4A
:101F600096E8D92EEE24E394F12C8AE0882E912C69
:101F7000A12CB12CC701B601A50194010E94B92B77
:101F800029013A018AE00E941B0FC301B201A50199
:101F900094010E94B92B89E00E941B0FC701B60172
:101FA00024E630E040E050E00E94B92BCA01B901BC
:101FB000A50194010E94B92B88E00E941B0FC70164
:101FC000B60128EE33E040E050E00E94B92BCA0190
:101FD000B901A50194010E94B92B87E00E941B0F53
:101FE000C701B60120E137E240E050E00E94B92B82
:101FF000622F86E0FF90EF90DF90CF90BF90AF9080
:102000009F908F907F906F905F904F900C941B0FDC
:102010006BE08AE00E941B0F6BE089E00E941B0FBF
:102020006BE088E00E941B0F6BE087E00E941B0FB3
:102030006BE086E00C941B0FCF93DF93EC01909143
:102040009F068091A00620919E062E7F9E7F8E7F08
:10205000C03137E2D307CCF5C13F38EDD3073CF0B0
:10206000D7FD07C0209799F590939F060AC0C1EF4E
:10207000D8EDD195C195D10990939F069091A20674
:10208000892B8093A00620939E066CE08EE00E9430
:102090001B0F6CE08DE00E941B0FCE0164E670E028
:1020A0000E94522CCB016AE070E00E94522C682FF3
:1020B0008CE00E941B0FCE0168EE73E00E94522C50
:1020C0008BE0DF91CF910C941B0FCFE0D7E23091E2
:1020D000A206932B90939F06832BD3CFEFE6F6E0D7
:1020E00081A98E7F81AB80A98E7F80AB87A58E7FF3
:1020F00087A76BE08EE00E941B0F6BE08DE00E94D3
:102100001B0F6BE08CE00E941B0F6BE08BE00C94CC
:102110001B0F61E082E00E941B0F60E081E00E94E3
:102120001B0FEFE6F6E083A181708C6083A380E053
:102130000C94A70E6BE080E00E941B0F6BE081E027
:102140000E941B0F6BE082E00E941B0FEFE6F6E09F
:1021500084A18E7F84A38FE00C94A70EE4E6F2E0C6
:1021600030E020E09081961779F02F5F3F4F329654
:102170002C333105B9F7E82FF0E0E159F94F93A17D
:10218000917093A30C94A70EA82FB0E0A159B94F5A
:1021900093969C9193979170220F331FF901EC59FC
:1021A000FD4F2181922B93969C93ECCFCF93DF939D
:1021B00090E0FC01EE52F74E24918457974EFC01BB
:1021C00084918823D1F090E0880F991FFC01E25C94
:1021D000F74EA591B491FC01E85AF74EC591D49100
:1021E000623071F49FB7F8943C91822F80958323DD
:1021F0008C93E8812E2B28839FBFDF91CF91089588
:102200008FB7F894EC912E2B2C938FBFF6CF1F93A2
:10221000CF93DF93182FEB0161E00E94D610209737
:1022200039F460E0812FDF91CF911F910C94E60D7E
:10223000CF3FD10511F461E0F5CFE12FF0E0E85E8A
:10224000F64EE491E150E23108F0B3C0F0E08827A7
:10225000E35DFE4E8F4F0C94662C3F1147114C11DD
:1022600056116011D9116A1172117A1184118E11EF
:102270009811A711B111D911BB11C511CF1184B596
:10228000806884BDC7BDDF91CF911F91089584B54B
:10229000806284BDC8BDF7CF809180008068809344
:1022A0008000D0938900C0938800EDCF809180009A
:1022B000806280938000D0938B00C0938A00E3CF2C
:1022C00080918000886080938000D0938D00C093BF
:1022D0008C00D9CF8091B00080688093B000C0930B
:1022E000B300D1CF8091B00080628093B000C093E2
:1022F000B400C9CF80919000806880939000D09303
:102300009900C0939800BFCF809190008062809325
:102310009000D0939B00C0939A00B5CF809190001D
:10232000886080939000D0939D00C0939C00ABCFB9
:102330008091A00080688093A0008091A0008F7B96
:102340008093A000D093A900C093A8009CCF809157
:10235000A00080628093A000D093AB00C093AA003D
:1023600092CF8091A00088608093A000D093AD00B0
:10237000C093AC0088CF80912001806880932001B9
:10238000D0932901C09328017ECF809120018062E3
:1023900080932001D0932B01C0932A0174CF8091A8
:1023A0002001886080932001D0932D01C0932C01DF
:1023B0006ACFC038D1050CF03ECF33CF3FB7F89489
:1023C00080910B0590910C05A0910D05B0910E0523
:1023D00026B5A89B05C02F3F19F00196A11DB11D80
:1023E0003FBFBA2FA92F982F8827BC01CD01620FBC
:1023F000711D811D911D42E0660F771F881F991F77
:102400004A95D1F708958F929F92AF92BF92CF9243
:10241000DF92EF92FF924B015C010E94DE116B0193
:102420007C010E94DE116C197D098E099F09683EAE
:10243000734081059105A8F321E0821A9108A10853
:10244000B10888EEC80E83E0D81EE11CF11C81148F
:102450009104A104B10429F7FF90EF90DF90CF9091
:10246000BF90AF909F908F9008952FB7F894609190
:102470000705709108058091090590910A052FBF05
:102480000895DC01ED91FC910190F081E02D19940B
:10249000EF92FF920F931F93CF93DF932091450705
:1024A0002223E9F08C01609199098091960990911D
:1024B00097090E944112E0909609F0909709E8016F
:1024C000FE016491662359F0D701ED91FC910190D2
:1024D000F081E02DC70119952196892B89F7DF91AD
:1024E000CF911F910F91FF90EF900895AF92BF92FF
:1024F000CF92DF92EF92FF920F931F93CF93DF93D0
:102500006C017B018B01040F151FEB015E01AE18FE
:10251000BF08C017D10759F06991D601ED91FC9120
:102520000190F081E02DC6011995892B79F7C5013D
:10253000DF91CF911F910F91FF90EF90DF90CF909F
:10254000BF90AF900895FC01538D448D252F30E04E
:10255000842F90E0821B930B541710F0CF960895B0
:1025600001970895FC01918D828D981761F0A28DDD
:10257000AE0FBF2FB11D5D968C91928D9F5F9F73A3
:10258000928F90E008958FEF9FEF0895FC01918D59
:10259000828D981731F0828DE80FF11D858D90E0C6
:1025A00008958FEF9FEF0895FC01918D228D892F63
:1025B00090E0805C9F4F821B91098F73992708954B
:1025C00088EA96E00E94D41221E0892B09F420E0E9
:1025D000822F0895FC01A48DA80FB92FB11DA35A15
:1025E000BF4F2C91848D90E001968F739927848F33
:1025F000A689B7892C93A089B1898C918370806456
:102600008C93938D848D981306C00288F389E02DF6
:1026100080818F7D80830895EF92FF920F931F93A7
:10262000CF93DF93EC0181E0888F9B8D8C8D981385
:102630001AC0E889F989808185FF15C09FB7F89491
:10264000EE89FF896083E889F989808183708064DD
:1026500080839FBF81E090E0DF91CF911F910F9128
:10266000FF90EF900895F62E0B8D10E00F5F1F4F37
:102670000F731127E02E8C8D8E110CC00FB607FC46
:10268000FACFE889F989808185FFF5CFCE010E94D4
:10269000EA12F1CFEB8DEC0FFD2FF11DE35AFF4F46
:1026A000F0829FB7F8940B8FEA89FB898081806262
:1026B000CFCFCF93DF93EC01888D8823B9F0AA891F
:1026C000BB89E889F9898C9185FD03C0808186FDED
:1026D0000DC00FB607FCF7CF8C9185FFF2CF80813C
:1026E00085FFEDCFCE010E94EA12E9CFDF91CF91B5
:1026F000089580E090E0892B29F00E94E01281117A
:102700000E94000080E090E0892B49F080E090E09A
:10271000892B29F00E94000081110E94000080E0B6
:1027200090E0892B49F080E090E0892B29F00E940D
:10273000000081110E94000080E090E0892B49F0A8
:1027400080E090E0892B29F00E94000081110C9418
:10275000000008950F931F93CF93DF93EC01062F92
:10276000142F62E0802F0E94D61062E0812F0E9419
:10277000D610602F70E0FB01E457F74EE491F0E0D3
:10278000EE0FFF1FEE58F74EA591B491B983A883C1
:102790006E52774EFB0164916C83812F90E0FC01B7
:1027A000E457F74EE491F0E0EE0FFF1FEE58F74EBE
:1027B000259134913B832A838E52974EFC0184915C
:1027C0008D831F82188619861A86EBE3FFE1319705
:1027D000F1F7EC91E62391E009F490E0D901EC9156
:1027E0008E2309F092609E83DF91CF911F910F910C
:1027F0000895CF93C0E024E040E050E0BA018C2F70
:102800000E945C0ECF5FC032B1F7E2E9F6E080E1F2
:10281000DF011D928A95E9F7CF9108950C94F91381
:10282000CF93DF93EC01FC0101900020E9F7CF0189
:1028300001978C1B9D0B8330910570F06A8182E0BB
:102840000E94AE10698181E00E94AE10688180E034
:10285000DF91CF910C94AE108230910598F7892BBF
:10286000A9F7DF91CF910895CF93DF93EC01FC019D
:1028700001900020E9F7CF0101978C1B9D0B83305D
:10288000910570F06A8185E00E94AE10698184E054
:102890000E94AE10688183E0DF91CF910C94AE105E
:1028A0008230910598F7892BA9F7DF91CF91089590
:1028B000CF93DF93EC01FC0101900020E9F7CF01F9
:1028C00001978C1B9D0B85309105B0F06C818AE0DF
:1028D0000E94AE106B8189E00E94AE106A8188E090
:1028E0000E94AE10698187E00E94AE10688186E088
:1028F000DF91CF910C94AE108430910558F783305E
:10290000910560F78230910568F7892B79F7DF919F
:10291000CF910895CF93DF93EC01FC01019000204B
:10292000E9F7CF0101978C1B9D0B8430910590F046
:102930006B818EE00E94AE106A818DE00E94AE1025
:1029400069818CE00E94AE1068818BE0DF91CF91AD
:102950000C94AE108330910578F78230910580F7A2
:10296000892B91F7DF91CF910895FB010190002011
:10297000E9F73197AF01461B570BDC01ED91FC9154
:102980000280F381E02D1994809145078823A1F0FE
:102990006091980980919609909197090E9441123F
:1029A00080914D07882341F06FEF72E08091960986
:1029B000909197090E94B51410924C071092450708
:1029C00080E008958F929F92AF92BF92EF92FF9214
:1029D0000F931F93CF93DF93CDB7DEB7A1970FB6B9
:1029E000F894DEBF0FBECDBF7C01FA01CB0119A266
:1029F000223008F42AE08E010F5D1F4F822E912CA9
:102A0000B12CA12CBF01A50194010E94B92BF901A1
:102A1000CA016A300CF5605DD8016E938D01232BDD
:102A2000242B252B79F790E080E0109721F0BD0151
:102A3000C7010E94B514A1960FB6F894DEBF0FBE71
:102A4000CDBFDF91CF911F910F91FF90EF90BF907D
:102A5000AF909F908F900895695CDECFCF92DF9208
:102A6000EF92FF92CF93DF9320914507222359F1F4
:102A70006C016091990980919609909197090E9443
:102A80004112C0919609D09197090D2C000CEE08C7
:102A9000FF082AE0B701A601F7FE0CC06DE2CE01E7
:102AA0000E94411244275527BA014C195D096E094D
:102AB0007F092AE0CE01DF91CF91FF90EF90DF9068
:102AC000CF900C94E214DF91CF91FF90EF90DF90C4
:102AD000CF90089590914507911110C091E0909387
:102AE000450790934C07482F50E070E060E02AE0E3
:102AF00080919609909197090C94E2140895CF93D0
:102B0000DF939091450791110AC0EB010E946A156D
:102B1000CE010E944812DF91CF910C94C41480E042
:102B2000DF91CF9108956BE272E083E00C947F1502
:102B30000E94050D882359F081E080938F098093CE
:102B4000900980919109909192090C94E829109232
:102B5000900960E070E0CB0108950E9498150C94F4
:102B60009815CF92DF92EF92FF92CF930E94981523
:102B70006B017C010E949815AB01BC0186E0C81670
:102B8000D104E104F104BCF48AE08C9DF0018D9D38
:102B9000F00D1124E955FA4F8081452B462B472B28
:102BA00041F061E0CF91FF90EF90DF90CF900C94D7
:102BB000E60D60E0F7CF86E0C81AD108E108F10819
:102BC0008EE0C816D104E104F10408F0D7C0F60184
:102BD0008827E251FA4E8F4F0C94662CFC150E1686
:102BE00020162D163A1646165216631671168216C0
:102BF0009316A016AB16B316809195068E7F91E0C2
:102C0000411101C090E0892B8093950683E0CF911C
:102C1000FF90EF90DF90CF900C94A70E8091A106CB
:102C20008D7F21E030E0452B462B472B11F430E01F
:102C300020E0220F331F822B8093A1068FE0E7CF85
:102C400081E0452B462B472B09F480E0CF91FF9084
:102C5000EF90DF90CF900C94EF0E81E0452B462B48
:102C6000472B09F480E0CF91FF90EF90DF90CF9059
:102C70000C94B30E809197068E7F91E0411101C0B4
:102C800090E0892B8093970685E0C1CF80919D06C7
:102C90008E7F91E0411101C090E0892B80939D06C9
:102CA0008BE0B5CFC1E0452B462B472B09F4C0E0A4
:102CB0008C2F0E94B30E8C2FCF91FF90EF90DF905E
:102CC000CF900C94DB0E809196068E7F91E0452B81
:102CD000462B472B09F490E0892B8093960684E0DD
:102CE00096CF8091A1068F7B21E030E0452B462BCB
:102CF000472B11F430E020E046E0220F331F4A95C5
:102D0000E1F799CF8091A1068F7721E030E0452B44
:102D1000462B472B11F430E020E03695322F222746
:102D20003795279588CF81E0452B462B472B09F413
:102D300080E0CF91FF90EF90DF90CF900C94C70E82
:102D4000C1E0452B462B472B09F4C0E08C2F0E9495
:102D5000C70E8C2F7BCF81E0452B462B472B09F0EC
:102D6000ABCF80E0A9CF8091A1068E7F91E0452B6B
:102D7000462B472B09F490E0892B5ECFCF91FF9033
:102D8000EF90DF90CF900895CF92DF92EF92FF9275
:102D90000E9498156B017C018FEFC816D104E104E5
:102DA000F10409F058F46FEF70E06C197D098DE0C3
:102DB0000E940711D0925B02C0925A02FF90EF90DE
:102DC000DF90CF900895CF92DF92EF92FF920E9412
:102DD00098156B017C018FEFC816D104E104F10452
:102DE00009F040F4B6018CE00E940711D0925D0218
:102DF000C0925C02FF90EF90DF90CF9008950E9408
:102E00009815672B682B692B61F470E060E08CE00B
:102E10000E9407116FEF70E08DE00E9407110C9483
:102E20000E1460915C0270915D028CE00E940711AB
:102E300080915A0290915B026FEF70E0681B790BF2
:102E40008DE00C9407110E94981562307105810580
:102E5000910510F46093FC040895CF92DF92EF92F5
:102E6000FF92CF93DF930E94050D882309F48CC055
:102E700081E080938F0980939009C0919109D0914E
:102E8000920962E073E0CE010E94942E892B09F032
:102E900080C080E00E946A156EE170E080E090E002
:102EA0000E9403128EE198E10E9448126EE170E0E8
:102EB00080E090E00E94031287EF97E10E944812A1
:102EC0006EE170E080E090E00E9403128AEE97E1EC
:102ED0000E9448126EE170E080E090E00E940312D0
:102EE00082E090E00E942E1581E090E00E942E1575
:102EF00082EC97E10E9448126EE170E080E090E081
:102F00000E94031289EB97E10E9448126EE170E083
:102F100080E090E00E9403128AEA97E10E94481242
:102F20006EE170E080E090E00E9403120E94C41401
:102F300068EC70E08CE00E9407116EE170E080E0C8
:102F400090E00E94031270E060E08CE00E940711A4
:102F50006EE170E080E090E00E94031268EC70E0A7
:102F60008CE00E9407116EE170E080E090E00E942A
:102F7000031270E060E08CE0DF91CF91FF90EF9062
:102F8000DF90CF900C94071110929009D0E0C0E030
:102F900078CF67E073E0CE010E94942E892B09F070
:102FA00043C080E00E946A1580EA97E10E944812BF
:102FB00081E090E00E942E150E94C4148091550279
:102FC0000E94BD0D80935902811122C088E00E94A9
:102FD0006A1580915602909157020E942E1581E049
:102FE00090E00E942E150E94C41480E00E946A1591
:102FF00086E997E10E94481282E090E00E942E1537
:10300000DF91CF91FF90EF90DF90CF900C94C4149C
:1030100088E00E946A1580915602909157020E94A2
:103020002E1590E080E0DDCF61E173E0CE010E94DB
:10303000942E892BD1F50E9435126093FE04709373
:10304000FF04809300059093010580E00E946A15BB
:1030500081E997E10E9448120E9498156B017C015A
:1030600080914507882361F26091990980919609C2
:10307000909197090E944112C0919609D0919709A9
:103080002AE0B701A601F7FE0CC06DE2CE010E9456
:10309000411244275527BA014C195D096E097F0971
:1030A0002AE0CE010E94E214ABCF66E173E0CE01CC
:1030B0000E94942E892BD9F40E940E146FEF70E0B9
:1030C0008DE00E94071170E060E08CE00E94071123
:1030D00010925D0210925C0210925B0210925A02F2
:1030E000DF91CF91FF90EF90DF90CF9008956AE14C
:1030F00073E0CE010E94942E892B91F780E00E940C
:103100006A158AE897E10E9448128EE797E10E94CB
:10311000481280E797E10E94481284E697E10E94F6
:10312000481281E597E10E94481281E497E10E94EC
:1031300048120E94C4146DEB76E180E00E947F1576
:103140006EE170E080E090E00E94031269E376E1B6
:1031500080E00E947F156EE170E080E090E00E94C8
:10316000031265EB75E180E00E947F156EE170E06F
:1031700080E090E00E94031263E375E180E00E942A
:103180007F156EE170E080E090E00E9403126CED2C
:1031900074E180E00E947F156EE170E080E090E0D5
:1031A0000E94031265E874E180E00E947F156EE1E1
:1031B00070E080E090E00E9403126DE174E180E035
:1031C0000E947F156EE170E080E090E00E940312A3
:1031D00068EC73E180E00E947F156EE170E080E0B2
:1031E00090E00E94031261E373E180E00E947F158A
:1031F0006EE170E080E090E00E9403126DEE72E1FB
:1032000080E00E947F156EE170E080E090E00E9417
:10321000031269EA72E180E00E947F156EE170E0BE
:1032200080E090E00E94031265E672E180E00E9477
:103230007F156EE170E080E090E00E94031260E292
:1032400072E180E00E947F156EE170E080E090E026
:103250000E9403126AED71E180E00E947F156EE129
:1032600070E080E090E00E94031265E971E180E087
:103270000E947F156EE170E080E090E00E940312F2
:1032800060E471E180E00E947F156EE170E080E013
:1032900090E00E9403126FEE70E180E00E947F15C3
:1032A0006EE170E080E090E00E9403126EE970E150
:1032B00080E00E947F156EE170E080E090E00E9467
:1032C00003126BE370E180E00E947F156EE170E015
:1032D00080E090E00E94031266ED7FE080E00E94B3
:1032E0007F156EE170E080E090E00E94031264E7D9
:1032F0007FE080E00E947F156EE170E080E090E06A
:103300000E94031261E17FE080E00E947F156EE180
:1033100070E080E090E00E9403126EEA7EE080E0C0
:103320000E947F156EE170E080E090E00E94031241
:1033300066E47EE080E00E947F156EE170E080E050
:1033400090E00E9403126CED7DE080E00E947F150A
:103350006EE170E080E090E00E94031269E77DE09A
:1033600080E00E947F156EE170E080E090E00E94B6
:1033700003126FE07DE080E00E947F156EE170E057
:1033800080E090E00E9403126EEA7CE080E00E9400
:103390007F156EE170E080E090E00E9403126CE423
:1033A0007CE080E00E947F156EE170E080E090E0BC
:1033B0000E94031264EE7BE080E00E947F156EE1C4
:1033C00070E080E090E00E94031262E77BE080E022
:1033D0000E947F156EE170E080E090E00E94031291
:1033E00066E07BE080E00E947F156EE170E080E0A7
:1033F00090E00E94031262E97AE080E00E947F156B
:103400006EE170E080E090E00E9403126EE17AE0ED
:1034100080E00E947F156EE170E080E090E00E9405
:1034200003126AEA79E080E00E947F156EE170E0A5
:1034300080E090E00E94031263E379E080E00E9464
:103440007F156EE170E080E090E00E94031269EB6E
:1034500078E080E00E947F156EE170E080E090E00F
:103460000E94031262E478E080E00E947F156EE122
:1034700070E080E090E00E94031260EC77E080E072
:103480000E947F156EE170E080E090E00E940312E0
:103490006EE377E080E00E947F156EE170E080E0EF
:1034A00090E00E9403126CEB76E080E00E947F15B2
:1034B0006EE170E080E090E00E9403126AE376E043
:1034C00080E00E947F156EE170E080E090E00E9455
:1034D000031263EB75E080E00E947F156EE170E0FF
:1034E00080E090E00E9403126CE275E080E00E94B0
:1034F0007F156EE170E080E090E00E9403126CEABC
:1035000074E080E00E947F156EE170E080E090E062
:103510000E9403126CE274E080E00E947F156EE16D
:1035200070E080E090E00E94031267ED73E080E0BD
:103530000E947F156EE170E080E090E00E9403122F
:103540006BE773E081E00E947F156EE170E080E040
:1035500090E00E94031264E173E081E00E947F1515
:103560006EE170E080E090E00E94031268EC72E08F
:1035700081E00E947F156EE170E080E090E00E94A3
:10358000031262E472E081E00E947F156EE170E058
:1035900080E090E00E9403126BE372E080E0DF9134
:1035A000CF91FF90EF90DF90CF900C947F15CF9349
:1035B000DF930E94050D882359F181E080938F09E4
:1035C00080939009C0919109D091920961E273E0D2
:1035D000CE010E94942E892B01F581E08093FD0499
:1035E0008BE00E946A1580915A0290915B020E94C2
:1035F0002E150E94C4148CE00E946A1580915C0212
:1036000090915D020E942E15DF91CF910C94C4140D
:1036100010929009D0E0C0E0D9CF67E273E0CE010C
:103620000E94942E892B39F06CE273E0CE010E9447
:10363000942E892BC9F41092FD040E940E146FEF92
:1036400070E08DE00E94071170E060E08CE00E9465
:10365000071110925D0210925C0210925B021092B0
:103660005A02DF91CF91089566E173E0CE010E9486
:10367000942E892BB1F7DFCF0F931F93CF93DF9356
:10368000EC0188819981009759F02A813B812617A6
:10369000370730F081E0DF91CF911F910F910895AE
:1036A0008B016F5F7F4F0E949F2D009759F0998388
:1036B00088831B830A832C813D81232B59F7FC01CE
:1036C0001082E8CF80E0E7CFEF92FF920F931F9335
:1036D000CF93DF93EC017B01CB010E941F2A00975F
:1036E000A9F00C811D81080F191FB801CE010E949D
:1036F0003C1B882361F0288139818C819D81B70131
:10370000820F931F0E94182A1D830C8381E0DF9192
:10371000CF911F910F91FF90EF900895CF93DF937A
:10372000EC0188819981009711F00E94162D198271
:1037300018821D821C821B821A82DF91CF9108950C
:10374000EF92FF920F931F93CF93DF93EC017B01D6
:103750008A01BA010E943C1B81110BC0CE010E945C
:103760008E1BCE01DF91CF911F910F91FF90EF90B3
:1037700008951D830C83B701888199810E949D2E35
:10378000F0CFEF92FF920F931F93CF93DF93CDB7BC
:10379000DEB762970FB6F894DEBF0FBECDBF8C01C7
:1037A000CB01F801118210821382128215821482D9
:1037B0004AE09E012F5F3F4F7901B9010E94402AE4
:1037C000F70101900020E9F73197AF014E195F0929
:1037D000B701C8010E94A01B62960FB6F894DEBF25
:1037E0000FBECDBFDF91CF911F910F91FF90EF9052
:1037F0000895FB01DC0111961C921E9213961C92F7
:103800001E92129715961C921E9214978617970770
:1038100049F0608171816115710521F04481558104
:103820000C94A01B0895FC01118210821382128255
:1038300015821482FB0101900020E9F73197AF0156
:10384000461B570B0C94A01BFC01808191810097B3
:1038500011F00C94162D08950F931F93CF93DF93BF
:1038600000D000D0CDB7DEB78C0188E00E946A1589
:10387000B801CE0101960E94F91B8091450788236B
:10388000B9F06091990980919609909197090E94E9
:10389000411280919609909197094D815E816981CD
:1038A0007A81DC01ED91FC910280F381E02D199584
:1038B000CE0101960E94241C0E94C41426960FB6C5
:1038C000F894DEBF0FBECDBFDF91CF911F910F9156
:1038D00008958F929F92AF92BF92CF92DF92EF9214
:1038E000FF920F931F93CF93DF931F921F92CDB739
:1038F000DEB70E9498154B015C010E9498150E944A
:1039000098156B017C010E94050D882341F181E02F
:1039100080938F09809390090091910910919209E9
:1039200029EE821623E09206A104B10409F41BC11A
:10393000DCF4A8EE8A16A3E09A06A104B104F1F122
:103940000F900F90DF91CF911F910F91FF90EF900B
:10395000DF90CF90BF90AF909F908F90089510927E
:10396000900910E000E0DCCFBAEE8B16B3E09B06C6
:10397000A104B10409F462C1EBEE8E16E3E09E06E9
:10398000A104B104E9F6F2E0CF16D104E104F10498
:1039900009F09EC2D8018C91883719F0803209F065
:1039A000B9C1F80101900020E9F7CF010297801713
:1039B000910709F0AFC10E946E10C2CFF2E0CF169E
:1039C000D104E104F10409F0C8C0D8018C91883712
:1039D00011F0803261F4F80101900020E9F7CF0185
:1039E00002978017910719F40E949A10A9CF63E4F7
:1039F00073E0C8010E94942E892BA9F06DE373E057
:103A0000C8010E94942E892B71F067E373E0C8010E
:103A10000E94942E892B39F06EE373E0C8010E9456
:103A2000942E892BA9F46AE080E00E941B0F6AE0C3
:103A300081E00E941B0F6AE082E00E941B0F8091D0
:103A400093068E7F809393068FE00E94A70E78CF17
:103A50008091FC04813021F4C8010E94101470CFC1
:103A60006EE270E0C8010E94A42E0097C9F170E0D8
:103A700060E001960E946C286B017C0120E030E040
:103A8000A9010E94822A87FD27C020E030E046EC91
:103A900052E4C701B6010E942B2C1816ECF080915D
:103AA000A1068F778093A1068FE00E94A70E8091D8
:103AB000A10680648093A1068FE00E94A70E8091EA
:103AC0009306816080939306C701B6010E94F52B8F
:103AD000CB010E94300F34CFC12CD12C7601DFCF27
:103AE000BE016F5F7F4FC8010E946C286B017C0193
:103AF00020E030E0A9010E94822A87FD2AC020E050
:103B000030EC49E754E4C701B6010E942B2C18168B
:103B100004F1A981BA81FD0101900020E9F73197F4
:103B2000EA1BFB0B339708F097CF8091A1068068C2
:103B30008093A1068FE00E94A70E8091A1068F7B43
:103B40008093A1068FE00E94A70E809193068E7F3E
:103B5000B9CFC12CD12C7601DCCFCD28CE28CF28EF
:103B600009F0EECE41CFF2E0CF16D104E104F1042A
:103B700009F05EC0D8018C91883711F0803261F471
:103B8000F80101900020E9F7CF0102978017910713
:103B900019F40E948C0FD4CE6EE373E0C8010E942A
:103BA000942E892B69F46AE083E00E941B0F6AE07F
:103BB00084E00E941B0F6AE085E00E941B0FC0CECC
:103BC0008091FC04813021F4C8010E943414B8CEE5
:103BD000BE016F5F7F4FC8010E946C286B017C01A2
:103BE00020E030E0A9010E94822A87FD1DC020E06C
:103BF00030EC49E754E4C701B6010E942B2C18169B
:103C00009CF0A981BA81FD0101900020E9F731976C
:103C1000EA1BFB0B3397C0F6C701B6010E94F52BD8
:103C2000CB010E945E0F8CCEC12CD12C7601E9CF46
:103C3000CD28CE28CF2809F083CEABCFF2E0CF1627
:103C4000D104E104F10409F05FC0D8018C918837F8
:103C500011F0803261F4F80101900020E9F7CF0102
:103C600002978017910719F40E94081069CE6CE33F
:103C700073E0C8010E94942E892BA9F062E473E0DE
:103C8000C8010E94942E892B71F06DE373E0C80186
:103C90000E94942E892B39F06EE373E0C8010E94D4
:103CA000942E892B99F46AE086E00E941B0F6AE04B
:103CB00087E00E941B0F6AE088E00E941B0F6AE009
:103CC00089E00E941B0F6AE08AE077CF8091FC04B4
:103CD000813021F4C8010E94581432CEBE016F5FBA
:103CE0007F4FC8010E946C28A981BA81FD01019013
:103CF0000020E9F73197EA1BFB0B359758F70E9434
:103D0000FC2B0E94980F1CCECD28CE28CF2809F07E
:103D100017CEAACF6CE373E0C8010E94942E892BC2
:103D2000E1F062E473E0C8010E94942E892BA9F0AF
:103D30006DE373E0C8010E94942E892B71F067E354
:103D400073E0C8010E94942E892B39F06EE373E072
:103D5000C8010E94942E892BF1F48091A006816005
:103D60008093A00680919F068E7F80939F0680910E
:103D70009E068E7F80939E066AE08BE00E941B0F5A
:103D80006AE08CE00E941B0F6AE08DE00E941B0F2E
:103D90006AE08EE012CF8091FC04813021F4C801EA
:103DA0000E948A14CDCDBE016F5F7F4FC8010E9473
:103DB0006C286B017C01A981BA81FD010190002072
:103DC000E9F73197EA1BFB0B359708F07EC020E03E
:103DD00030E040E251EC0E942B2C18160CF06AC027
:103DE00020E030E040E251E4C701B6010E94822A9F
:103DF00087FF60C06EE270E0C8010E94892E892BA7
:103E000009F458C08EB1882341F06EE270E0C80119
:103E10000E94AF2E009709F061C070E060E0C80119
:103E20000E946C2821E02093A20620E030E040E2CE
:103E300051E40E94E82A0E94F52B862F2091A006CB
:103E400030919F0690919E0664368CF56D396CF129
:103E500067FF2EC081953E7F30939F06216020939F
:103E6000A006916090939E066AE00E94302C182F65
:103E7000692F8CE00E941B0F612F8BE00E941B0FAB
:103E800080919F06817080939F068091A00681702B
:103E90008093A0068DE00E94A70E8EE0D6CD819182
:103EA0008D93882309F4B9CFFACF8DE9D3CF83E678
:103EB0003160D2CF81E08093A206C701B6010E9493
:103EC000F52BCB010E941C103BCD1092A20667CFB0
:103ED000CD28CE28CF2809F033CD6DCDEEE2F0E02D
:103EE000DF010D900020E9F76D01BFE2CB1AD10888
:103EF0005C017C01EC0CFD1C6EE270E0C7010E94CD
:103F0000AF2EF701D501009751F25D01E817F907CF
:103F100080F721912D93F9CF1F920F920FB60F9238
:103F200011242F933F938F939F93AF93BF938091CF
:103F3000070590910805A0910905B0910A053091F7
:103F4000060523E0230F2D3758F50196A11DB11D5D
:103F5000209306058093070590930805A093090513
:103F6000B0930A0580910B0590910C05A0910D0569
:103F7000B0910E050196A11DB11D80930B05909384
:103F80000C05A0930D05B0930E05BF91AF919F91C5
:103F90008F913F912F910F900FBE0F901F9018950A
:103FA00026E8230F0296A11DB11DD2CF1F920F92BA
:103FB0000FB60F9211240BB60F922F933F934F938E
:103FC0005F936F937F938F939F93AF93BF93EF9381
:103FD000FF9388EA96E00E94EA12FF91EF91BF9169
:103FE000AF919F918F917F916F915F914F913F9191
:103FF0002F910F900BBE0F900FBE0F901F90189532
:104000001F920F920FB60F9211240BB60F922F939F
:104010008F939F93EF93FF93E091B806F091B906C9
:104020008081E091BE06F091BF0682FD1DC09081A7
:104030008091C1068F5F8F732091C206821741F075
:10404000E091C106F0E0E855F94F958F8093C106E5
:10405000FF91EF919F918F912F910F900BBE0F9039
:104060000FBE0F901F9018958081F2CFCF92DF92F4
:10407000EF92FF92CF93DF931092AB061092AA06B5
:1040800088EE93E0A0E0B0E08093AC069093AD069C
:10409000A093AE06B093AF0681EF92E09093A9068D
:1040A0008093A80685EC90E09093B5068093B406C3
:1040B00084EC90E09093B7068093B60680EC90E095
:1040C0009093B9068093B80681EC90E09093BB067C
:1040D0008093BA0682EC90E09093BD068093BC0674
:1040E00086EC90E09093BF068093BE061092C106C6
:1040F0001092C2061092C3061092C40610929C0938
:1041000010929B0988EA96E090939709809396090C
:1041100010924D078CE2809399098BE38093980964
:104120008FE280939A0980E4809348078FE380931D
:104130004907109247071092920910929109109224
:1041400094091092930981E080938F09EDE9F9E0D9
:1041500081E09AE0119211928E179F07D9F7109281
:104160004C078CE180936F068AE1809370068BE1A7
:104170008093710681E08093A20686E090E09093A0
:10418000A8058093A70568E473E089EA95E00E949A
:10419000131CCFEFDFEFD093B005C093AF0582E0E3
:1041A00090E09093B2058093B10568E573E083EBEE
:1041B00095E00E94131CD093BA05C093B90584E022
:1041C00090E09093BC058093BB0568E673E08DEBAF
:1041D00095E00E94131CD093C405C093C30588E0EA
:1041E00090E09093C6058093C50568E773E087EC7F
:1041F00095E00E94131CD093CE05C093CD0589E0B5
:1042000090E09093D0058093CF0569E873E081ED4D
:1042100095E00E94131CD093D805C093D7058AE07F
:1042200090E09093DA058093D9056BE973E08BED0C
:1042300095E00E94131CD093E205C093E105D09352
:10424000E405C093E3056CEA73E085EE95E00E9417
:10425000131CD093EC05C093EB05D093EE05C093EF
:10426000ED0564EC73E08FEE95E00E94131CD09393
:10427000F605C093F505D093F805C093F70569EDF1
:1042800073E089EF95E00E94131CD0930006C09361
:10429000FF05D0930206C093010669EE73E083E048
:1042A00096E00E94131CD0930A06C0930906D0938F
:1042B0000C06C0930B0669EF73E08DE096E00E9458
:1042C000131CD0931406C0931306D0931606C09304
:1042D00015066CE074E087E196E00E94131CD09311
:1042E0001E06C0931D06D0932006C0931F066FE1E3
:1042F00074E081E296E00E94131CD0932806C093DC
:104300002706D0932A06C093290661E374E08BE266
:1043100096E00E94131CD0933206C0933106D093CE
:104320003406C093330661E474E085E396E00E94AE
:10433000131CD0933C06C0933B06D0933E06C0931B
:104340003D0662E574E08FE396E00E94131CD09373
:104350004606C0934506D0934806C093470662E6DA
:1043600074E089E496E00E94131CD0935006C09339
:104370004F06D0935206C093510662E774E083E57E
:1043800096E00E94131CD0935A06C0935906D0930E
:104390005C06C0935B0665E874E08DE596E00E94DC
:1043A000131CD0936406C0936306D0936606C09333
:1043B000650664E974E087E696E00E94131CD093DA
:1043C0006E06C0936D0646E167E18CE995E00E94B8
:1043D000AA1342E163E181E995E00E94AA1344E255
:1043E00065E286E895E00E94AA1346E267E28BE761
:1043F00095E00E94AA138BE0ECE9F5E0AFE0B5E0B0
:1044000001900D928A95E1F764EA74E08AE195E003
:104410000E94131C89E1C82E8CEFD82EEE24EA945A
:10442000FE2CC0922005D0922105E0922205F09248
:10443000230564EB74E084E295E00E94131C8BE09A
:10444000E1E9F5E0AAE2B5E001900D928A95E1F785
:1044500061EC74E085E395E00E94131CC0923B057B
:10446000D0923C05E0923D05F0923E0564EB74E08D
:104470008FE395E00E94131C8BE0E6E8F5E0A5E4ED
:10448000B5E001900D928A95E1F761ED74E080E569
:1044900095E00E94131CC0925605D0925705E092F9
:1044A0005805F092590564EB74E08AE595E00E94A6
:1044B000131C8BE0EBE7F5E0A0E6B5E001900D9270
:1044C0008A95E1F761EE74E08BE695E00E94131C9B
:1044D000C0927105D0927205E0927305F092740556
:1044E00064EB74E085E795E0DF91CF91FF90EF906A
:1044F000DF90CF900C94131CCF93DF93CDB7DEB732
:1045000064970FB6F894DEBF0FBECDBF789484B524
:10451000826084BD84B5816084BD85B5826085BDBF
:1045200085B5816085BD80916E00816080936E004D
:10453000109281008091810082608093810080913F
:1045400081008160809381008091800081608093F0
:1045500080008091B10084608093B1008091B000B0
:1045600081608093B000809191008260809391007F
:104570008091910081608093910080919000816092
:10458000809390008091A10082608093A10080912F
:10459000A10081608093A1008091A0008160809340
:1045A000A0008091210182608093210180912101EE
:1045B000816080932101809120018160809320019E
:1045C00080917A00846080937A0080917A00826082
:1045D00080937A0080917A00816080937A00809144
:1045E0007A00806880937A001092C10061E08CE0CC
:1045F0000E94D61060915C0270915D028CE00E9476
:10460000071161E08DE00E94D61080915A029091CE
:104610005B026FEF70E0681B790B8DE00E94071161
:104620008CE18093A4068BE18093A5068AE18093B8
:10463000A60681E08093A30661E0809170060E9447
:10464000D61061E0809171060E94D61061E08091E1
:104650006F060E94D61061E080916F060E94E60D01
:1046600061E0809171060E94E60D61E08091700624
:104670000E94E60DE2E7F6E082E996E011928E17DD
:104680009F07E1F780E30E94430E82E50E94430EFC
:1046900082E00E94430E86E00E94430E10E024E078
:1046A00040E050E0BA01812F0E945C0E1F5F103283
:1046B000B1F7E2E9F6E080E1DF011D928A95E9F7C2
:1046C0000E94030F0E94030F0E94891084E190E072
:1046D0000E945E0F86E0E0EFF4E0DE0111960190AB
:1046E0000D928A95E1F7CE0101960E94581485E05B
:1046F000E6EFF4E0DE01179601900D928A95E1F75E
:10470000CE0107960E948A140E9435126093FE041F
:104710007093FF0480930005909301056093020558
:104720007093030580930405909305050AE512E054
:1047300070E0E72E72E0F72E62E0F70180810E94C0
:10474000D610F5E0EF0EF11C0E151F05A9F767EA6C
:10475000C62E65E0D62ED6018D919C9197FD03C0A3
:1047600061E00E94D610BAE0CB0ED11CE3EECE166B
:10477000E5E0DE0681F70E94F913E091B806F091BA
:10478000B90682E08083E091B406F091B50610820C
:10479000E091B606F091B70680E180831092C006E2
:1047A000E091BC06F091BD0686E08083E091BA06F8
:1047B000F091BB06808180618083E091BA06F09120
:1047C000BB06808188608083E091BA06F091BB06C9
:1047D000808180688083E091BA06F091BB06808179
:1047E0008F7D808363E278E183E00E947F158DE214
:1047F00097E190939E0980939D0987ED9AE19093AC
:10480000A2098093A10983E995E19093A40980937B
:10481000A3098DEA95E19093A8098093A70981EBFC
:1048200095E19093AA098093A90989E69CE1909368
:10483000AC098093AB0984EC96E19093B409809322
:10484000B30983EE96E19093B6098093B5098FEF93
:1048500096E19093B8098093B70983E297E190932A
:10486000BA098093B90907EA15E0D8018D919C91A6
:1048700097FD0EC061E00E94E60D69E170E080E006
:1048800090E00E94031260E0F80180810E94E60D32
:10489000065F1F4FC016D10641F766246A94712C3B
:1048A00044244A94512C3FE0A32E35E0B32ED12C62
:1048B000C12CD501ED91FD918081ED91FD9190810B
:1048C000ED91FD916C9163708E2309F064609F23DC
:1048D00009F06860E6E7F4E2E60FF11D659565957D
:1048E0006D936D917D918D919D91099423C01AC016
:1048F00012C016C010C01EC009C014C013C006C02C
:1049000019C009C00DC007C00DC014C0625070406E
:10491000804090400BC0615070408040904006C085
:104920006E5F01C06F5F7F4F8F4F9F4F9E938E933F
:104930007E936E93F50187819085A185B28522E0F3
:10494000B595A795979587952A95D1F7418952896D
:1049500063897489481759076A077B070CF010C1EF
:10496000818B928BA38BB48B8091FD04882371F093
:1049700088E00E946A15C6018854944F0E942E1543
:1049800081E090E00E942E150E94C414F2E0CF1640
:10499000D10409F0C1C08EE10E94BD0D892B09F040
:1049A00075C380915C0290915D0208968F3F9105DE
:1049B00009F02CF490935D0280935C0204C0509245
:1049C0005D0240925C0260915C0270915D028CE03D
:1049D0000E9407118091FD04882309F457C38CE0DD
:1049E0000E946A1580915C0290915D020E942E15D2
:1049F0000E94C4148FEFC81AD80A9BE1A90EB11CFB
:104A0000A4E0CA16D10409F054CF0E943512809058
:104A1000020590900305A0900405B0900505681963
:104A200079098A099B09653671058105910508F4A4
:104A300066C18091FD04882309F456C0E0E0CE2EC3
:104A4000E2E0DE2EF60180810E94BD0D5C01D60100
:104A500014968C911497082E000C990BA816B90681
:104A6000E1F1A114B10409F0D4C011966D917C91CB
:104A7000CE0101960E94C11BBE016F5F7F4FCE0128
:104A800007960E94F91B6BE378E1CE0107960E941E
:104A9000641B811104C0CE0107960E948E1BBE01CB
:104AA000695F7F4FCE010D960E94F91B80914507EB
:104AB000811104C0CE010D960E942C1CCE010D96D2
:104AC0000E94241CCE0107960E94241CCE01019650
:104AD0000E94241CD6011496AC92B5E0CB0ED11CDA
:104AE000EC14FD0409F0AECF8EE10E94BD0D892BC0
:104AF00009F0A5C088E20E94BD0D892B09F09FC076
:104B000080915C0290915D02892B09F4D0C01092D3
:104B10005D0210925C02D1C023E0C216D10409F0FC
:104B200069CF8EE10E94BD0D892B09F06ECF809177
:104B30005A0290915B0208968F3F910509F02CF480
:104B400090935B0280935A0204C050925B024092A1
:104B50005A0280915A0290915B02B301681B790B53
:104B60008DE00E9407118091FD04882309F44DCF48
:104B70008BE00E946A1580915A0290915B0236CFB9
:104B800084179507A607B7070CF034CF818B928B5B
:104B9000A38BB48B8091FD04882371F088E00E9480
:104BA0006A15C6018854944F0E942E158FEF9FEF0F
:104BB0000E942E150E94C414F2E0CF16D10491F485
:104BC0008EE10E94BD0D892B09F060C280915C02CC
:104BD00090915D02089797FFEDCE10925D021092C2
:104BE0005C02F1CE23E0C216D10409F003CF8EE1BE
:104BF0000E94BD0D892B09F008CF80915A02909137
:104C00005B02089797FF9CCF10925B0210925A02AA
:104C1000A0CFB1E0AB16B10409F05CCFF601618121
:104C20007281CE0101960E94C11BBE016F5F7F4F52
:104C3000CE0107960E94F91B68E378E126CF8EE14A
:104C40000E94BD0D892B09F439C18EE10E94BD0D72
:104C5000892B09F45CC18EE10E94BD0D892B09F0FE
:104C600044C08AE20E94BD0D892B09F03EC055E088
:104C7000C52ED12C60E870E08CE00E94071164E63C
:104C800070E080E090E00E94031270E060E08CE051
:104C90000E94071164E670E080E090E00E94031239
:104CA00021E0C21AD10831F70C9400001EC0E0E4E4
:104CB000F0E0F0935D02E0935C0260915C02709121
:104CC0005D028CE00E9407118CE00E946A158091C1
:104CD0005C0290915D020E942E150E94C41464EF44
:104CE00071E080E090E00E9403120E943512609310
:104CF00002057093030580930405909305050E94B7
:104D000035128090FE049090FF04A0900005B090B2
:104D10000105681979098A099B09613E7349844034
:104D2000910540F10E940E1447EAC42E45E0D42EAE
:104D3000F6018081918197FD03C060E00E94E60D3D
:104D4000FAE0CF0ED11CC016D10691F770E060E0FA
:104D50008CE00E9407116FEF70E08DE00E94071158
:104D60000E9435126093FE047093FF048093000547
:104D70009093010580914C0781117CC18091960927
:104D800090919709DC01ED91FC910084F185E02D73
:104D90001995892B09F46EC1809196099091970914
:104DA000DC01ED91FC910084F185E02D1995812CB9
:104DB00032E0932E8115924064F48091960990918F
:104DC0009709DC01ED91FC910084F185E02D1995A6
:104DD0004C01C0909609D09097092EE8222E27E02A
:104DE000322E3C8A2B8AB12CA12C8A149B0409F008
:104DF000FFC0D12CC12C8C149D0409F4BBCFD10170
:104E00009D911D0110928E0930919A0920914B07B6
:104E100090934B07931304C0921302C010924B0758
:104E200080914707E82FF0E040919809EB5BF84F3D
:104E3000941306C1321709F403C11186882329F09F
:104E4000B1E0B0938E0910924B0710924707109271
:104E50009209109291091092940910929309E1E03D
:104E6000E0938F09B0908E09F1E0BF12FFC00E945D
:104E7000050D882309F4EEC0B0928F09B092900915
:104E800080919109909192090E94CA2980934607C6
:104E9000823308F0E4C020919009222309F4DFC096
:104EA000FC01FF27EE0FFF1FE356F64F0190F08144
:104EB000E02D309709F4D3C01995D8C083E30E9440
:104EC000BD0D892B09F0C1CE80915A0290915B02F1
:104ED000892BC1F480E890E090935B0280935A02A2
:104EE00080915A0290915B02B301681B790B8DE0AF
:104EF0000E9407118BE00E946A1580915A029091DE
:104F00005B02E9CE10925B0210925A02E9CF8FE069
:104F10000E94BD0D892B09F09ECE88E793E00E9488
:104F2000300F88E793E00E945E0F68E37BE581E045
:104F300090E00E94980F88EB92E20E941C1077EAA2
:104F4000C72E75E0D72ED6018D919C9197FD09C093
:104F500061E00E94E60D62E370E080E090E00E9474
:104F60000312BAE0CB0ED11C0C151D0561F70E948F
:104F7000891084E190E00E945E0F86E0E0EFF4E0AB
:104F8000DE01119601900D928A95E1F7CE0101960E
:104F90000E94581485E0E6EFF4E0DE0117960190D8
:104FA0000D928A95E1F7CE0107960E948A1460ED72
:104FB00077E080E090E00E94031267EAC62E65E089
:104FC000D62EF6018081918197FD09C060E00E9494
:104FD000E60D62E370E080E090E00E940312FAE0E8
:104FE000CF0ED11C0C151D0561F70E940E147DCE4D
:104FF0000E943512D60118966D937D938D939C93E4
:105000001B97D601ED91FC910284F385E02DC6013A
:10501000199597FF32C00E943512F601208531851F
:1050200042855385621B730B840B950B248135815C
:1050300046815781621773078407950710F3D9CE0D
:1050400091878F5F8093470790914907891708F0F0
:10505000FCCE08CF1092900990E080E017CFE0914D
:105060009B09F0919C09309709F026CF2FEFC21AC7
:10507000D20AC1CE0E94791316CCAB89BC898D931C
:10508000BC8BAB8BBFEFAB1ABB0AAFCE83E0C82E95
:10509000D12CEBE1AE0EB11C0CCCCF93DF93CBE760
:1050A000D5E06B97CE0145960E94241CCE010B964D
:1050B0000E94241C85E0CF30D80799F7CFE6D6E0D0
:1050C0002A97CE0102960E94241C85E0C73AD80791
:1050D000B9F7DF91CF9108958F929F92AF92BF92CF
:1050E000CF92DF92EF92FF920F931F93CF93DF93B4
:1050F0005C017B016115710519F0DB018D939C93B7
:1051000085010F5F1F4FF501D0818D2F90E00E9428
:105110000F2A6C01892BB9F5DD32B9F50F5F1F4FEE
:10512000D5011196DC91C1E05801F1E0AF1AB10848
:1051300043E050E068EF71E0C5010E94282A892B06
:1051400069F5680182E0C80ED11C45E050E063EFCC
:1051500071E0C6010E94282A892B21F4680197E09A
:10516000C90ED11CE114F10419F0D701CD92DC92E3
:1051700060E070E080E89FEFC111FFC060E070E088
:1051800080E89FE7FAC05801BBCFDB3229F48501E4
:105190000E5F1F4FF501D181C0E0C6CF43E050E064
:1051A00060EF71E0C5010E94282A892BE9F0F8011F
:1051B00010E000E020E030E0A9015F01B0ED8B2EAF
:1051C0008D0E89E08815C8F19C2E689491F88C2F7B
:1051D0008870C2FF16C0811102C00F5F1F4F319649
:1051E000D501DC91C92DE9CFE114F10429F00E5F5E
:1051F0001F4FF7011183008360E070E080EC9FE7B0
:10520000BCC0882311F001501109A5E0B0E00E9454
:10521000DB2B9B01AC01220F331F441F551F280DB0
:10522000311D411D511D283999E93907490799E177
:105230005907A8F2C6609C2ED2CFAEEF8A1206C0E4
:10524000C3FD3CC09C2E689493F8C9CFDF7DD53454
:10525000A9F580818D3239F4C061DF011296818118
:1052600062E070E006C0DF018B32C1F3119661E0AD
:1052700070E080535D01A61AB70A8A30F8F4E0E8BE
:10528000CE16ECE0DE065CF4B601660F771F660F03
:10529000771FC60ED71ECC0CDD1CC80ED11C5D01BD
:1052A000FFEFAF1ABF0A8C9180538A30A8F1C4FF78
:1052B00003C0D194C194D1080C0D1D1DC1FF09C0BC
:1052C000E114F10431F081E0A81AB108D701AD92E0
:1052D000BC92CA01B9010E94872AC370C33009F485
:1052E00090584B015C0120E030E0A9010E94822A25
:1052F000882309F440C0C7E2D2E017FF05C011952A
:1053000001951109CFE0D2E06E01B8E1CB1AD108C6
:1053100080E2E82EF12C0FC0D501B1CFFE0125911E
:105320003591459154910E191F09C501B4010E9490
:10533000E82A4B015C01D501C4010E151F0574F765
:105340002497F594E794CC16DD06A9F78A2F880FE9
:105350008B2F881F8F3F49F020E030E0A901C50165
:10536000B4010E94822A811106C082E290E09093EB
:10537000020A8093010AC501B401DF91CF911F9108
:105380000F91FF90EF90DF90CF90BF90AF909F90E4
:105390008F900895FC0188279927E8942191203265
:1053A000E9F3293010F02E30C8F32B3241F02D32C2
:1053B00039F4689404C00E94602A820F911D2191E3
:1053C00020532A30C0F31EF4909581959F4F089585
:1053D0001F93FC0199278827BC01E8941191103292
:1053E000E9F3193010F01E30C8F31B3251F01D32B2
:1053F00049F4689406C00E944B2A610F711D811DFB
:10540000911D119110531A30B0F33EF49095809590
:10541000709561957F4F8F4F9F4F1F910895911108
:105420000C94552B803219F089508550C8F7089597
:10543000FB01DC0105900D920020E1F70895FC01CD
:1054400005900020E9F7809590958E0F9F1F089595
:10545000FB01DC014150504088F08D9181341CF0FB
:105460008B350CF4805E659161341CF06B350CF467
:10547000605E861B611171F3990B0895881BFCCF48
:10548000BB274A3031F4992322F4BDE290958195EF
:105490009F4F0C94692A592F482F372F262F660FBC
:1054A000771F881F991F660F771F881F991F620F2C
:1054B000731F841F951F660F771F881F991F0895FC
:1054C0007AE0979F902D879F802D910D112408954C
:1054D000BB27FB015527AA27880F991FAA1FA417CE
:1054E00010F0A41B83955051B9F7A05DAA3308F0C2
:1054F000A95DA193009779F7B111B1931192CB01F6
:105500000C94582B0E94C42A08F481E00895E89472
:1055100009C097FB3EF490958095709561957F4FFB
:105520008F4F9F4F9923A9F0F92F96E9BB279395A9
:10553000F695879577956795B795F111F8CFFAF4B9
:10554000BB0F11F460FF1BC06F5F7F4F8F4F9F4FEA
:1055500016C0882311F096E911C0772321F09EE848
:10556000872F762F05C0662371F096E8862F70E0AE
:1055700060E02AF09A95660F771F881FDAF7880F88
:105580009695879597F90895990F0008550FAA0BDE
:10559000E0E8FEEF16161706E807F907C0F0121646
:1055A0001306E407F50798F0621B730B840B950B49
:1055B00039F40A2661F0232B242B252B21F408959E
:1055C0000A2609F4A140A6958FEF811D811D08953B
:1055D0000E94FB2A0C947F2B0E94712B38F00E94B2
:1055E000782B20F0952311F00C94682B0C946E2BE3
:1055F00011240C94B32B0E94902B70F3959FC1F350
:10560000950F50E0551F629FF001729FBB27F00D70
:10561000B11D639FAA27F00DB11DAA1F649F6627C5
:10562000B00DA11D661F829F2227B00DA11D621F14
:10563000739FB00DA11D621F839FA00D611D221FCE
:10564000749F3327A00D611D231F849F600D211DB2
:10565000822F762F6A2F11249F5750409AF0F1F035
:1056600088234AF0EE0FFF1FBB1F661F771F881F9E
:1056700091505040A9F79E3F510580F00C94682B43
:105680000C94B32B5F3FE4F3983ED4F38695779563
:105690006795B795F795E7959F5FC1F7FE2B880F44
:1056A000911D9695879597F90895992788270895CC
:1056B000DC01FC01672F71917723E1F7329704C079
:1056C0007C916D9370836291AE17BF07C8F3089504
:1056D00097F99F6780E870E060E008959FEF80ECA5
:1056E000089500240A941616170618060906089548
:1056F00000240A9412161306140605060895092EAE
:105700000394000C11F4882352F0BB0F40F4BF2B1C
:1057100011F460FF04C06F5F7F4F8F4F9F4F08955C
:1057200057FD9058440F551F59F05F3F71F0479552
:10573000880F97FB991F61F09F3F79F08795089537
:10574000121613061406551FF2CF4695F1DF08C056
:10575000161617061806991FF1CF86957105610573
:1057600008940895E894BB2766277727CB0197F91B
:105770000895A1E21A2EAA1BBB1BFD010DC0AA1F92
:10578000BB1FEE1FFF1FA217B307E407F50720F0AA
:10579000A21BB30BE40BF50B661F771F881F991F25
:1057A0001A9469F760957095809590959B01AC016E
:1057B000BD01CF0108950E94E62BA59F900DB49FD7
:1057C000900DA49F800D911D11240895A29FB001FA
:1057D000B39FC001A39F700D811D1124911DB29F25
:1057E000700D811D1124911D08950E94FC2B689459
:1057F000B1110C94B32B08950E94982B88F09F57F9
:1058000098F0B92F9927B751B0F0E1F0660F771FE4
:10581000881F991F1AF0BA95C9F714C0B13091F0DA
:105820000E94B22BB1E008950C94B22B672F782F11
:105830008827B85F39F0B93FCCF38695779567959F
:10584000B395D9F73EF490958095709561957F4F0B
:105850008F4F9F4F08950E94C42A08F48FEF089538
:1058600087FB082E062687FD819567FD61950E94BE
:105870006E2C0EF4919507FC81950895AA1BBB1B15
:1058800051E107C0AA1FBB1FA617B70710F0A61B40
:10589000B70B881F991F5A95A9F780959095BC0161
:1058A000CD01089597FB072E16F4009407D077FDDD
:1058B00009D00E943E2C07FC05D03EF490958195BE
:1058C0009F4F0895709561957F4F0895EE0FFF1FCC
:1058D000881F8BBF0790F691E02D1994991B79E0F2
:1058E00004C0991F961708F0961B881F7A95C9F770
:1058F000809508950F931F93CF93DF938230910586
:1059000010F482E090E0E091050AF091060A30E0A0
:1059100020E0B0E0A0E0309799F42115310509F4BA
:105920004AC0281B390B24303105D8F58A819B8168
:105930006115710589F1FB0193838283FE0111C01A
:10594000408151810281138148175907E0F04817BF
:10595000590799F4109761F012960C9312971396C9
:105960001C933296CF01DF91CF911F910F91089533
:105970000093050A1093060AF4CF2115310551F062
:105980004217530738F0A901DB019A01BD01DF017D
:10599000F801C1CFEF01F9CF9093060A8093050A71
:1059A000CDCFFE01E20FF31F819391932250310975
:1059B00039832883D7CF2091030A3091040A232BFF
:1059C00041F420916002309161023093040A2093E7
:1059D000030A20915E0230915F022115310541F4E6
:1059E0002DB73EB74091620250916302241B350BE4
:1059F000E091030AF091040AE217F307A0F42E1BCA
:105A00003F0B2817390778F0AC014E5F5F4F241722
:105A1000350748F04E0F5F1F5093040A4093030A66
:105A2000819391939FCFF0E0E0E09CCFCF93DF9301
:105A30000097E9F0FC01329713821282A091050AC7
:105A4000B091060AED0130E020E01097A1F420812A
:105A50003181820F931F2091030A3091040A281785
:105A6000390709F061C0F093040AE093030ADF915B
:105A7000CF910895EA01CE17DF07E8F54A815B81EF
:105A80009E0141155105B1F7E901FB83EA83499174
:105A90005991C40FD51FEC17FD0761F480819181E6
:105AA0000296840F951FE9019983888382819381EF
:105AB0009B838A83F0E0E0E012968D919C9113978E
:105AC0000097B9F52D913C911197CD010296820F67
:105AD000931F2091030A3091040A2817390739F6D9
