:100000000C94B10C0C94E20C0C94E20C0C94E20CE9
:100010000C94E20C0C94E20C0C94E20C0C94E20CA8
:100020000C94E20C0C94E20C0C94E20C0C94E20C98
:100030000C94E20C0C94E20C0C94E20C0C94E20C88
:100040000C94E20C0C94E20C0C94E20C0C94E20C78
:100050000C94E20C0C94E20C0C94E20C0C94701FC7
:100060000C94E20C0C94E41F0C94BA1F0C94E20C58
:100070000C94E20C0C94E20C0C94E20C0C94E20C48
:100080000C94E20C0C94E20C0C94E20C0C94E20C38
:100090000C94E20C0C94E20C0C94E20C0C94E20C28
:1000A0000C94E20C0C94E20C0C94E20C0C94E20C18
:1000B0000C94E20C0C94E20C0C94E20C0C94E20C08
:1000C0000C94E20C0C94E20C0C94E20C0C94E20CF8
:1000D0000C94E20C0C94E20C0C94E20C0C94E20CE8
:1000E0000C94E20C0C9459130C94AB160C94461619
:1000F0000C948F0D0C94B50D0C94AD150C949D0DB6
:100100000C94A0160C94B3160C9429280C94D71AAE
:100110000C94740D0C94C5110C94B90D0C943F11F2
:100120000C94FC150C9447110C94D9110C947E0D71
:100130000C944C110C9476120C9493150C9420167C
:100140000C94B2120C9472110C94C4160C947A1183
:100150000C94990D0C94BB110C9471160C94B40D65
:100160000C94AB0D0C9498110C94C6120C94D412F0
:100170000C946A110C94B1110C94CF110C94B1151C
:100180000C943A160C9460110C942D160C94A70D37
:100190000C94E3160C947A0D0C942D170C94820D8C
:1001A0000C9463160C940C130C94860D0C94890D0E
:1001B0000C94A3120C94A7110C94691C0C94561166
:1001C0000C9484110C94930D0C948E110C940E16B7
:1001D0000C941A200C9482160C9423170C94FF167E
:1001E0000C9493160C94A10D0C94AF0D0C94521614
:1001F0004E414E494E495459494E46CDCCCC3D0A0C
:10020000D7233C17B7D13877CC2B329595E6241FEE
:10021000B14F0A000020410000C84200401C4620A7
:10022000BCBE4CCA1B0E5AAEC59D74554E4B4E4FAC
:10023000574E20434F4D4D414E4400434F4E46498B
:1002400047004144442C31342C4558504552545FAA
:100250004D4F44452C55382C52572C4578706572BB
:1002600074204D6F64652C536F6D65204C434420A2
:10027000646973706C617920656C656D656E74730B
:100280002077696C6C206E65656420746F206265F0
:10029000206D616E75616C6C79206D616E61676552
:1002A00064207768656E2073657420746F20312038
:1002B000286465666175742069732030292C504567
:1002C00052534953543D31004144442C31332C5650
:1002D00049525455414C5F504F5745522C55382C7C
:1002E00052572C5669727475616C20506F77657225
:1002F0002C415443207669727475616C20706F775D
:1003000065722030206F7220312C50455253495372
:10031000543D31004144442C31322C4241434B4C3A
:10032000494748545F4252492C55382C52572C4269
:1003300061636B6C69676874204272696768746E88
:100340006573732C4154432070616E656C2062614B
:10035000636B6C69676874206272696768746E6544
:1003600073732066726F6D203020746F20323535C4
:100370002C504552534953543D31004144442C3193
:10038000312C444953504C41595F4252492C553805
:100390002C52572C446973706C61797320427269D6
:1003A0006768746E6573732C4C4344206469737082
:1003B0006C6179206272696768746E657373206618
:1003C000726F6D203020746F203235352C504552BD
:1003D000534953543D3100494E5055542C302C4311
:1003E0004F4E4649475552455F50414E454C5F532D
:1003F00054415455532C53595354454D2C5350414B
:10040000445F5649525455414C5F504F5745522C0A
:1004100055495F545950453D332C435553544F4D26
:100420005F545950453D504F57455200494E505525
:10043000542C323130372C495F474C4152455F468E
:1004400043555F56535F50554C4C2C5055534842C2
:100450005554544F4E2C535041445F53494D504CCA
:1004600045425554544F4E2C48494444454E3D3125
:100470002C524F555445544F3D455F474C415245D2
:100480005F4643555F56532C524F555445544F2E9B
:1004900050524553533D50554C4C2C524F5554459A
:1004A000544F2E52454C454153453D00494E505501
:1004B000542C323130362C495F474C4152455F460F
:1004C00043555F56535F505553482C50555348423F
:1004D0005554544F4E2C535041445F53494D504C4A
:1004E00045425554544F4E2C48494444454E3D31A5
:1004F0002C524F555445544F3D455F474C41524552
:100500005F4643555F56532C524F555445544F2E1A
:1005100050524553533D505553482C524F55544516
:10052000544F2E52454C454153453D00494E505580
:10053000542C323130352C495F474C4152455F468F
:1005400043555F414C545F50554C4C2C50555348CB
:10055000425554544F4E2C535041445F53494D50D3
:100560004C45425554544F4E2C48494444454E3D09
:10057000312C524F555445544F3D455F474C4152E5
:10058000455F4643555F414C5449545544452C52B0
:100590004F555445544F2E50524553533D50554C92
:1005A0004C2C524F555445544F2E52454C454153B7
:1005B000453D00494E5055542C323130342C495F62
:1005C000474C4152455F4643555F414C545F50553F
:1005D00053482C50555348425554544F4E2C535069
:1005E00041445F53494D504C45425554544F4E2C55
:1005F00048494444454E3D312C524F555445544F83
:100600003D455F474C4152455F4643555F414C5421
:1006100049545544452C524F555445544F2E505231
:100620004553533D505553482C524F555445544F04
:100630002E52454C454153453D00494E5055542C92
:10064000323130332C495F474C4152455F46435568
:100650005F4844475F50554C4C2C505553484255C9
:1006600054544F4E2C535041445F53494D504C45C8
:10067000425554544F4E2C48494444454E3D312C2C
:10068000524F555445544F3D455F474C4152455F8D
:100690004643555F4844472C524F555445544F2EBE
:1006A00050524553533D50554C4C2C524F55544588
:1006B000544F2E52454C454153453D00494E5055EF
:1006C000542C323130322C495F474C4152455F4601
:1006D00043555F4844475F505553482C5055534845
:1006E000425554544F4E2C535041445F53494D5042
:1006F0004C45425554544F4E2C48494444454E3D78
:10070000312C524F555445544F3D455F474C415253
:10071000455F4643555F4844472C524F5554455416
:100720004F2E50524553533D505553482C524F5520
:100730005445544F2E52454C454153453D00494E7A
:100740005055542C323130312C495F474C41524581
:100750005F4643555F5350445F50554C4C2C5055A9
:100760005348425554544F4E2C535041445F5349C3
:100770004D504C45425554544F4E2C4849444445E5
:100780004E3D312C524F555445544F3D455F474CDB
:100790004152455F4643555F5350442C524F555488
:1007A00045544F2E50524553533D50554C4C2C52AE
:1007B0004F555445544F2E52454C454153453D00ED
:1007C000494E5055542C323130302C495F474C4102
:1007D00052455F4643555F5350445F505553482C34
:1007E00050555348425554544F4E2C535041445F3A
:1007F00053494D504C45425554544F4E2C48494452
:1008000044454E3D312C524F555445544F3D455F64
:10081000474C4152455F4643555F5350442C524F1D
:10082000555445544F2E50524553533D50555348FF
:100830002C524F555445544F2E52454C454153452B
:100840003D00494E5055542C323030382C495F47CA
:100850004C4152455F4643555F415050522C5055D4
:100860005348425554544F4E2C535041445F5055B9
:100870005348425554544F4E2C55495F5459504596
:100880003D322C55495F5354594C453D302C4C4119
:1008900042454C3D415050522C4F524445523D31FF
:1008A0003130352C4C45443D4C5F474C4152455FFF
:1008B0004643555F4150505200494E5055542C32DA
:1008C0003030372C495F474C4152455F4643555FB6
:1008D00045585045442C50555348425554544F4E5A
:1008E0002C535041445F50555348425554544F4E39
:1008F0002C55495F545950453D322C55495F53544E
:10090000594C453D302C4C4142454C3D4558504595
:10091000442C4F524445523D313130342C4C4544E7
:100920003D4C5F474C4152455F4643555F455850EB
:10093000454400494E5055542C323030362C495FD6
:10094000474C4152455F4643555F415448522C50F5
:10095000555348425554544F4E2C535041445F50C8
:10096000555348425554544F4E2C55495F54595095
:10097000453D322C55495F5354594C453D302C4C24
:100980004142454C3D415448522C4F524445523D02
:10099000313130332C4C45443D4C5F474C4152453E
:1009A0005F4643555F4154485200494E5055542CC0
:1009B000323030352C495F474C4152455F464355F4
:1009C0005F4150322C50555348425554544F4E2C91
:1009D000535041445F50555348425554544F4E2C48
:1009E00055495F545950453D322C55495F53545930
:1009F0004C453D302C4C4142454C3D4150322C4FF2
:100A0000524445523D313130322C4C45443D4C5FCF
:100A1000474C4152455F4643555F41503200494E75
:100A20005055542C323030342C495F474C4152459C
:100A30005F4643555F4150312C5055534842555401
:100A4000544F4E2C535041445F50555348425554D7
:100A5000544F4E2C55495F545950453D322C554901
:100A60005F5354594C453D302C4C4142454C3D411F
:100A700050312C4F524445523D313130312C4C4590
:100A8000443D4C5F474C4152455F4643555F4150A2
:100A90003100494E5055542C323030332C495F4789
:100AA0004C4152455F4643555F4C4F432C50555384
:100AB00048425554544F4E2C535041445F50555367
:100AC00048425554544F4E2C55495F545950453D5A
:100AD000322C55495F5354594C453D302C4C4142C2
:100AE000454C3D4C4F432C4F524445523D313130E3
:100AF000302C4C45443D4C5F474C4152455F46438A
:100B0000555F4C4F4300494E5055542C32303032D3
:100B10002C495F474C4152455F4643555F4D455414
:100B2000524943414C542C50555348425554544F0C
:100B30004E2C535041445F50555348425554544FE6
:100B40004E2C55495F545950453D322C55495F460E
:100B50004143453D312C4C4142454C3D4D4554525D
:100B6000494320414C542C4F524445523D31303082
:100B70003500494E5055542C323030312C495F47A6
:100B80004C4152455F4643555F4844475653545283
:100B90004B4650412C50555348425554544F4E2CBF
:100BA000535041445F50555348425554544F4E2C76
:100BB00055495F545950453D322C55495F46414394
:100BC000453D312C4C4142454C3D4844472D545203
:100BD0004B2056532D4650412C4F524445523D31E7
:100BE00030303300494E5055542C323030302C497F
:100BF0005F474C4152455F4643555F5350444D411A
:100C000043482C50555348425554544F4E2C535042
:100C100041445F50555348425554544F4E2C55490A
:100C20005F545950453D322C55495F464143453D3F
:100C3000312C4C4142454C3D535044204D4143489A
:100C40002C4F524445523D31303030004F555450B6
:100C500055542C382C4C5F474C4152455F46435508
:100C60005F4650412C4C45442C535041445F4C4509
:100C7000442C55495F464143453D312C4E4F5F4C16
:100C80004142454C3D312C4C4142454C3D46504142
:100C90002C464F524547524F554E443D23464642FF
:100CA0004630302C4F524445523D323130004F5582
:100CB000545055542C31382C4C5F474C4152455FB1
:100CC0004643555F56532C4C45442C535041445F8A
:100CD0004C45442C55495F464143453D312C4E4FD0
:100CE0005F4C4142454C3D312C4C4142454C3D56B8
:100CF000532C464F524547524F554E443D2346468E
:100D0000424630302C4F524445523D323039004F2C
:100D100055545055542C372C4C5F474C4152455F2D
:100D20004643555F414C544C564C43482C4C45442B
:100D30002C535041445F4C45442C55495F46414338
:100D4000453D312C4E4F5F4C4142454C3D312C4C82
:100D50004142454C3D4C564C2043482C464F524551
:100D600047524F554E443D234646424630302C4F65
:100D7000524445523D323038004F55545055542C52
:100D800031392C4C5F474C4152455F4643555F41DA
:100D90004C542C4C45442C535041445F4C45442CFE
:100DA00055495F464143453D312C4E4F5F4C4142D2
:100DB000454C3D312C4C4142454C3D414C542C4618
:100DC0004F524547524F554E443D234646424630CA
:100DD000302C4F524445523D323037004F5554501D
:100DE00055542C31372C4C5F474C4152455F46439C
:100DF000555F54524B4650412C4C45442C53504166
:100E0000445F4C45442C55495F464143453D312C98
:100E10004E4F5F4C4142454C3D312C4C4142454C7C
:100E20003D54524B2D4650412C464F524547524F50
:100E3000554E443D234646424630302C4F524445A1
:100E4000523D323036004F55545055542C31322CCF
:100E50004C5F474C4152455F4643555F48444756B7
:100E6000532C4C45442C535041445F4C45442C5525
:100E7000495F464143453D312C4E4F5F4C41424511
:100E80004C3D312C4C4142454C3D4844472D565336
:100E90002C464F524547524F554E443D23464642FD
:100EA0004630302C4F524445523D323035004F557C
:100EB000545055542C31332C4C5F474C4152455FB4
:100EC0004643555F4C41542C4C45442C53504144AF
:100ED0005F4C45442C55495F464143453D312C4EBE
:100EE0004F5F4C4142454C3D312C4C4142454C3DBD
:100EF0004C41542C464F524547524F554E443D238A
:100F00004646424630302C4F524445523D323034F2
:100F1000004F55545055542C31362C4C5F474C41A2
:100F200052455F4643555F54524B2C4C45442C531D
:100F30005041445F4C45442C55495F464143453D33
:100F4000312C4E4F5F4C4142454C3D312C4C41427F
:100F5000454C3D54524B2C464F524547524F554EEF
:100F6000443D234646424630302C4F524445523D84
:100F7000323033004F55545055542C392C4C5F4768
:100F80004C4152455F4643555F4844472C4C4544CD
:100F90002C535041445F4C45442C55495F464143D6
:100FA000453D312C4E4F5F4C4142454C3D312C4C20
:100FB0004142454C3D4844472C464F524547524FCD
:100FC000554E443D234646424630302C4F52444510
:100FD000523D323032004F55545055542C31342C40
:100FE0004C5F474C4152455F4643555F4D41434836
:100FF0002C4C45442C535041445F4C45442C55499E
:101000005F464143453D312C4E4F5F4C4142454C7C
:101010003D312C4C4142454C3D4D4143482C464FBF
:10102000524547524F554E443D2346464246303086
:101030002C4F524445523D323031004F555450559B
:10104000542C31352C4C5F474C4152455F4643553B
:101050005F5350442C4C45442C535041445F4C4505
:10106000442C55495F464143453D312C4E4F5F4C22
:101070004142454C3D312C4C4142454C3D5350443E
:101080002C464F524547524F554E443D234646420B
:101090004630302C4F524445523D323030004F558F
:1010A000545055542C31312C4C5F474C4152455FC4
:1010B0004643555F414C54444F542C4C45442C53AB
:1010C0005041445F4C45442C55495F464143453DA2
:1010D000302C4E4F5F4C4142454C3D312C4C4142EF
:1010E000454C3D414C542C4F524445523D36004FE7
:1010F00055545055542C31302C4C5F474C4152457F
:101100005F4643555F484447444F542C4C45442C5C
:10111000535041445F4C45442C55495F464143453B
:101120003D302C4E4F5F4C4142454C3D312C4C41A3
:1011300042454C3D4844472C4F524445523D3400B3
:101140004F55545055542C362C4C5F474C4152450A
:101150005F4643555F4149525350454544444F54BF
:101160002C4C45442C535041445F4C45442C55492C
:101170005F464143453D302C4E4F5F4C4142454C0C
:101180003D312C4C4142454C3D5350442C4F524430
:1011900045523D32004F55545055542C352C4C5F20
:1011A000474C4152455F4643555F415050522C4C8D
:1011B00045442C535041445F4C45442C55495F46AF
:1011C0004143453D302C4E4F5F4C4142454C3D31F3
:1011D0002C48494444454E3D31004F5554505554D8
:1011E0002C342C4C5F474C4152455F4643555F457C
:1011F000585045442C4C45442C535041445F4C4579
:10120000442C55495F464143453D302C4E4F5F4C81
:101210004142454C3D312C48494444454E3D310006
:101220004F55545055542C332C4C5F474C4152452C
:101230005F4643555F415448522C4C45442C535013
:1012400041445F4C45442C55495F464143453D3040
:101250002C4E4F5F4C4142454C3D312C4849444453
:10126000454E3D31004F55545055542C322C4C5F57
:10127000474C4152455F4643555F4150322C4C45E7
:10128000442C535041445F4C45442C55495F4641E2
:1012900043453D302C4E4F5F4C4142454C3D312C37
:1012A00048494444454E3D31004F55545055542C07
:1012B000312C4C5F474C4152455F4643555F41508E
:1012C000312C4C45442C535041445F4C45442C55E3
:1012D000495F464143453D302C4E4F5F4C414245AE
:1012E0004C3D312C48494444454E3D31004F555406
:1012F0005055542C302C4C5F474C4152455F46436F
:10130000555F4C4F432C4C45442C535041445F4C4B
:1013100045442C55495F464143453D302C4E4F5F77
:101320004C4142454C3D312C48494444454E3D31A9
:1013300000494E5055542C323230302C495F474CC6
:101340004152455F4643555F414C545F4348414ECF
:1013500047452C5357495443482C535041445F53FD
:1013600057495443482C48494444454E3D312C523A
:101370004F555445544F3D455F474C4152455F469C
:1013800043555F414C5449545544452C524F555494
:1013900045544F2E4F4E3D414C54495455444543BE
:1013A00048414E4745313030302C524F555445540A
:1013B0004F2E4F46463D414C5449545544454348B1
:1013C000414E474531303000494E5055542C333052
:1013D00030332C455F474C4152455F4643555F567D
:1013E000532C454E434F4445522C535041445F4586
:1013F0004E434F4445525F4143432C535041445F59
:101400005055534850554C4C2C4C4142454C3D5640
:10141000532C4F524445523D3130303600494E50E6
:1014200055542C333030322C455F474C4152455F88
:101430004643555F414C5449545544452C454E4311
:101440004F4445522C535041445F454E434F444511
:10145000525F4143432C535041445F5055534850D1
:10146000554C4C2C535041445F5357495443482CDE
:101470004C4142454C3D414C542C4F524445523D09
:101480003130303400494E5055542C333030312CEB
:10149000455F474C4152455F4643555F4844472CA2
:1014A000454E434F4445522C535041445F454E43B3
:1014B0004F4445525F4143432C535041445F505584
:1014C000534850554C4C2C4C4142454C3D484447A8
:1014D0002C4F524445523D3130303200494E505528
:1014E000542C333030302C455F474C4152455F46D9
:1014F00043555F5350442C454E434F4445522C5363
:101500005041445F454E434F4445525F4143432C55
:10151000535041445F5055534850554C4C2C4C410E
:1015200042454C3D5350442C4F524445523D31307E
:101530003031004F55545055542C313030332C44F9
:101540005F474C4152455F4643555F56532C4449D3
:1015500053504C41592C535041445F444953504CD3
:1015600041592C4C4142454C3D56532C4C454E471D
:1015700054483D352C524F573D312C57494454481F
:101580003D39302C4845494748543D33342C464F6B
:10159000524547524F554E443D2346464246303011
:1015A0002C4F524445523D372C464F4E5453495AC6
:1015B000453D3336004F55545055542C3130303260
:1015C0002C445F474C4152455F4643555F414C5464
:1015D0002C444953504C41592C535041445F444989
:1015E00053504C41592C4C4142454C3D414C542C9C
:1015F0004C454E4754483D352C524F573D312C57A2
:10160000494454483D39302C4845494748543D33B6
:10161000342C464F524547524F554E443D23464683
:10162000424630302C4F524445523D352C464F4EA9
:101630005453495A453D3336004F55545055542C58
:10164000313030312C445F474C4152455F46435561
:101650005F4844472C444953504C41592C53504106
:10166000445F444953504C41592C4C4142454C3DF8
:101670004844472C4C454E4754483D332C524F5715
:101680003D312C57494454483D36302C4845494754
:1016900048543D33342C464F524547524F554E44E3
:1016A0003D234646424630302C4F524445523D334E
:1016B0002C464F4E5453495A453D3336004F5554EE
:1016C0005055542C313030302C445F474C415245FA
:1016D0005F4643555F5350442C444953504C415945
:1016E0002C535041445F444953504C41592C4C4178
:1016F00042454C3D5350442C4C454E4754483D3494
:101700002C524F573D312C57494454483D38302CCA
:101710004845494748543D33342C464F524547527B
:101720004F554E443D234646424630302C4F52449E
:1017300045523D312C464F4E5453495A453D333660
:10174000004F55545F434F4F4C444F574E3D333538
:10175000004E4F5F444953504C41595F434C454103
:10176000523D31005650535550504F52543D310068
:1017700050414745535550504F52543D3000495306
:1017800047454E455249433D31004F5054494F4E15
:1017900000504F4E470053544154455343414E006F
:1017A00053544154455343414E005049443D4346F0
:1017B0005441333230464355005649443D314C3252
:1017C0005000415554484F523D3336306238313223
:1017D0006566313064333365353435376565376276
:1017E0003431323834353336660043465420413381
:1017F000323020464355007B3831646438356362AB
:101800002D373530352D343265622D386137662DF0
:101810003932623466626339646166667D005350B2
:10182000414400415454414348494E472043414CB0
:101830004C4241434B5321002C30002C310000001E
:101840002100240027002A002D0030003300010170
:101850000000040107010A01000022002500280001
:101860002B002E00310034000201000005010801A8
:101870000B01000020002300260029002C002F006F
:1018800032000001000003010601090105050505FC
:10189000070508080808020202020A0A08080404E8
:1018A0000404010101010101010103030303030316
:1018B0000303040707070C0C0C0C0C0C0C0C0202A5
:1018C000020206060606060606060B0B0B0B0B0BA2
:1018D0000B0B01021020200808102040102040802F
:1018E00002010201080402010102040810204080E4
:1018F0008040201008040201800402018040201072
:1019000008040201080402010102040810204080BA
:10191000010204081020408000000A0B02090C0D8F
:101920000E08070304010000000000000000000092
:1019300000000000000000000000000000000000A7
:101940000000000012111000000000000000000064
:1019500000000000000000000000000000001A204D
:10196000292811241FBECFEFD1E2DEBFCDBF00E09A
:101970000CBF2AE0A6EFB4E001C01D92A130B2076F
:10198000E1F714E0A0E0B2E0EEE6FDE500E00BBF19
:1019900002C007900D92A63FB107D9F71CE0C0EB3B
:1019A000DCE000E006C021970109802FFE010E94C3
:1019B000422CCF3AD10780E00807A9F70E946022A5
:1019C0000C94A52E0C940000AC0110924407909149
:1019D000940980919309FA01BF01641B750B209152
:1019E0004407308130934407931304C0921302C01C
:1019F000109244073081311104C0921721F0CB01BD
:101A000008953817D1F33196E7CF0F931F93CF93F3
:101A1000DF9380918809882309F446C0D0E0C0E0B4
:101A2000813029F482E080938809C8E4D7E080916E
:101A30008909882341F1209721F4C0918D09D09123
:101A40008E098E01CE010E94E40C892B29F4219687
:101A5000F80180818111F5CFF8018081882309F197
:101A6000C8010E94E40CF801E80FF91F8081882367
:101A700011F010823196F0938E09E0938D09109346
:101A80008C0900938B0980918B0990918C09892B8B
:101A900059F081E080938909DF91CF911F910F91D7
:101AA000089510E000E0EBCF80E0F6CF8150823166
:101AB00008F05AC0E82FF0E08827EE59F24F8F4F18
:101AC0000C94422C820D860D740D7A0D7E0DB40D92
:101AD000890D8F0D930D990D9D0DA10DA70DAB0DCA
:101AE000B40DAF0DB50DB90D809180008F77809347
:101AF00080000895809180008F7DF9CF80918000D3
:101B0000877FF5CF84B58F7784BD089584B58F7DA9
:101B1000FBCF8091B0008F778093B00008958091C3
:101B2000B0008F7DF9CF809190008F7780939000E7
:101B30000895809190008F7DF9CF80919000877FEC
:101B4000F5CF8091A0008F778093A00008958091B9
:101B5000A0008F7DF9CF8091A000877FF5CF809185
:101B600020018F77809320010895809120018F7D3F
:101B7000F9CF80912001877FF5CFCF93DF93282F76
:101B800030E0F901E85EF64E8491F901EE52F74E2D
:101B9000D491F901E457F74EC491CC23A1F08111FF
:101BA0000E94560DEC2FF0E0EE0FFF1FEE58F74E9F
:101BB000A591B491EC91ED2381E090E009F480E0EF
:101BC000DF91CF91089580E090E0FACF1F93CF93FB
:101BD000DF93282F30E0F901E85EF64E8491F90199
:101BE000EE52F74ED491F901E457F74EC491CC234D
:101BF000A9F0162F81110E94560DEC2FF0E0EE0F88
:101C0000FF1FE85AF74EA591B4918FB7F894EC9165
:101C1000111108C0D095DE23DC938FBFDF91CF91E7
:101C20001F910895DE2BF8CFFF920F931F93CF9350
:101C3000DF93D82FF62EC0E00BE410E060E0809137
:101C40006B060E94E60DC8010197F1F76D2F661F24
:101C50006627661F80916A060E94E60DC8010197FB
:101C6000F1F761E080916B060E94E60DC8010197D3
:101C7000F1F7CF5FDD0FFC12E1CFDF91CF911F9124
:101C80000F91FF9008951F93CF93DF93182FC9E60C
:101C9000D6E060E088810E94E60D64E080E80E9462
:101CA000140E68E0812F0E94140E61E08881DF919C
:101CB000CF911F910C94E60DCF92DF92EF92FF929D
:101CC0000F931F93CF93DF93C82F6A017B01D22F0D
:101CD00060E0809169060E94E60D63E080EA0E9460
:101CE000140E66E08C2F880F880F0E94140EC0E03F
:101CF0000BE410E060E080916B060E94E60DC801E5
:101D00000197F1F76C2D617080916A060E94E60DD3
:101D1000C8010197F1F761E080916B060E94E60D22
:101D2000C8010197F1F7CF5FF694E794D794C79471
:101D3000DC13E0CF61E080916906DF91CF911F91C4
:101D40000F91FF90EF90DF90CF900C94E60DE82F6D
:101D5000F0E0E759F94F43A150E070E060E028E07F
:101D6000880F0C945C0EE9E6F6E092A99F7D40E2B4
:101D7000849F90011124922B92AB94A59E7F892B76
:101D800084A78FE00E94A70E89E00C94A70EE9E6D5
:101D9000F6E092A99F7E40E1849F90011124922B4E
:101DA00092AB93A59E7F892B83A78FE00E94A70EFD
:101DB00088E00C94A70EE9E6F6E092A99B7F44E048
:101DC000849F90011124922B92AB92A59E7F892B28
:101DD00082A78FE00E94A70E87E00C94A70EE9E689
:101DE000F6E092A9977F48E0849F90011124922BFE
:101DF00092AB91A59E7F892B81A78FE00E94A70EB1
:101E000086E00C94A70ECF93DF93C9E6D6E08AA9AB
:101E100081608AAB8FE00E94A70E8AA982608AAB9C
:101E20008FE00E94A70E8FA181608FA384E0DF91D5
:101E3000CF910C94A70E6D3008F06BE0A82FB0E0A6
:101E4000A759B94F93969C9193979170E62FF0E024
:101E5000E052FD4F2081922B93969C930C94A70EF9
:101E6000EF92FF920F931F93CF93DF93EC01C83E45
:101E700083E0D80710F0C7EED3E00AE010E0CE010F
:101E8000B8010E941A2C7B01682F82E00E941B0F70
:101E9000C701B8010E941A2C682F81E00E941B0F15
:101EA000CE0164E670E00E941A2C80E0DF91CF91B1
:101EB0001F910F91FF90EF900C941B0FEF92FF92E8
:101EC0000F931F93CF93DF93EC01C83E83E0D807B5
:101ED00010F0C7EED3E00AE010E0CE01B8010E9496
:101EE0001A2C7B01682F85E00E941B0FC701B801E7
:101EF0000E941A2C682F84E00E941B0FCE0164E61A
:101F000070E00E941A2C83E0DF91CF911F910F9116
:101F1000FF90EF900C941B0F6BE085E00E941B0F6D
:101F20006BE084E00E941B0F6BE083E00C941B0FBE
:101F30004F925F926F927F928F929F92AF92BF92D9
:101F4000CF92DF92EF92FF926B017C0180EAC8167C
:101F500086E8D80681E0E806F10438F09FE9C92E4A
:101F600096E8D92EEE24E394F12C8AE0882E912C69
:101F7000A12CB12CC701B601A50194010E94952B9B
:101F800029013A018AE00E941B0FC301B201A50199
:101F900094010E94952B89E00E941B0FC701B60196
:101FA00024E630E040E050E00E94952BCA01B901E0
:101FB000A50194010E94952B88E00E941B0FC70188
:101FC000B60128EE33E040E050E00E94952BCA01B4
:101FD000B901A50194010E94952B87E00E941B0F77
:101FE000C701B60120E137E240E050E00E94952BA6
:101FF000622F86E0FF90EF90DF90CF90BF90AF9080
:102000009F908F907F906F905F904F900C941B0FDC
:102010006BE08AE00E941B0F6BE089E00E941B0FBF
:102020006BE088E00E941B0F6BE087E00E941B0FB3
:102030006BE086E00C941B0FCF93DF93EC01909143
:10204000990680919A06209198062E7F9E7F8E7F1A
:10205000C03137E2D307CCF5C13F38EDD3073CF0B0
:10206000D7FD07C0209799F5909399060AC0C1EF54
:10207000D8EDD195C195D1099093990690919C0680
:10208000892B80939A06209398066CE08EE00E943C
:102090001B0F6CE08DE00E941B0FCE0164E670E028
:1020A0000E942E2CCB016AE070E00E942E2C682F3B
:1020B0008CE00E941B0FCE0168EE73E00E942E2C74
:1020C0008BE0DF91CF910C941B0FCFE0D7E23091E2
:1020D0009C06932B90939906832BD3CFE9E6F6E0E9
:1020E00081A98E7F81AB80A98E7F80AB87A58E7FF3
:1020F00087A76BE08EE00E941B0F6BE08DE00E94D3
:102100001B0F6BE08CE00E941B0F6BE08BE00C94CC
:102110001B0F61E082E00E941B0F60E081E00E94E3
:102120001B0FE9E6F6E083A181708C6083A380E059
:102130000C94A70E6BE080E00E941B0F6BE081E027
:102140000E941B0F6BE082E00E941B0FE9E6F6E0A5
:1021500084A18E7F84A38FE00C94A70EE4E6F2E0C6
:1021600030E020E09081961779F02F5F3F4F329654
:102170002C333105B9F7E82FF0E0E759F94F93A177
:10218000917093A30C94A70EA82FB0E0A759B94F54
:1021900093969C9193979170220F331FF901EC59FC
:1021A000FD4F2181922B93969C93ECCFCF93DF939D
:1021B00090E0FC01EE52F74E24918457974EFC01BB
:1021C00084918823D1F090E0880F991FFC01E25C94
:1021D000F74EA591B491FC01E85AF74EC591D49100
:1021E000623071F49FB7F8943C91822F80958323DD
:1021F0008C93E8812E2B28839FBFDF91CF91089588
:102200008FB7F894EC912E2B2C938FBFF6CF1F93A2
:10221000CF93DF93182FEB0161E00E94D610209737
:1022200039F460E0812FDF91CF911F910C94E60D7E
:10223000CF3FD10511F461E0F5CFE12FF0E0E85E8A
:10224000F64EE491E150E23108F0B3C0F0E08827A7
:10225000E35DFE4E8F4F0C94422C3F1147114C1101
:1022600056116011D9116A1172117A1184118E11EF
:102270009811A711B111D911BB11C511CF1184B596
:10228000806884BDC7BDDF91CF911F91089584B54B
:10229000806284BDC8BDF7CF809180008068809344
:1022A0008000D0938900C0938800EDCF809180009A
:1022B000806280938000D0938B00C0938A00E3CF2C
:1022C00080918000886080938000D0938D00C093BF
:1022D0008C00D9CF8091B00080688093B000C0930B
:1022E000B300D1CF8091B00080628093B000C093E2
:1022F000B400C9CF80919000806880939000D09303
:102300009900C0939800BFCF809190008062809325
:102310009000D0939B00C0939A00B5CF809190001D
:10232000886080939000D0939D00C0939C00ABCFB9
:102330008091A00080688093A0008091A0008F7B96
:102340008093A000D093A900C093A8009CCF809157
:10235000A00080628093A000D093AB00C093AA003D
:1023600092CF8091A00088608093A000D093AD00B0
:10237000C093AC0088CF80912001806880932001B9
:10238000D0932901C09328017ECF809120018062E3
:1023900080932001D0932B01C0932A0174CF8091A8
:1023A0002001886080932001D0932D01C0932C01DF
:1023B0006ACFC038D1050CF03ECF33CF3FB7F89489
:1023C0008091050590910605A0910705B09108053B
:1023D00026B5A89B05C02F3F19F00196A11DB11D80
:1023E0003FBFBA2FA92F982F8827BC01CD01620FBC
:1023F000711D811D911D42E0660F771F881F991F77
:102400004A95D1F708958F929F92AF92BF92CF9243
:10241000DF92EF92FF924B015C010E94DE116B0193
:102420007C010E94DE116C197D098E099F09683EAE
:10243000734081059105A8F321E0821A9108A10853
:10244000B10888EEC80E83E0D81EE11CF11C81148F
:102450009104A104B10429F7FF90EF90DF90CF9091
:10246000BF90AF909F908F9008952FB7F894609190
:1024700001057091020580910305909104052FBF1D
:102480000895DC01ED91FC910190F081E02D19940B
:10249000EF92FF920F931F93CF93DF9320913F070B
:1024A0002223E9F08C016091930980919009909129
:1024B00091090E944112E0909009F0909109E80181
:1024C000FE016491662359F0D701ED91FC910190D2
:1024D000F081E02DC70119952196892B89F7DF91AD
:1024E000CF911F910F91FF90EF900895AF92BF92FF
:1024F000CF92DF92EF92FF920F931F93CF93DF93D0
:102500006C017B018B01040F151FEB015E01AE18FE
:10251000BF08C017D10759F06991D601ED91FC9120
:102520000190F081E02DC6011995892B79F7C5013D
:10253000DF91CF911F910F91FF90EF90DF90CF909F
:10254000BF90AF900895FC01538D448D252F30E04E
:10255000842F90E0821B930B541710F0CF960895B0
:1025600001970895FC01918D828D981761F0A28DDD
:10257000AE0FBF2FB11D5D968C91928D9F5F9F73A3
:10258000928F90E008958FEF9FEF0895FC01918D59
:10259000828D981731F0828DE80FF11D858D90E0C6
:1025A00008958FEF9FEF0895FC01918D228D892F63
:1025B00090E0805C9F4F821B91098F73992708954B
:1025C00082EA96E00E94D41221E0892B09F420E0EF
:1025D000822F0895FC01A48DA80FB92FB11DA35A15
:1025E000BF4F2C91848D90E001968F739927848F33
:1025F000A689B7892C93A089B1898C918370806456
:102600008C93938D848D981306C00288F389E02DF6
:1026100080818F7D80830895EF92FF920F931F93A7
:10262000CF93DF93EC0181E0888F9B8D8C8D981385
:102630001AC0E889F989808185FF15C09FB7F89491
:10264000EE89FF896083E889F989808183708064DD
:1026500080839FBF81E090E0DF91CF911F910F9128
:10266000FF90EF900895F62E0B8D10E00F5F1F4F37
:102670000F731127E02E8C8D8E110CC00FB607FC46
:10268000FACFE889F989808185FFF5CFCE010E94D4
:10269000EA12F1CFEB8DEC0FFD2FF11DE35AFF4F46
:1026A000F0829FB7F8940B8FEA89FB898081806262
:1026B000CFCFCF93DF93EC01888D8823B9F0AA891F
:1026C000BB89E889F9898C9185FD03C0808186FDED
:1026D0000DC00FB607FCF7CF8C9185FFF2CF80813C
:1026E00085FFEDCFCE010E94EA12E9CFDF91CF91B5
:1026F000089580E090E0892B29F00E94E01281117A
:102700000E94000080E090E0892B49F080E090E09A
:10271000892B29F00E94000081110E94000080E0B6
:1027200090E0892B49F080E090E0892B29F00E940D
:10273000000081110E94000080E090E0892B49F0A8
:1027400080E090E0892B29F00E94000081110C9418
:10275000000008950F931F93CF93DF93EC01062F92
:10276000142F62E0802F0E94D61062E0812F0E9419
:10277000D610602F70E0FB01E457F74EE491F0E0D3
:10278000EE0FFF1FEE58F74EA591B491B983A883C1
:102790006E52774EFB0164916C83812F90E0FC01B7
:1027A000E457F74EE491F0E0EE0FFF1FEE58F74EBE
:1027B000259134913B832A838E52974EFC0184915C
:1027C0008D831F82188619861A86EBE3FFE1319705
:1027D000F1F7EC91E62391E009F490E0D901EC9156
:1027E0008E2309F092609E83DF91CF911F910F910C
:1027F0000895CF93C0E024E040E050E0BA018C2F70
:102800000E945C0ECF5FC032B1F7ECE8F6E080E1E9
:10281000DF011D928A95E9F7CF9108950C94F91381
:10282000CF93DF93EC01FC0101900020E9F7CF0189
:1028300001978C1B9D0B8330910570F06A8182E0BB
:102840000E94AE10698181E00E94AE10688180E034
:10285000DF91CF910C94AE108230910598F7892BBF
:10286000A9F7DF91CF910895CF93DF93EC01FC019D
:1028700001900020E9F7CF0101978C1B9D0B83305D
:10288000910570F06A8185E00E94AE10698184E054
:102890000E94AE10688183E0DF91CF910C94AE105E
:1028A0008230910598F7892BA9F7DF91CF91089590
:1028B000CF93DF93EC01FC0101900020E9F7CF01F9
:1028C00001978C1B9D0B85309105B0F06C818AE0DF
:1028D0000E94AE106B8189E00E94AE106A8188E090
:1028E0000E94AE10698187E00E94AE10688186E088
:1028F000DF91CF910C94AE108430910558F783305E
:10290000910560F78230910568F7892B79F7DF919F
:10291000CF910895CF93DF93EC01FC01019000204B
:10292000E9F7CF0101978C1B9D0B8430910590F046
:102930006B818EE00E94AE106A818DE00E94AE1025
:1029400069818CE00E94AE1068818BE0DF91CF91AD
:102950000C94AE108330910578F78230910580F7A2
:10296000892B91F7DF91CF910895FB010190002011
:10297000E9F73197AF01461B570BDC01ED91FC9154
:102980000280F381E02D199480913F078823A1F004
:102990006091920980919009909191090E94411251
:1029A00080914707882341F06FEF72E08091900992
:1029B000909191090E94B5141092460710923F071A
:1029C00080E008958F929F92AF92BF92EF92FF9214
:1029D0000F931F93CF93DF93CDB7DEB7A1970FB6B9
:1029E000F894DEBF0FBECDBF7C01FA01CB0119A266
:1029F000223008F42AE08E010F5D1F4F822E912CA9
:102A0000B12CA12CBF01A50194010E94952BF901C5
:102A1000CA016A300CF5605DD8016E938D01232BDD
:102A2000242B252B79F790E080E0109721F0BD0151
:102A3000C7010E94B514A1960FB6F894DEBF0FBE71
:102A4000CDBFDF91CF911F910F91FF90EF90BF907D
:102A5000AF909F908F900895695CDECFCF92DF9208
:102A6000EF92FF92CF93DF9320913F07222359F1FA
:102A70006C016091930980919009909191090E9455
:102A80004112C0919009D09191090D2C000CEE08D3
:102A9000FF082AE0B701A601F7FE0CC06DE2CE01E7
:102AA0000E94411244275527BA014C195D096E094D
:102AB0007F092AE0CE01DF91CF91FF90EF90DF9068
:102AC000CF900C94E214DF91CF91FF90EF90DF90C4
:102AD000CF90089590913F07911110C091E090938D
:102AE0003F0790934607482F50E070E060E02AE0EF
:102AF00080919009909191090C94E2140895CF93DC
:102B0000DF9390913F0791110AC0EB010E946A1573
:102B1000CE010E944812DF91CF910C94C41480E042
:102B2000DF91CF9108956BE272E083E00C947F1502
:102B30000E94050D882359F081E0809389098093D4
:102B40008A0980918B0990918C090C94C429109268
:102B50008A0960E070E0CB0108950E9498150C94FA
:102B60009815CF92DF92EF92FF92CF930E94981523
:102B70006B017C010E949815AB01BC0186E0C81670
:102B8000D104E104F104BCF48AE08C9DF0018D9D38
:102B9000F00D1124EF55FA4F8081452B462B472B22
:102BA00041F061E0CF91FF90EF90DF90CF900C94D7
:102BB000E60D60E0F7CF86E0C81AD108E108F10819
:102BC0008EE0C816D104E104F10408F0D7C0F60184
:102BD0008827E251FA4E8F4F0C94422CFC150E16AA
:102BE00020162D163A1646165216631671168216C0
:102BF0009316A016AB16B31680918F068E7F91E0C8
:102C0000411101C090E0892B80938F0683E0CF9122
:102C1000FF90EF90DF90CF900C94A70E80919B06D1
:102C20008D7F21E030E0452B462B472B11F430E01F
:102C300020E0220F331F822B80939B068FE0E7CF8B
:102C400081E0452B462B472B09F480E0CF91FF9084
:102C5000EF90DF90CF900C94EF0E81E0452B462B48
:102C6000472B09F480E0CF91FF90EF90DF90CF9059
:102C70000C94B30E809191068E7F91E0411101C0BA
:102C800090E0892B8093910685E0C1CF80919706D3
:102C90008E7F91E0411101C090E0892B80939706CF
:102CA0008BE0B5CFC1E0452B462B472B09F4C0E0A4
:102CB0008C2F0E94B30E8C2FCF91FF90EF90DF905E
:102CC000CF900C94DB0E809190068E7F91E0452B87
:102CD000462B472B09F490E0892B8093900684E0E3
:102CE00096CF80919B068F7B21E030E0452B462BD1
:102CF000472B11F430E020E046E0220F331F4A95C5
:102D0000E1F799CF80919B068F7721E030E0452B4A
:102D1000462B472B11F430E020E03695322F222746
:102D20003795279588CF81E0452B462B472B09F413
:102D300080E0CF91FF90EF90DF90CF900C94C70E82
:102D4000C1E0452B462B472B09F4C0E08C2F0E9495
:102D5000C70E8C2F7BCF81E0452B462B472B09F0EC
:102D6000ABCF80E0A9CF80919B068E7F91E0452B71
:102D7000462B472B09F490E0892B5ECFCF91FF9033
:102D8000EF90DF90CF900895CF92DF92EF92FF9275
:102D90000E9498156B017C018FEFC816D104E104E5
:102DA000F10409F058F46FEF70E06C197D098DE0C3
:102DB0000E940711D0925B02C0925A02FF90EF90DE
:102DC000DF90CF900895CF92DF92EF92FF920E9412
:102DD00098156B017C018FEFC816D104E104F10452
:102DE00009F040F4B6018CE00E940711D0925D0218
:102DF000C0925C02FF90EF90DF90CF9008950E9408
:102E00009815672B682B692B61F470E060E08CE00B
:102E10000E9407116FEF70E08DE00E9407110C9483
:102E20000E1460915C0270915D028CE00E940711AB
:102E300080915A0290915B026FEF70E0681B790BF2
:102E40008DE00C9407110E94981562307105810580
:102E5000910510F46093F6040895CF92DF92EF92FB
:102E6000FF92CF93DF930E94050D882309F48CC055
:102E700081E08093890980938A09C0918B09D09160
:102E80008C0962E073E0CE010E94702E892B09F05C
:102E900080C080E00E946A156EE170E080E090E002
:102EA0000E9403128EE198E10E9448126EE170E0E8
:102EB00080E090E00E94031287EF97E10E944812A1
:102EC0006EE170E080E090E00E9403128AEE97E1EC
:102ED0000E9448126EE170E080E090E00E940312D0
:102EE00082E090E00E942E1581E090E00E942E1575
:102EF00082EC97E10E9448126EE170E080E090E081
:102F00000E94031289EB97E10E9448126EE170E083
:102F100080E090E00E9403128AEA97E10E94481242
:102F20006EE170E080E090E00E9403120E94C41401
:102F300068EC70E08CE00E9407116EE170E080E0C8
:102F400090E00E94031270E060E08CE00E940711A4
:102F50006EE170E080E090E00E94031268EC70E0A7
:102F60008CE00E9407116EE170E080E090E00E942A
:102F7000031270E060E08CE0DF91CF91FF90EF9062
:102F8000DF90CF900C94071110928A09D0E0C0E036
:102F900078CF67E073E0CE010E94702E892B09F094
:102FA00043C080E00E946A1580EA97E10E944812BF
:102FB00081E090E00E942E150E94C4148091550279
:102FC0000E94BD0D80935902811122C088E00E94A9
:102FD0006A1580915602909157020E942E1581E049
:102FE00090E00E942E150E94C41480E00E946A1591
:102FF00086E997E10E94481282E090E00E942E1537
:10300000DF91CF91FF90EF90DF90CF900C94C4149C
:1030100088E00E946A1580915602909157020E94A2
:103020002E1590E080E0DDCF61E173E0CE010E94DB
:10303000702E892BD1F50E9435126093F80470939D
:10304000F9048093FA049093FB0480E00E946A15CF
:1030500081E997E10E9448120E9498156B017C015A
:1030600080913F07882361F26091930980919009D4
:10307000909191090E944112C0919009D0919109BB
:103080002AE0B701A601F7FE0CC06DE2CE010E9456
:10309000411244275527BA014C195D096E097F0971
:1030A0002AE0CE010E94E214ABCF66E173E0CE01CC
:1030B0000E94702E892BD9F40E940E146FEF70E0DD
:1030C0008DE00E94071170E060E08CE00E94071123
:1030D00010925D0210925C0210925B0210925A02F2
:1030E000DF91CF91FF90EF90DF90CF9008956AE14C
:1030F00073E0CE010E94702E892B91F780E00E9430
:103100006A158AE897E10E9448128EE797E10E94CB
:10311000481280E797E10E94481284E697E10E94F6
:10312000481281E597E10E94481281E497E10E94EC
:1031300048120E94C4146DEB76E180E00E947F1576
:103140006EE170E080E090E00E94031269E376E1B6
:1031500080E00E947F156EE170E080E090E00E94C8
:10316000031265EB75E180E00E947F156EE170E06F
:1031700080E090E00E94031263E375E180E00E942A
:103180007F156EE170E080E090E00E9403126CED2C
:1031900074E180E00E947F156EE170E080E090E0D5
:1031A0000E94031265E874E180E00E947F156EE1E1
:1031B00070E080E090E00E9403126DE174E180E035
:1031C0000E947F156EE170E080E090E00E940312A3
:1031D00068EC73E180E00E947F156EE170E080E0B2
:1031E00090E00E94031261E373E180E00E947F158A
:1031F0006EE170E080E090E00E9403126DEE72E1FB
:1032000080E00E947F156EE170E080E090E00E9417
:10321000031269EA72E180E00E947F156EE170E0BE
:1032200080E090E00E94031265E672E180E00E9477
:103230007F156EE170E080E090E00E94031260E292
:1032400072E180E00E947F156EE170E080E090E026
:103250000E9403126AED71E180E00E947F156EE129
:1032600070E080E090E00E94031265E971E180E087
:103270000E947F156EE170E080E090E00E940312F2
:1032800060E471E180E00E947F156EE170E080E013
:1032900090E00E9403126FEE70E180E00E947F15C3
:1032A0006EE170E080E090E00E9403126EE970E150
:1032B00080E00E947F156EE170E080E090E00E9467
:1032C00003126BE370E180E00E947F156EE170E015
:1032D00080E090E00E94031266ED7FE080E00E94B3
:1032E0007F156EE170E080E090E00E94031264E7D9
:1032F0007FE080E00E947F156EE170E080E090E06A
:103300000E94031261E17FE080E00E947F156EE180
:1033100070E080E090E00E9403126EEA7EE080E0C0
:103320000E947F156EE170E080E090E00E94031241
:1033300066E47EE080E00E947F156EE170E080E050
:1033400090E00E9403126CED7DE080E00E947F150A
:103350006EE170E080E090E00E94031269E77DE09A
:1033600080E00E947F156EE170E080E090E00E94B6
:1033700003126FE07DE080E00E947F156EE170E057
:1033800080E090E00E9403126EEA7CE080E00E9400
:103390007F156EE170E080E090E00E9403126CE423
:1033A0007CE080E00E947F156EE170E080E090E0BC
:1033B0000E94031264EE7BE080E00E947F156EE1C4
:1033C00070E080E090E00E94031262E77BE080E022
:1033D0000E947F156EE170E080E090E00E94031291
:1033E00066E07BE080E00E947F156EE170E080E0A7
:1033F00090E00E94031262E97AE080E00E947F156B
:103400006EE170E080E090E00E9403126EE17AE0ED
:1034100080E00E947F156EE170E080E090E00E9405
:1034200003126AEA79E080E00E947F156EE170E0A5
:1034300080E090E00E94031263E379E080E00E9464
:103440007F156EE170E080E090E00E94031269EB6E
:1034500078E080E00E947F156EE170E080E090E00F
:103460000E94031262E478E080E00E947F156EE122
:1034700070E080E090E00E94031260EC77E080E072
:103480000E947F156EE170E080E090E00E940312E0
:103490006EE377E080E00E947F156EE170E080E0EF
:1034A00090E00E9403126CEB76E080E00E947F15B2
:1034B0006EE170E080E090E00E9403126AE376E043
:1034C00080E00E947F156EE170E080E090E00E9455
:1034D000031263EB75E080E00E947F156EE170E0FF
:1034E00080E090E00E9403126CE275E080E00E94B0
:1034F0007F156EE170E080E090E00E9403126CEABC
:1035000074E080E00E947F156EE170E080E090E062
:103510000E9403126CE274E080E00E947F156EE16D
:1035200070E080E090E00E94031267ED73E080E0BD
:103530000E947F156EE170E080E090E00E9403122F
:103540006BE773E081E00E947F156EE170E080E040
:1035500090E00E94031264E173E081E00E947F1515
:103560006EE170E080E090E00E94031268EC72E08F
:1035700081E00E947F156EE170E080E090E00E94A3
:10358000031262E472E081E00E947F156EE170E058
:1035900080E090E00E9403126BE372E080E0DF9134
:1035A000CF91FF90EF90DF90CF900C947F15CF9349
:1035B000DF930E94050D882359F181E080938909EA
:1035C00080938A09C0918B09D0918C0961E273E0E4
:1035D000CE010E94702E892B01F581E08093F704C3
:1035E0008BE00E946A1580915A0290915B020E94C2
:1035F0002E150E94C4148CE00E946A1580915C0212
:1036000090915D020E942E15DF91CF910C94C4140D
:1036100010928A09D0E0C0E0D9CF67E273E0CE0112
:103620000E94702E892B39F06CE273E0CE010E946B
:10363000702E892BC9F41092F7040E940E146FEFBC
:1036400070E08DE00E94071170E060E08CE00E9465
:10365000071110925D0210925C0210925B021092B0
:103660005A02DF91CF91089566E173E0CE010E9486
:10367000702E892BB1F7DFCF0F931F93CF93DF937A
:10368000EC0188819981009759F02A813B812617A6
:10369000370730F081E0DF91CF911F910F910895AE
:1036A0008B016F5F7F4F0E947B2D009759F09983AC
:1036B00088831B830A832C813D81232B59F7FC01CE
:1036C0001082E8CF80E0E7CFEF92FF920F931F9335
:1036D000CF93DF93EC017B01CB010E94FB29009784
:1036E000A9F00C811D81080F191FB801CE010E949D
:1036F0003C1B882361F0288139818C819D81B70131
:10370000820F931F0E94F4291D830C8381E0DF91B7
:10371000CF911F910F91FF90EF900895CF93DF937A
:10372000EC0188819981009711F00E94F22C198296
:1037300018821D821C821B821A82DF91CF9108950C
:10374000EF92FF920F931F93CF93DF93EC017B01D6
:103750008A01BA010E943C1B81110BC0CE010E945C
:103760008E1BCE01DF91CF911F910F91FF90EF90B3
:1037700008951D830C83B701888199810E94792E59
:10378000F0CFEF92FF920F931F93CF93DF93CDB7BC
:10379000DEB762970FB6F894DEBF0FBECDBF8C01C7
:1037A000CB01F801118210821382128215821482D9
:1037B0004AE09E012F5F3F4F7901B9010E941C2A08
:1037C000F70101900020E9F73197AF014E195F0929
:1037D000B701C8010E94A01B62960FB6F894DEBF25
:1037E0000FBECDBFDF91CF911F910F91FF90EF9052
:1037F0000895FB01DC0111961C921E9213961C92F7
:103800001E92129715961C921E9214978617970770
:1038100049F0608171816115710521F04481558104
:103820000C94A01B0895FC01118210821382128255
:1038300015821482FB0101900020E9F73197AF0156
:10384000461B570B0C94A01BFC01808191810097B3
:1038500011F00C94F22C08950F931F93CF93DF93E4
:1038600000D000D0CDB7DEB78C0188E00E946A1589
:10387000B801CE0101960E94F91B80913F07882371
:10388000B9F06091930980919009909191090E94FB
:10389000411280919009909191094D815E816981D9
:1038A0007A81DC01ED91FC910280F381E02D199584
:1038B000CE0101960E94241C0E94C41426960FB6C5
:1038C000F894DEBF0FBECDBFDF91CF911F910F9156
:1038D00008958F929F92AF92BF92CF92DF92EF9214
:1038E000FF920F931F93CF93DF931F921F92CDB739
:1038F000DEB70E9498154B015C010E9498150E944A
:1039000098156B017C010E94050D882341F181E02F
:103910008093890980938A0900918B0910918C0901
:1039200029EE821623E09206A104B10409F414C121
:10393000DCF4A8EE8A16A3E09A06A104B104F1F122
:103940000F900F90DF91CF911F910F91FF90EF900B
:10395000DF90CF90BF90AF909F908F90089510927E
:103960008A0910E000E0DCCFBAEE8B16B3E09B06CC
:10397000A104B10409F45BC1EBEE8E16E3E09E06F0
:10398000A104B104E9F6F2E0CF16D104E104F10498
:1039900009F081C2D8018C91883719F0803209F082
:1039A000ABC1F80101900020E9F7CF010297801721
:1039B000910709F0A1C10E946E10C2CFF2E0CF16AC
:1039C000D104E104F10409F0C1C0D8018C91883719
:1039D00011F0803261F4F80101900020E9F7CF0185
:1039E00002978017910719F40E949A10A9CF6EE3ED
:1039F00073E0C8010E94702E892B71F068E373E0B8
:103A0000C8010E94702E892B39F069E373E0C80168
:103A10000E94702E892BA9F46AE080E00E941B0F9F
:103A20006AE081E00E941B0F6AE082E00E941B0FA7
:103A300080918D068E7F80938D068FE00E94A70E69
:103A40007FCF8091F604813021F4C8010E941014C8
:103A500077CF6EE270E0C8010E94802E0097C9F116
:103A600070E060E001960E9448286B017C0120E034
:103A700030E0A9010E945E2A87FD27C020E030E0E7
:103A800046EC52E4C701B6010E94072C1816ECF070
:103A900080919B068F7780939B068FE00E94A70EF4
:103AA00080919B06806480939B068FE00E94A70E06
:103AB00080918D06816080938D06C701B6010E94BA
:103AC000D12BCB010E94300F3BCFC12CD12C7601E2
:103AD000DFCFBE016F5F7F4FC8010E9448286B0196
:103AE0007C0120E030E0A9010E945E2A87FD2AC007
:103AF00020E030EC49E754E4C701B6010E94072CEE
:103B0000181604F1A981BA81FD0101900020E9F79E
:103B10003197EA1BFB0B339708F097CF80919B06F8
:103B2000806880939B068FE00E94A70E80919B0681
:103B30008F7B80939B068FE00E94A70E80918D065D
:103B40008E7FB9CFC12CD12C7601DCCFCD28CE28E9
:103B5000CF2809F0F5CE48CFF2E0CF16D104E1042A
:103B6000F10409F05EC0D8018C91883711F08032E1
:103B700061F4F80101900020E9F7CF010297801766
:103B8000910719F40E948C0FDBCE69E373E0C80142
:103B90000E94702E892B69F46AE083E00E941B0F5B
:103BA0006AE084E00E941B0F6AE085E00E941B0F20
:103BB000C7CE8091F604813021F4C8010E943414EC
:103BC000BFCEBE016F5F7F4FC8010E9448286B01C6
:103BD0007C0120E030E0A9010E945E2A87FD1DC023
:103BE00020E030EC49E754E4C701B6010E94072CFD
:103BF00018169CF0A981BA81FD0101900020E9F717
:103C00003197EA1BFB0B3397C0F6C701B6010E9440
:103C1000D12BCB010E945E0F93CEC12CD12C76010B
:103C2000E9CFCD28CE28CF2809F08ACEABCFF2E05D
:103C3000CF16D104E104F10409F058C0D8018C91E9
:103C4000883711F0803261F4F80101900020E9F723
:103C5000CF0102978017910719F40E94081070CEC7
:103C600067E373E0C8010E94702E892B71F06DE349
:103C700073E0C8010E94702E892B39F069E373E06C
:103C8000C8010E94702E892B99F46AE086E00E9498
:103C90001B0F6AE087E00E941B0F6AE088E00E9429
:103CA0001B0F6AE089E00E941B0F6AE08AE07ECF6A
:103CB0008091F604813021F4C8010E94581440CE4E
:103CC000BE016F5F7F4FC8010E944828A981BA8159
:103CD000FD0101900020E9F73197EA1BFB0B3597B6
:103CE00058F70E94D82B0E94980F2ACECD28CE28B4
:103CF000CF2809F025CEB1CF67E373E0C8010E9459
:103D0000702E892B71F06DE373E0C8010E94702E54
:103D1000892B39F069E373E0C8010E94702E892B6A
:103D2000F1F480919A06816080939A0680919906B9
:103D30008E7F80939906809198068E7F8093980657
:103D40006AE08BE00E941B0F6AE08CE00E941B0F70
:103D50006AE08DE00E941B0F6AE08EE027CF809121
:103D6000F604813021F4C8010E948A14E9CDBE0115
:103D70006F5F7F4FC8010E9448286B017C01A981B9
:103D8000BA81FD0101900020E9F73197EA1BFB0B96
:103D9000359708F07DC020E030E040E251EC0E9411
:103DA000072C18160CF069C020E030E040E251E426
:103DB000C701B6010E945E2A87FF5FC06EE270E015
:103DC000C8010E94652E892B09F457C08EB1882343
:103DD00041F06EE270E0C8010E948B2E009709F05E
:103DE00060C070E060E0C8010E94482821E0209394
:103DF0009C0620E030E040E251E40E94C42A0E9488
:103E0000D12B862F20919A06309199069091980691
:103E100064368CF56D394CF067FD08C0316008C020
:103E200081918D938823E9F2FBCF8DE981953E7FC7
:103E300030939906216020939A069160909398069A
:103E40006AE00E940C2C182F692F8CE00E941B0F37
:103E5000612F8BE00E941B0F8091990681708093E7
:103E6000990680919A06817080939A068DE00E944F
:103E7000A70E8EE0E3CD83E6D1CF81E080939C0650
:103E8000C701B6010E94D12BCB010E941C1058CD56
:103E900010929C0668CFCD28CE28CF2809F050CDAF
:103EA0008ACDEEE2F0E0DF010D900020E9F76D0130
:103EB000BFE2CB1AD1085C017C01EC0CFD1C6EE268
:103EC00070E0C7010E948B2EF701D501009709F41D
:103ED000A7CF5D01E817F90778F721912D93F9CF66
:103EE0001F920F920FB60F9211242F933F938F932F
:103EF0009F93AF93BF938091010590910205A0918C
:103F00000305B09104053091000523E0230F2D3700
:103F100058F50196A11DB11D209300058093010560
:103F200090930205A0930305B093040580910505C5
:103F300090910605A0910705B09108050196A11D75
:103F4000B11D8093050590930605A0930705B093D6
:103F50000805BF91AF919F918F913F912F910F9045
:103F60000FBE0F901F90189526E8230F0296A11DF3
:103F7000B11DD2CF1F920F920FB60F9211240BB624
:103F80000F922F933F934F935F936F937F938F93F2
:103F90009F93AF93BF93EF93FF9382EA96E00E94C3
:103FA000EA12FF91EF91BF91AF919F918F917F9115
:103FB0006F915F914F913F912F910F900BBE0F909A
:103FC0000FBE0F901F9018951F920F920FB60F9271
:103FD00011240BB60F922F938F939F93EF93FF9320
:103FE000E091B206F091B3068081E091B806F091BD
:103FF000B90682FD1DC090818091BB068F5F8F73D3
:104000002091BC06821741F0E091BB06F0E0EE552E
:10401000F94F958F8093BB06FF91EF919F918F9100
:104020002F910F900BBE0F900FBE0F901F90189501
:104030008081F2CFCF92DF92EF92FF92CF93DF9306
:104040001092A5061092A40688EE93E0A0E0B0E0DE
:104050008093A6069093A706A093A806B093A906FE
:1040600081EF92E09093A3068093A20685EC90E006
:104070009093AF068093AE0684EC90E09093B106E7
:104080008093B00680EC90E09093B3068093B206E4
:1040900081EC90E09093B5068093B40682EC90E0BA
:1040A0009093B7068093B60686EC90E09093B9069D
:1040B0008093B8061092BB061092BC061092BD0603
:1040C0001092BE06109296091092950982EA96E027
:1040D0009093910980939009109247078CE2809306
:1040E00093098BE3809392098FE28093940980E493
:1040F000809342078FE38093430710924107109209
:104100008C0910928B0910928E0910928D0981E012
:1041100080938909E7E9F9E08BEF99E01192119218
:104120008E179F07D9F7109246078CE18093690696
:104130008AE180936A068BE180936B0681E080932D
:104140009C0686E090E09093A2058093A10563E42D
:1041500073E083EA95E00E94131CCFEFDFEFD0936A
:10416000AA05C093A90582E090E09093AC058093E6
:10417000AB0563E573E08DEA95E00E94131CD093D4
:10418000B405C093B30584E090E09093B6058093A6
:10419000B50563E673E087EB95E00E94131CD093AE
:1041A000BE05C093BD0588E090E09093C005809364
:1041B000BF0563E773E081EC95E00E94131CD09388
:1041C000C805C093C70589E090E09093CA05809325
:1041D000C90564E873E08BEC95E00E94131CD09352
:1041E000D205C093D1058AE090E09093D4058093E6
:1041F000D30566E973E085ED95E00E94131CD0932A
:10420000DC05C093DB05D093DE05C093DD0567EACE
:1042100073E08FED95E00E94131CD093E605C093E8
:10422000E505D093E805C093E7056FEB73E089EEF1
:1042300095E00E94131CD093F005C093EF05D09336
:10424000F205C093F10564ED73E083EF95E00E9401
:10425000131CD093FA05C093F905D093FC05C093C5
:10426000FB0564EE73E08DEF95E00E94131CD09384
:104270000406C0930306D0930606C093050664EFB8
:1042800073E087E096E00E94131CD0930E06C09363
:104290000D06D0931006C0930F0667E074E081E12D
:1042A00096E00E94131CD0931806C0931706D09373
:1042B0001A06C09319066AE174E08BE196E00E9449
:1042C000131CD0932206C0932106D0932406C093DA
:1042D00023066CE274E085E296E00E94131CD09302
:1042E0002C06C0932B06D0932E06C0932D066CE3AC
:1042F00074E08FE296E00E94131CD0933606C093C0
:104300003506D0933806C09337066DE474E089E330
:1043100096E00E94131CD0934006C0933F06D093B2
:104320004206C09341066DE574E083E496E00E9486
:10433000131CD0934A06C0934906D0934C06C093F1
:104340004B066DE674E08DE496E00E94131CD0935A
:104350005406C0935306D0935606C093550660E8A2
:1043600074E087E596E00E94131CD0935E06C0932C
:104370005D06D0936006C0935F066FE874E081E647
:1043800096E00E94131CD0936806C093670646E12E
:1043900067E186E995E00E94AA1342E163E18BE8B8
:1043A00095E00E94AA1344E265E280E895E00E944D
:1043B000AA1346E267E285E795E00E94AA138BE024
:1043C000E6E9F5E0A9E0B5E001900D928A95E1F704
:1043D0006FE974E084E195E00E94131C89E1C82E26
:1043E0008CEFD82EEE24EA94FE2CC0921A05D092BF
:1043F0001B05E0921C05F0921D056FEA74E08EE14A
:1044000095E00E94131C8BE0EBE8F5E0A4E2B5E038
:1044100001900D928A95E1F76CEB74E08FE295E0E4
:104420000E94131CC0923505D0923605E0923705E4
:10443000F09238056FEA74E089E395E00E94131C5E
:104440008BE0E0E8F5E0AFE3B5E001900D928A95EE
:10445000E1F76CEC74E08AE495E00E94131CC092D2
:104460005005D0925105E0925205F09253056FEA43
:1044700074E084E595E00E94131C8BE0E5E7F5E02D
:10448000AAE5B5E001900D928A95E1F76CED74E034
:1044900085E695E00E94131CC0926B05D0926C05D6
:1044A000E0926D05F0926E056FEA74E08FE695E09C
:1044B000DF91CF91FF90EF90DF90CF900C94131C81
:1044C000CF93DF93CDB7DEB766970FB6F894DEBF14
:1044D0000FBECDBF789484B5826084BD84B5816001
:1044E00084BD85B5826085BD85B5816085BD8091BF
:1044F0006E00816080936E00109281008091810037
:10450000826080938100809181008160809381002E
:10451000809180008160809380008091B1008460F0
:104520008093B1008091B00081608093B000809151
:1045300091008260809391008091910081608093CE
:104540009100809190008160809390008091A10003
:1045500082608093A1008091A10081608093A1007E
:104560008091A00081608093A000809121018260F1
:1045700080932101809121018160809321018091AC
:10458000200181608093200180917A008460809373
:104590007A0080917A00826080937A0080917A001C
:1045A000816080937A0080917A00806880937A009D
:1045B0001092C10061E08CE00E94D61060915C0214
:1045C00070915D028CE00E94071161E08DE00E9415
:1045D000D61080915A0290915B026FEF70E0681BD9
:1045E000790B8DE00E9407118CE180939E068BE190
:1045F00080939F068AE18093A00681E080939D06C8
:1046000061E080916A060E94D61061E080916B069D
:104610000E94D61061E0809169060E94D61061E088
:10462000809169060E94E60D61E080916B060E9410
:10463000E60D61E080916A060E94E60DECE6F6E088
:104640008CE896E011928E179F07E1F780E30E94B5
:10465000430E82E50E94430E82E00E94430E86E0F4
:104660000E94430E10E024E040E050E0BA01812FA8
:104670000E945C0E1F5F1032B1F7ECE8F6E080E1BB
:10468000DF011D928A95E9F70E94030F0E94030F34
:104690000E94891088E090E00E945E0F86E0EBEEB9
:1046A000F4E0DE01119601900D928A95E1F7CE01BA
:1046B00001960E94581485E0E1EFF4E0DE011796C0
:1046C00001900D928A95E1F7CE0107960E948A1417
:1046D0000E9435126093F8047093F9048093FA04F1
:1046E0009093FB046093FC047093FD048093FE049C
:1046F0009093FF04E0E0EE2EE2E0FE2E62E0F70190
:1047000080810E94D610F5E0EF0EF11C2AE5E2163A
:1047100022E0F20699F77DEDC72E75E0D72E01EA6B
:1047200015E0D8018D919C9197FD13C061E00E9426
:10473000D61061E0F80180810E94E60D64E670E029
:1047400080E090E00E94031260E0D8018C910E940A
:10475000E60D065F1F4FC016D10619F70E94F91328
:10476000E091B206F091B30682E08083E091AE065C
:10477000F091AF061082E091B006F091B10680E1B1
:1047800080831092BA06E091B606F091B70686E0F3
:104790008083E091B406F091B506808180618083CA
:1047A000E091B406F091B506808188608083E09145
:1047B000B406F091B506808180688083E091B406EC
:1047C000F091B50680818F7D808363E278E183E09C
:1047D0000E947F158DE297E1909398098093970945
:1047E00087ED9AE190939C0980939B0983E995E179
:1047F00090939E0980939D098DEA95E19093A2097B
:104800008093A10981EB95E19093A4098093A3097A
:1048100089E69CE19093A6098093A50984EC96E132
:104820009093AE098093AD0983EE96E19093B00921
:104830008093AF098FEF96E19093B2098093B1090D
:1048400083E297E19093B4098093B30966246A9454
:10485000712C22242A94312C60E8462E512C39E008
:10486000A32E35E0B32ED12CC12CD501ED91FD91B5
:104870008081ED91FD919081ED91FD916C9163703E
:104880008E2309F064609F2309F06860E2E5F4E29A
:10489000E60FF11D659565956D936D917D918D91F7
:1048A0009D91099423C01AC012C016C010C01EC02A
:1048B00009C014C013C006C019C009C00DC007C08C
:1048C0000DC014C062507040804090400BC06150D9
:1048D00070408040904006C06E5F01C06F5F7F4FA8
:1048E0008F4F9F4F9E938E937E936E93F50187819A
:1048F0009085A185B28522E0B595A7959795879576
:104900002A95D1F7418952896389748948175907D3
:104910006A077B070CF010C1818B928BA38BB48B41
:104920008091F704882371F088E00E946A15C6011F
:104930008854944F0E942E1581E090E00E942E151D
:104940000E94C414F2E0CF16D10409F0C1C08EE178
:104950000E94BD0D892B09F075C380915C02909176
:104960005D0208968F3F910509F02CF490935D024B
:1049700080935C0204C030925D0220925C026091E0
:104980005C0270915D028CE00E9407118091F70437
:10499000882309F457C38CE00E946A1580915C0259
:1049A00090915D020E942E150E94C4148FEFC81AC8
:1049B000D80A9BE1A90EB11CA4E0CA16D10409F0E3
:1049C00054CF0E9435128090FC049090FD04A0907A
:1049D000FE04B090FF04681979098A099B096536BD
:1049E00071058105910508F466C18091F70488235B
:1049F00009F456C070E0C72E72E0D72EF601808110
:104A00000E94BD0D5C01D60114968C911497082E5E
:104A1000000C990BA816B906E1F1A114B10409F034
:104A2000D4C011966D917C91CE0101960E94C11B5C
:104A3000BE016F5F7F4FCE0107960E94F91B6BE3AB
:104A400078E1CE0107960E94641B811104C0CE015B
:104A500007960E948E1BBE01695F7F4FCE010D96A7
:104A60000E94F91B80913F07811104C0CE010D9671
:104A70000E942C1CCE010D960E94241CCE0107968C
:104A80000E94241CCE0101960E94241CD60114967B
:104A9000AC92B5E0CB0ED11CEC14FD0409F0AECF06
:104AA0008EE10E94BD0D892B09F0A5C088E20E940D
:104AB000BD0D892B09F09FC080915C0290915D0231
:104AC000892B09F4D0C010925D0210925C02D1C013
:104AD00023E0C216D10409F069CF8EE10E94BD0D1A
:104AE000892B09F06ECF80915A0290915B02089653
:104AF0008F3F910509F02CF490935B0280935A024A
:104B000004C030925B0220925A0280915A02909126
:104B10005B02B301681B790B8DE00E940711809145
:104B2000F704882309F44DCF8BE00E946A15809129
:104B30005A0290915B0236CF84179507A607B707F4
:104B40000CF034CF818B928BA38BB48B8091F704C4
:104B5000882371F088E00E946A15C6018854944F3A
:104B60000E942E158FEF9FEF0E942E150E94C414F5
:104B7000F2E0CF16D10491F48EE10E94BD0D892B95
:104B800009F060C280915C0290915D02089797FFE6
:104B9000EDCE10925D0210925C02F1CE23E0C216BF
:104BA000D10409F003CF8EE10E94BD0D892B09F0DD
:104BB00008CF80915A0290915B02089797FF9CCF93
:104BC00010925B0210925A02A0CFB1E0AB16B10472
:104BD00009F05CCFF60161817281CE0101960E94DD
:104BE000C11BBE016F5F7F4FCE0107960E94F91B6C
:104BF00068E378E126CF8EE10E94BD0D892B09F490
:104C00003BC18EE10E94BD0D892B09F45CC18EE190
:104C10000E94BD0D892B09F044C08AE20E94BD0D9F
:104C2000892B09F03EC045E0C42ED12C60E870E02D
:104C30008CE00E94071164E670E080E090E00E9442
:104C4000031270E060E08CE00E94071164E670E0FF
:104C500080E090E00E94031221E0C21AD10831F7EF
:104C60000C9400001EC0E0E4F0E0F0935D02E093DD
:104C70005C0260915C0270915D028CE00E94071101
:104C80008CE00E946A1580915C0290915D020E9406
:104C90002E150E94C41464EF71E080E090E00E9441
:104CA00003120E9435126093FC047093FD048093FC
:104CB000FE049093FF040E9435128090F8049090B7
:104CC000F904A090FA04B090FB04681979098A09E4
:104CD0009B09613E73498440910540F10E940E1486
:104CE00031EAC32E35E0D32EF6018081918197FD04
:104CF00003C060E00E94E60DFAE0CF0ED11CC016A2
:104D0000D10691F770E060E08CE00E9407116FEF30
:104D100070E08DE00E9407110E9435126093F80444
:104D20007093F9048093FA049093FB0480914607F2
:104D300081117CC18091900990919109DC01ED91E4
:104D4000FC910084F185E02D1995892B09F46EC141
:104D50008091900990919109DC01ED91FC91008482
:104D6000F185E02D1995812C22E0922E811592403B
:104D700064F48091900990919109DC01ED91FC918E
:104D80000084F185E02D19954C01C0909009D090D8
:104D90009109E8E8F7E0FC8BEB8BFE8BED8BB12CF7
:104DA000A12C8A149B0409F0FFC0D12CC12C8C14B7
:104DB0009D0409F4BBCFAB89BC899D91BC8BAB8BA7
:104DC00010928809309194092091450790934507E6
:104DD000931304C0921302C01092450780914107BB
:104DE000E82FF0E040919209E15CF84F941304C180
:104DF000321709F401C11186882329F0B1E0B0937C
:104E00008809109245071092410710928C09109260
:104E10008B0910928E0910928D09E1E0E0938909C7
:104E2000B0908809F1E0BF12FDC00E94050D8823F3
:104E300009F4ECC0B0928909B0928A0980918B097B
:104E400090918C090E94A62980934007823308F034
:104E5000E2C020918A09222309F4DDC0FC01FF276A
:104E6000EE0FFF1FE956F64F0190F081E02D3097CD
:104E700009F4D1C01995D6C083E30E94BD0D892BDA
:104E800009F0BFCE80915A0290915B02892BB1F458
:104E900050925B0240925A0280915A0290915B02BA
:104EA000B301681B790B8DE00E9407118BE00E9413
:104EB0006A1580915A0290915B02E9CE10925B02D2
:104EC00010925A02E9CF8FE00E94BD0D892B09F0A4
:104ED0009ECE88E793E00E94300F88E793E00E941F
:104EE0005E0F68E37BE581E090E00E94980F88EB1D
:104EF00092E20E941C1061EAC62E65E0D62ED60111
:104F00008D919C9197FD09C061E00E94E60D62E3DE
:104F100070E080E090E00E940312BAE0CB0ED11C5A
:104F20000C151D0561F70E94891088E090E00E9431
:104F30005E0F86E0EBEEF4E0DE01119601900D923B
:104F40008A95E1F7CE0101960E94581485E0E1EFC1
:104F5000F4E0DE01179601900D928A95E1F7CE01FB
:104F600007960E948A1460ED77E080E090E00E944E
:104F7000031251EAA52E55E0B52EF50180819181ED
:104F800097FD09C060E00E94E60D62E370E080E0FA
:104F900090E00E940312FAE0AF0EB11CCA14DB04C9
:104FA00061F70E940E147DCE0E943512D60118962C
:104FB0006D937D938D939C931B97D601ED91FC91FE
:104FC0000284F385E02DC601199597FF32C00E9437
:104FD0003512F6012085318542855385621B730B9E
:104FE000840B950B248135814681578162177307A5
:104FF0008407950710F3D9CE91878F5F809341077F
:1050000090914307891708F0FECE0ACF10928A09C3
:1050100090E080E019CFE0919509F09196093097E2
:1050200009F028CF2FEFC21AD20AC1CE0E947913FD
:1050300016CCAD89BE898D93BE8BAD8BBFEFAB1AFD
:10504000BB0AAFCE83E0C82ED12CEBE1AE0EB11C73
:105050000CCCCF93DF93C5E7D5E06B97CE01459697
:105060000E94241CCE010B960E94241C85E0C930AE
:10507000D80799F7C9E6D6E02A97CE0102960E9492
:10508000241C85E0C13AD807B9F7DF91CF91089584
:105090008F929F92AF92BF92CF92DF92EF92FF9248
:1050A0000F931F93CF93DF935C017B016115710513
:1050B00019F0DB018D939C9385010F5F1F4FF50164
:1050C000D0818D2F90E00E94EB296C01892BB9F5DE
:1050D000DD32B9F50F5F1F4FD5011196DC91C1E0AC
:1050E0005801F1E0AF1AB10843E050E068EF71E019
:1050F000C5010E94042A892B69F5680182E0C80E67
:10510000D11C45E050E063EF71E0C6010E94042A23
:10511000892B21F4680197E0C90ED11CE114F10438
:1051200019F0D701CD92DC9260E070E080E89FEF4B
:10513000C111FFC060E070E080E89FE7FAC058014D
:10514000BBCFDB3229F485010E5F1F4FF501D18102
:10515000C0E0C6CF43E050E060EF71E0C5010E94BF
:10516000042A892BE9F0F80110E000E020E030E0AB
:10517000A9015F01B0ED8B2E8D0E89E08815C8F175
:105180009C2E689491F88C2F8870C2FF16C08111F4
:1051900002C00F5F1F4F3196D501DC91C92DE9CFB9
:1051A000E114F10429F00E5F1F4FF7011183008312
:1051B00060E070E080EC9FE7BCC0882311F00150F4
:1051C0001109A5E0B0E00E94B72B9B01AC01220FB2
:1051D000331F441F551F280D311D411D511D2839F6
:1051E00099E93907490799E15907A8F2C6609C2E49
:1051F000D2CFAEEF8A1206C0C3FD3CC09C2E68948D
:1052000093F8C9CFDF7DD534A9F580818D3239F48B
:10521000C061DF011296818162E070E006C0DF01AB
:105220008B32C1F3119661E070E080535D01A61AE4
:10523000B70A8A30F8F4E0E8CE16ECE0DE065CF45B
:10524000B601660F771F660F771FC60ED71ECC0CF0
:10525000DD1CC80ED11C5D01FFEFAF1ABF0A8C9197
:1052600080538A30A8F1C4FF03C0D194C194D108FF
:105270000C0D1D1DC1FF09C0E114F10431F081E0E6
:10528000A81AB108D701AD92BC92CA01B9010E9417
:10529000632AC370C33009F490584B015C0120E0CD
:1052A00030E0A9010E945E2A882309F440C0C7E2C9
:1052B000D2E017FF05C0119501951109CFE0D2E0AA
:1052C0006E01B8E1CB1AD10880E2E82EF12C0FC0B4
:1052D000D501B1CFFE0125913591459154910E191B
:1052E0001F09C501B4010E94C42A4B015C01D5010C
:1052F000C4010E151F0574F72497F594E794CC1696
:10530000DD06A9F78A2F880F8B2F881F8F3F49F062
:1053100020E030E0A901C501B4010E945E2A81119C
:1053200006C082E290E09093FC098093FB09C501DE
:10533000B401DF91CF911F910F91FF90EF90DF901B
:10534000CF90BF90AF909F908F900895FC018827D9
:105350009927E89421912032E9F3293010F02E307A
:10536000C8F32B3241F02D3239F4689404C00E9406
:105370003C2A820F911D219120532A30C0F31EF444
:10538000909581959F4F08951F93FC019927882739
:10539000BC01E89411911032E9F3193010F01E307D
:1053A000C8F31B3251F01D3249F4689406C00E94C4
:1053B000272A610F711D811D911D119110531A3003
:1053C000B0F33EF490958095709561957F4F8F4F27
:1053D0009F4F1F91089591110C94312B803219F039
:1053E00089508550C8F70895FB01DC0105900D92A6
:1053F0000020E1F70895FC0105900020E9F7809571
:1054000090958E0F9F1F0895FB01DC014150504085
:1054100088F08D9181341CF08B350CF4805E6591A1
:1054200061341CF06B350CF4605E861B611171F306
:10543000990B0895881BFCCFBB274A3031F4992380
:1054400022F4BDE2909581959F4F0C94452A592FE7
:10545000482F372F262F660F771F881F991F660F3B
:10546000771F881F991F620F731F841F951F660F78
:10547000771F881F991F08957AE0979F902D879F27
:10548000802D910D11240895BB27FB015527AA27D4
:10549000880F991FAA1FA41710F0A41B83955051C1
:1054A000B9F7A05DAA3308F0A95DA193009779F739
:1054B000B111B1931192CB010C94342B0E94A02A0C
:1054C00008F481E00895E89409C097FB3EF49095B4
:1054D0008095709561957F4F8F4F9F4F9923A9F0CD
:1054E000F92F96E9BB279395F6958795779567955C
:1054F000B795F111F8CFFAF4BB0F11F460FF1BC0A0
:105500006F5F7F4F8F4F9F4F16C0882311F096E932
:1055100011C0772321F09EE8872F762F05C06623E0
:1055200071F096E8862F70E060E02AF09A95660F99
:10553000771F881FDAF7880F9695879597F9089552
:10554000990F0008550FAA0BE0E8FEEF1616170694
:10555000E807F907C0F012161306E407F50798F0FC
:10556000621B730B840B950B39F40A2661F0232B15
:10557000242B252B21F408950A2609F4A140A69591
:105580008FEF811D811D08950E94D72A0C945B2BFB
:105590000E944D2B38F00E94542B20F0952311F0DF
:1055A0000C94442B0C944A2B11240C948F2B0E94A6
:1055B0006C2B70F3959FC1F3950F50E0551F629FC0
:1055C000F001729FBB27F00DB11D639FAA27F00D5C
:1055D000B11DAA1F649F6627B00DA11D661F829F83
:1055E0002227B00DA11D621F739FB00DA11D621F68
:1055F000839FA00D611D221F749F3327A00D611D85
:10560000231F849F600D211D822F762F6A2F112466
:105610009F5750409AF0F1F088234AF0EE0FFF1F99
:10562000BB1F661F771F881F91505040A9F79E3FF0
:10563000510580F00C94442B0C948F2B5F3FE4F3C6
:10564000983ED4F3869577956795B795F795E79546
:105650009F5FC1F7FE2B880F911D9695879597F94F
:105660000895992788270895DC01FC01672F71911F
:105670007723E1F7329704C07C916D937083629138
:10568000AE17BF07C8F3089597F99F6780E870E0E9
:1056900060E008959FEF80EC089500240A941616A8
:1056A000170618060906089500240A941216130610
:1056B000140605060895092E0394000C11F488239E
:1056C00052F0BB0F40F4BF2B11F460FF04C06F5FBA
:1056D0007F4F8F4F9F4F089557FD9058440F551F90
:1056E00059F05F3F71F04795880F97FB991F61F064
:1056F0009F3F79F087950895121613061406551FDB
:10570000F2CF4695F1DF08C0161617061806991F46
:10571000F1CF86957105610508940895E894BB273B
:1057200066277727CB0197F90895A1E21A2EAA1BC5
:10573000BB1BFD010DC0AA1FBB1FEE1FFF1FA21741
:10574000B307E407F50720F0A21BB30BE40BF50B3E
:10575000661F771F881F991F1A9469F760957095C7
:10576000809590959B01AC01BD01CF0108950E94E9
:10577000C22BA59F900DB49F900DA49F800D911DED
:1057800011240895A29FB001B39FC001A39F700D83
:10579000811D1124911DB29F700D811D1124911D39
:1057A00008950E94D82B6894B1110C948F2B089502
:1057B0000E94742B88F09F5798F0B92F9927B75102
:1057C000B0F0E1F0660F771F881F991F1AF0BA95A5
:1057D000C9F714C0B13091F00E948E2BB1E008954A
:1057E0000C948E2B672F782F8827B85F39F0B93F3C
:1057F000CCF3869577956795B395D9F73EF4909558
:105800008095709561957F4F8F4F9F4F08950E94AF
:10581000A02A08F48FEF089587FB082E062687FD3F
:10582000819567FD61950E944A2C0EF4919507FCC5
:1058300081950895AA1BBB1B51E107C0AA1FBB1F7E
:10584000A617B70710F0A61BB70B881F991F5A950C
:10585000A9F780959095BC01CD01089597FB072E7F
:1058600016F4009407D077FD09D00E941A2C07FC8B
:1058700005D03EF4909581959F4F08957095619560
:105880007F4F0895EE0FFF1F881F8BBF0790F69183
:10589000E02D1994991B79E004C0991F961708F020
:1058A000961B881F7A95C9F7809508950F931F93CB
:1058B000CF93DF938230910510F482E090E0E09185
:1058C000FF09F091000A30E020E0B0E0A0E030975E
:1058D00099F42115310509F44AC0281B390B2430ED
:1058E0003105D8F58A819B816115710589F1FB012C
:1058F00093838283FE0111C0408151810281138113
:1059000048175907E0F04817590799F4109761F0C4
:1059100012960C93129713961C933296CF01DF9137
:10592000CF911F910F9108950093FF091093000AE2
:10593000F4CF2115310551F04217530738F0A90172
:10594000DB019A01BD01DF01F801C1CFEF01F9CF01
:105950009093000A8093FF09CDCFFE01E20FF31F61
:10596000819391932250310939832883D7CF209195
:10597000FD093091FE09232B41F420916002309102
:1059800061023093FE092093FD0920915E0230915F
:105990005F022115310541F42DB73EB740916202F7
:1059A00050916302241B350BE091FD09F091FE0933
:1059B000E217F307A0F42E1B3F0B2817390778F0E6
:1059C000AC014E5F5F4F2417350748F04E0F5F1F45
:1059D0005093FE094093FD09819391939FCFF0E08E
:1059E000E0E09CCFCF93DF930097E9F0FC01329782
:1059F00013821282A091FF09B091000AED0130E0FC
:105A000020E01097A1F420813181820F931F209113
:105A1000FD093091FE092817390709F061C0F0939C
:105A2000FE09E093FD09DF91CF910895EA01CE17B9
:105A3000DF07E8F54A815B819E0141155105B1F709
:105A4000E901FB83EA8349915991C40FD51FEC17F3
:105A5000FD0761F4808191810296840F951FE90111
:105A600099838883828193819B838A83F0E0E0E03D
:105A700012968D919C9113970097B9F52D913C91B9
:105A80001197CD010296820F931F2091FD0930914D
:105A9000FE092817390739F6309751F51092000A98
:105AA0001092FF09B093FE09A093FD09BCCFD383E8
:105AB000C28340815181840F951FC817D90761F4B3
:105AC0004E5F5F4F88819981480F591F51834083F2
:105AD0008A819B81938382832115310509F0B0CFA0
